{
  "address": "0x081Fb5d2397364701f063A82a053e5087cc72C50",
  "abi": [
    {
      "inputs": [
        {
          "internalType": "address",
          "name": "_battle",
          "type": "address"
        }
      ],
      "name": "addBattle",
      "outputs": [],
      "stateMutability": "nonpayable",
      "type": "function"
    },
    {
      "inputs": [],
      "name": "battleLength",
      "outputs": [
        {
          "internalType": "uint256",
          "name": "len",
          "type": "uint256"
        }
      ],
      "stateMutability": "view",
      "type": "function"
    },
    {
      "inputs": [
        {
          "internalType": "address",
          "name": "_battle",
          "type": "address"
        }
      ],
      "name": "containBattle",
      "outputs": [
        {
          "internalType": "bool",
          "name": "",
          "type": "bool"
        }
      ],
      "stateMutability": "view",
      "type": "function"
    },
    {
      "inputs": [
        {
          "internalType": "address",
          "name": "_collateral",
          "type": "address"
        },
        {
          "internalType": "contract IOracle",
          "name": "_oracle",
          "type": "address"
        },
        {
          "internalType": "string",
          "name": "_trackName",
          "type": "string"
        },
        {
          "internalType": "string",
          "name": "_priceName",
          "type": "string"
        },
        {
          "internalType": "uint256",
          "name": "amount",
          "type": "uint256"
        },
        {
          "internalType": "uint256",
          "name": "_spearPrice",
          "type": "uint256"
        },
        {
          "internalType": "uint256",
          "name": "_shieldPrice",
          "type": "uint256"
        },
        {
          "internalType": "uint256",
          "name": "_range",
          "type": "uint256"
        },
        {
          "internalType": "enum RangeType",
          "name": "_ry",
          "type": "uint8"
        }
      ],
      "name": "createBattle",
      "outputs": [],
      "stateMutability": "nonpayable",
      "type": "function"
    },
    {
      "inputs": [
        {
          "internalType": "uint256",
          "name": "index",
          "type": "uint256"
        }
      ],
      "name": "getBattle",
      "outputs": [
        {
          "internalType": "address",
          "name": "_battle",
          "type": "address"
        }
      ],
      "stateMutability": "view",
      "type": "function"
    },
    {
      "inputs": [
        {
          "internalType": "address",
          "name": "_battle",
          "type": "address"
        }
      ],
      "name": "removeBattle",
      "outputs": [],
      "stateMutability": "nonpayable",
      "type": "function"
    }
  ],
  "transactionHash": "0xbb7e280120c1e3bde9a10999be10fea26fa9ebb7dbdd0783c431f66d7214938c",
  "args": [],
  "solcInputHash": "7df0190fa777b598144198e22e6d3d97",
  "bytecode": "0x608060405234801561001057600080fd5b50614417806100206000396000f3fe608060405234801561001057600080fd5b50600436106100625760003560e01c80631ef31b70146100675780636dd0ce7a1461007c57806383d342ba146100ac57806392d559b1146100bf578063a3bfe274146100e2578063fab29a27146100f8575b600080fd5b61007a61007536600461085d565b61010b565b005b61008f61008a36600461093b565b6101f2565b6040516001600160a01b0390911681526020015b60405180910390f35b61007a6100ba366004610841565b610204565b6100d26100cd366004610841565b610213565b60405190151581526020016100a3565b6100ea61021f565b6040519081526020016100a3565b61007a610106366004610841565b610230565b6101206001600160a01b038a1633308861023b565b600060405161012e90610799565b604051809103906000f08015801561014a573d6000803e3d6000fd5b5090506101616001600160a01b038b1630886102ac565b60405163d42bc60560e01b81526001600160a01b0382169063d42bc6059061019f9033908e908e908e908e908e908e908e908e908e9060040161099b565b600060405180830381600087803b1580156101b957600080fd5b505af11580156101cd573d6000803e3d6000fd5b505050506101e58160006102e190919063ffffffff16565b5050505050505050505050565b60006101fe81836102fd565b92915050565b61020f6000826102e1565b5050565b60006101fe8183610309565b600061022b600061032b565b905090565b61020f600082610335565b6040516001600160a01b03808516602483015283166044820152606481018290526102a69085906323b872dd60e01b906084015b60408051601f198184030181529190526020810180516001600160e01b03166001600160e01b03199093169290921790915261034a565b50505050565b6040516001600160a01b0383166024820152604481018290526102dc90849063a9059cbb60e01b9060640161026f565b505050565b60006102f6836001600160a01b038416610421565b9392505050565b60006102f68383610470565b6001600160a01b038116600090815260018301602052604081205415156102f6565b60006101fe825490565b60006102f6836001600160a01b038416610504565b600061039f826040518060400160405280602081526020017f5361666545524332303a206c6f772d6c6576656c2063616c6c206661696c6564815250856001600160a01b03166106219092919063ffffffff16565b8051909150156102dc57808060200190518101906103bd919061091b565b6102dc5760405162461bcd60e51b815260206004820152602a60248201527f5361666545524332303a204552433230206f7065726174696f6e20646964206e6044820152691bdd081cdd58d8d9595960b21b60648201526084015b60405180910390fd5b6000818152600183016020526040812054610468575081546001818101845560008481526020808220909301849055845484825282860190935260409020919091556101fe565b5060006101fe565b815460009082106104ce5760405162461bcd60e51b815260206004820152602260248201527f456e756d657261626c655365743a20696e646578206f7574206f6620626f756e604482015261647360f01b6064820152608401610418565b8260000182815481106104f157634e487b7160e01b600052603260045260246000fd5b9060005260206000200154905092915050565b60008181526001830160205260408120548015610617576000610528600183610a5f565b855490915060009061053c90600190610a5f565b9050600086600001828154811061056357634e487b7160e01b600052603260045260246000fd5b906000526020600020015490508087600001848154811061059457634e487b7160e01b600052603260045260246000fd5b6000918252602090912001556105ab836001610a47565b600082815260018901602052604090205586548790806105db57634e487b7160e01b600052603160045260246000fd5b600190038181906000526020600020016000905590558660010160008781526020019081526020016000206000905560019450505050506101fe565b60009150506101fe565b60606106308484600085610638565b949350505050565b6060824710156106995760405162461bcd60e51b815260206004820152602660248201527f416464726573733a20696e73756666696369656e742062616c616e636520666f6044820152651c8818d85b1b60d21b6064820152608401610418565b843b6106e75760405162461bcd60e51b815260206004820152601d60248201527f416464726573733a2063616c6c20746f206e6f6e2d636f6e74726163740000006044820152606401610418565b600080866001600160a01b03168587604051610703919061097f565b60006040518083038185875af1925050503d8060008114610740576040519150601f19603f3d011682016040523d82523d6000602084013e610745565b606091505b5091509150610755828286610760565b979650505050505050565b6060831561076f5750816102f6565b82511561077f5782518084602001fd5b8160405162461bcd60e51b81526004016104189190610a34565b6138fb80610ae783390190565b8035600381106107b557600080fd5b919050565b600082601f8301126107ca578081fd5b813567ffffffffffffffff808211156107e5576107e5610ab8565b604051601f8301601f19908116603f0116810190828211818310171561080d5761080d610ab8565b81604052838152866020858801011115610825578485fd5b8360208701602083013792830160200193909352509392505050565b600060208284031215610852578081fd5b81356102f681610ace565b60008060008060008060008060006101208a8c03121561087b578485fd5b893561088681610ace565b985060208a013561089681610ace565b975060408a013567ffffffffffffffff808211156108b2578687fd5b6108be8d838e016107ba565b985060608c01359150808211156108d3578687fd5b506108e08c828d016107ba565b96505060808a0135945060a08a0135935060c08a0135925060e08a0135915061090c6101008b016107a6565b90509295985092959850929598565b60006020828403121561092c578081fd5b815180151581146102f6578182fd5b60006020828403121561094c578081fd5b5035919050565b6000815180845261096b816020860160208601610a76565b601f01601f19169290920160200192915050565b60008251610991818460208701610a76565b9190910192915050565b6001600160a01b038b811682528a8116602083015289166040820152610140606082018190526000906109d08382018b610953565b905082810360808401526109e4818a610953565b9150508660a08301528560c08301528460e08301528361010083015260038310610a1e57634e487b7160e01b600052602160045260246000fd5b826101208301529b9a5050505050505050505050565b6020815260006102f66020830184610953565b60008219821115610a5a57610a5a610aa2565b500190565b600082821015610a7157610a71610aa2565b500390565b60005b83811015610a91578181015183820152602001610a79565b838111156102a65750506000910152565b634e487b7160e01b600052601160045260246000fd5b634e487b7160e01b600052604160045260246000fd5b6001600160a01b0381168114610ae357600080fd5b5056fe60806040526017805460ff1916600117905534801561001d57600080fd5b50600080546001600160a01b031916339081178255604051909182917f8be0079c531659141344cd1fd0a4f28419497f9722a3daafe3b4186f6b6457e0908290a35061388d8061006e6000396000f3fe608060405234801561001057600080fd5b50600436106102d65760003560e01c8063897f87e011610182578063b2016bd4116100e9578063e78ccc39116100a2578063f4ada3511161007c578063f4ada351146107be578063f6e0c8f6146107de578063f8a8fd6d14610329578063ff5958fc146107f157600080fd5b8063e78ccc3914610778578063e8a352f814610798578063f2fde38b146107ab57600080fd5b8063b2016bd414610706578063c1097c0d14610719578063c3383b5b1461072c578063d42bc6051461073f578063e5cb8d8614610752578063e6050c381461076557600080fd5b80639701f5e81161013b5780639701f5e81461065f5780639cbe5efd1461067f578063a27382d614610688578063a54e2ff2146106a8578063aafc7a76146106bb578063ae809e8f146106db57600080fd5b8063897f87e0146105445780638c65c81f1461056f5780638da5cb5b146105f357806390a4cb9b14610604578063936f28b91461061757806394e33d7f1461063757600080fd5b80634d56cc6811610241578063728313c9116101fa57806374e9a267116101d457806374e9a267146104d357806376c4b887146104e65780637dc0d1d0146104f957806385d100561461052457600080fd5b8063728313c914610480578063732d216014610493578063736bcfdb146104b357600080fd5b80634d56cc68146103f25780634d61c32f1461040f5780634e71d92d1461042f57806352707d8c146104375780636f4d2b6714610465578063715018a61461047857600080fd5b80633203ba77116102935780633203ba771461038957806335a94b7b146103915780633b18d439146103a65780633c45e736146103b95780633cc1f54c146103cc57806349bf117b146103df57600080fd5b80630d731228146102db5780630ef4b2481461030e57806311da60b414610321578063123656b91461032b5780631c77054714610356578063221937e014610369575b600080fd5b6102fb6102e93660046133b1565b60096020526000908152604090205481565b6040519081526020015b60405180910390f35b6102fb61031c3660046132a9565b6107f9565b6103296108f5565b005b6102fb6103393660046133e1565b600660209081526000928352604080842090915290825290205481565b6102fb6103643660046133b1565b611066565b6102fb6103773660046133b1565b600b6020526000908152604090205481565b6012546102fb565b6103996110d4565b60405161030591906134bf565b6102fb6103b43660046133b1565b611162565b6103296103c73660046133b1565b61120a565b6103296103da3660046133b1565b61141d565b6103296103ed3660046133b1565b61153b565b6017546103ff9060ff1681565b6040519015158152602001610305565b6102fb61041d3660046132a9565b600e6020526000908152604090205481565b61032961192a565b61044a610445366004613472565b61199b565b60408051938452911515602084015290820152606001610305565b6102fb6104733660046133b1565b6119c3565b6103296119f1565b61032961048e3660046133b1565b611a95565b6102fb6104a13660046132a9565b600d6020526000908152604090205481565b6102fb6104c13660046133b1565b600a6020526000908152604090205481565b6102fb6104e1366004613447565b611c68565b6102fb6104f43660046132a9565b611cb6565b60015461050c906001600160a01b031681565b6040516001600160a01b039091168152602001610305565b6102fb6105323660046133b1565b60086020526000908152604090205481565b6102fb6105523660046133e1565b600260209081526000928352604080842090915290825290205481565b6105dc61057d3660046133b1565b601360205260009081526040902080546001820154600283015460038401546004850154600586015460068701546007880154600889015460098a0154600a909a0154989997989697959694959394929360ff9283169391929091168b565b6040516103059b9a99989796959493929190613598565b6000546001600160a01b031661050c565b6102fb6106123660046133b1565b611da8565b6102fb6106253660046133b1565b60036020526000908152604090205481565b61064a6106453660046133b1565b611dc9565b60408051928352602083019190915201610305565b6102fb61066d3660046133b1565b60166020526000908152604090205481565b6102fb60115481565b6102fb6106963660046133b1565b60156020526000908152604090205481565b6102fb6106b63660046133b1565b611e62565b6102fb6106c93660046133b1565b60076020526000908152604090205481565b6102fb6106e93660046133e1565b600460209081526000928352604080842090915290825290205481565b60145461050c906001600160a01b031681565b6102fb610727366004613410565b611ef9565b6102fb61073a3660046133b1565b611fe5565b61032961074d3660046132c5565b612030565b6102fb6107603660046133b1565b612558565b6103296107733660046133b1565b612586565b6102fb6107863660046133b1565b600c6020526000908152604090205481565b6102fb6107a63660046133b1565b612856565b6103296107b93660046132a9565b612897565b6102fb6107cc3660046133b1565b60056020526000908152604090205481565b6103296107ec3660046133b1565b6129b1565b610399612ab1565b6001600160a01b0381166000908152600d60205260408120548015801590610822575060115481105b156108ef5760016000828152601360205260409020600a015460ff16600281111561085d57634e487b7160e01b600052602160045260246000fd5b141561088d5760008181526004602090815260408083206001600160a01b038716845290915290205491506108ef565b60026000828152601360205260409020600a015460ff1660028111156108c357634e487b7160e01b600052602160045260246000fd5b14156108ef5760008181526006602090815260408083206001600160a01b038716845290915290205491505b50919050565b6011546000908152601360205260409020600501544210156109545760405162461bcd60e51b8152602060048201526013602482015272746f6f206561726c7920746f20736574746c6560681b60448201526064015b60405180910390fd5b6011546000908152601360205260408120600a015460ff16600281111561098b57634e487b7160e01b600052602160045260246000fd5b146109cc5760405162461bcd60e51b81526020600482015260116024820152701c9bdd5b99081a1859081cd95d1d1b1959607a1b604482015260640161094b565b600154604051631fc58c3360e31b81526000916001600160a01b03169063fe2c6198906109fe906010906004016134f2565b602060405180830381600087803b158015610a1857600080fd5b505af1158015610a2c573d6000803e3d6000fd5b505050506040513d601f19601f82011682018060405250810190610a5091906133c9565b601180546000908152601360205260408082206003018490559154815290812060060154919250610a93610a8c670de0b6b3a764000084612abe565b8490612aca565b90506000610ab3610aac670de0b6b3a764000085612aec565b8590612aca565b9050604051806101600160405280601360006012600081548110610ae757634e487b7160e01b600052603260045260246000fd5b90600052602060002001548152602001908152602001600020600001548152602001601360006012600081548110610b2f57634e487b7160e01b600052603260045260246000fd5b6000918252602080832090910154835282810193909352604091820181206001015484528383018990528382018190524260608501526011548152601390925290206004810154600590910154608090920191610b9791610b909190612abe565b4290612aec565b81526020808201869052601154600090815260139091526040908190206007015491019060ff166002811115610bdd57634e487b7160e01b600052602160045260246000fd5b81526020810184905260408101839052606001600081525060136000428152602001908152602001600020600082015181600001556020820151816001015560408201518160020155606082015181600301556080820151816004015560a0820151816005015560c0820151816006015560e08201518160070160006101000a81548160ff02191690836002811115610c8657634e487b7160e01b600052602160045260246000fd5b021790555061010082015160088201556101208201516009820155610140820151600a8201805460ff19166001836002811115610cd357634e487b7160e01b600052602160045260246000fd5b02179055506000915081905060115460009081526013602052604090206007015460ff166002811115610d1657634e487b7160e01b600052602160045260246000fd5b1415610da95760115460009081526013602052604090206008015485111580610d5357506011546000908152601360205260409020600901548510155b15610d83576011546000908152601360205260409020600a0180546001919060ff191682805b0217905550610e88565b6011546000908152601360205260409020600a0180546002919060ff1916600183610d79565b600160115460009081526013602052604090206007015460ff166002811115610de257634e487b7160e01b600052602160045260246000fd5b1415610e28576011546000908152601360205260409020600901548510610d83576011546000908152601360205260409020600a0180546001919060ff19168280610d79565b6011546000908152601360205260409020600801548511610e68576011546000908152601360205260409020600a0180546001919060ff19168280610d79565b6011546000908152601360205260409020600a01805460ff191660021790555b60016011546000908152601360205260409020600a015460ff166002811115610ec157634e487b7160e01b600052602160045260246000fd5b1415610f3c5750601180546000908152600460208181526040808420308086529083528185205442808752858552838720838852855283872091909155865486528484528286208287528452828620549086526006845282862082875284528286205594548452918152818320938352929092522054610fad565b506011805460009081526006602081815260408084203080865290835281852054428087526004855283872083885285528387209190915586548652848452828620828752845282862054908652848452828620828752845282862055945484529181528183209383529290925220545b601180546000908152600b60208181526040808420544280865282862091825595548552600c83528185205495855293209390935590915254610ff09082612aca565b42600090815260086020908152604080832093909355600c905220546110169082612aca565b4260008181526009602052604081209290925560118190556012805460018101825592527fbb8a6a4669ba250d26cd7a459eca9d215f8307e33aebe50379bc5a3617ec3444909101555050505050565b6000806110746011546119c3565b90506000611083601154612558565b905060008183116110945781611096565b825b601154600090815260036020526040812054919250906110ca906110c4886110be8387612abe565b90612aca565b90612af8565b9695505050505050565b601080546110e19061377e565b80601f016020809104026020016040519081016040528092919081815260200182805461110d9061377e565b801561115a5780601f1061112f5761010080835404028352916020019161115a565b820191906000526020600020905b81548152906001019060200180831161113d57829003601f168201915b505050505081565b601154600090815260066020908152604080832030845290915281205461119790606490611191906063612b10565b90612b1c565b601154600090815260096020526040902054106111d2576011546000908152601660205260409020546111cc90839080611c68565b92915050565b601154600081815260066020908152604080832030845282528083205493835260099091529020546111cc918491611c68565b919050565b601154336000908152600d6020526040902054101561122b5761122b61192a565b601154336000818152600d602052604090209190915560145461125b916001600160a01b03909116903084612b28565b60115460008181526008602090815260408083205460048352818420308552835281842054948452601590925282205491928392839261129c92879261199b565b6011805460009081526015602090815260408083208590559254825260089052205492955090935091506112d09085612aec565b60118054600090815260086020908152604080832094909455915481526004825282812030825290915220546113069084612abe565b60118054600090815260046020818152604080842030855282528084209590955592548252825282812033825290915220546113429084612aec565b601154600090815260046020908152604080832033845290915290205581156113a457601154600090815260066020908152604080832030845290915290205461138d906064612b1c565b60115460009081526009602052604090205561140f565b6011546000818152600460209081526040808320308085528184528285205486865260068552838620828752855283862054968652600885529285205494529091526113fc9290916110c491906110be908490612abe565b6011546000908152600960205260409020555b611417612b93565b50505050565b6011546000908152600660209081526040808320338452909152902054818110156114a75760405162461bcd60e51b815260206004820152603460248201527f73656c6c536869656c643a3a6d73672e73656e64657220686173206e6f7420656044820152731b9bdd59da081cda1a595b19081d1bc81cd95b1b60621b606482015260840161094b565b60006114b283611162565b90506114be8284612abe565b60118054600090815260066020818152604080842033855282528084209590955592548252825282812030825290915220546114fa9084612aec565b601154600090815260066020908152604080832030845290915290205561151f612b93565b601454611536906001600160a01b03163383612cc7565b505050565b336000908152600e60205260409020546115525750565b601154336000908152600e6020526040812054909114156115905750601154600090815260026020908152604080832033845290915290205461159c565b61159933611cb6565b90505b818110156115e45760405162461bcd60e51b81526020600482015260156024820152743737ba1032b737bab3b4103638103a3790313ab93760591b604482015260640161094b565b60006115f16011546119c3565b90506000611600601154612558565b905060008183116116115781611613565b825b6011546000908152600360205260408120549192509061163b906110c4886110be8387612abe565b6011546000908152600360209081526040808320546008909252822054929350909161166d91906110c4908590612aca565b6011546000908152600360209081526040808320546009909252822054929350909161169f91906110c4908690612aca565b601154600090815260036020908152604080832054600890925282205492935090916116d091906110c49087612aca565b6011546000908152600360209081526040808320546009909252822054929350909161170191906110c49088612aca565b601154600090815260036020908152604080832054600a909252822054929350909161173291906110c49089612aca565b601154600090815260046020908152604080832030845290915290205490915061175c9086612abe565b601180546000908152600460209081526040808320308085529083528184209590955592548252600681528282209382529290925290205461179e9085612abe565b60118054600090815260066020908152604080832030845282528083209490945591548152600890915220546117d49084612abe565b6011805460009081526008602090815260408083209490945591548152600990915220546118029083612abe565b6011805460009081526009602090815260408083209490945591548152600a90915220546118309082612abe565b601180546000908152600a6020908152604080832094909455915481526005909152205461185e9086612abe565b60118054600090815260056020908152604080832094909455915481526007909152205461188c9085612abe565b601180546000908152600760209081526040808320949094559154338252600e83528382208190558152600390915220546118c7908c612abe565b6011546000908152600360205260409020556118e38a8c612abe565b60115460009081526002602090815260408083203380855292529091209190915560145461191d916001600160a01b039091169088612cc7565b5050505050505050505050565b6000611935336107f9565b9050801561199857336000818152600d60208181526040808420805485526004835281852086865283528185208590558054855260068352818520868652835290842084905591905255601454611998916001600160a01b039091169083612cc7565b50565b6000806000806000806119b08a8a8a8a612cf7565b919c909b50909950975050505050505050565b600081815260046020908152604080832030845282528083205484845260059092528220546111cc91612abe565b6000546001600160a01b03163314611a4b5760405162461bcd60e51b815260206004820181905260248201527f4f776e61626c653a2063616c6c6572206973206e6f7420746865206f776e6572604482015260640161094b565b600080546040516001600160a01b03909116907f8be0079c531659141344cd1fd0a4f28419497f9722a3daafe3b4186f6b6457e0908390a3600080546001600160a01b0319169055565b601454611aad906001600160a01b0316333084612b28565b601154600081815260096020908152604080832054600683528184203085528352818420549484526016909252822054919283928392611aee92879261199b565b601180546000908152601660209081526040808320859055925482526009905220549295509093509150611b229085612aec565b6011805460009081526009602090815260408083209490945591548152600682528281203082529091522054611b589084612abe565b6011805460009081526006602081815260408084203085528252808420959095559254825282528281203382529091522054611b949084612aec565b60115460009081526006602090815260408083203384529091529020558115611bf6576011546000908152600460209081526040808320308452909152902054611bdf906064612b1c565b60115460009081526008602052604090205561140f565b601154600081815260066020908152604080832030808552818452828520548686526004855283862082875285528386205496865260098552928520549452909152611c4e9290916110c491906110be908490612abe565b601154600090815260086020526040902055611417612b93565b600080611c77856103e8612b10565b90506000611c858285612b10565b90506000611c9f83611c99886103e8612b10565b90612aec565b9050611cab818361361d565b979650505050505050565b6001600160a01b0381166000908152600e60205260408120548015801590611ce057506011548111155b156108ef5760008181526002602090815260408083206001600160a01b038716845290915281205492505b601254611d1a9060019061373b565b811015611da1578160128281548110611d4357634e487b7160e01b600052603260045260246000fd5b906000526020600020015410611d8f576000611d8b60128381548110611d7957634e487b7160e01b600052603260045260246000fd5b90600052602060002001548686611ef9565b9350505b80611d99816137b3565b915050611d0b565b5050919050565b60128181548110611db857600080fd5b600091825260209091200154905081565b601154600090815260096020908152604080832054600890925282205482918291611df391612aec565b601154600090815260046020908152604080832030845290915281205491925090611e249083906110c49088612aca565b601154600090815260066020908152604080832030845290915281205491925090611e559084906110c49089612aca565b9196919550909350505050565b6011546000908152600460209081526040808320308452909152812054611e9190606490611191906063612b10565b60115460009081526008602052604090205410611ec6576011546000908152601560205260409020546111cc90839080611c68565b601154600081815260046020908152604080832030845282528083205493835260089091529020546111cc918491611c68565b6000601154841415611f2e575060008381526002602090815260408083206001600160a01b0386168452909152902054611fde565b60016000858152601360205260409020600a015460ff166002811115611f6457634e487b7160e01b600052602160045260246000fd5b1415611fa6576000848152600460209081526040808320308452825280832054878452600390925290912054611f9e906110c48584612aca565b915050611fde565b6000848152600660209081526040808320308452825280832054878452600390925290912054611fda906110c48584612aca565b9150505b9392505050565b60115460008181526009602090815260408083205460068352818420308552835281842054948452601690925282205491928392612026928692909161199b565b5090949350505050565b60175460ff166120735760405162461bcd60e51b815260206004820152600e60248201526d1b9bdd08199a5c9cdd081a5b9a5d60921b604482015260640161094b565b6017805460ff19169055601480546001600160a01b03808c166001600160a01b03199283161790925560018054928b169290911691909117905586516120c090600f9060208a019061316f565b5085516120d490601090602089019061316f565b506120df8484612aec565b670de0b6b3a7640000146121415760405162461bcd60e51b8152602060048201526024808201527f426174746c653a3a696e69743a7370656172202b20736869656c642073686f756044820152636c64203160e01b606482015260840161094b565b600061215062015180426137ce565b61215a904261373b565b9050600061216b8262015180613605565b6011839055601280546001818101835560009283527fbb8a6a4669ba250d26cd7a459eca9d215f8307e33aebe50379bc5a3617ec344490910185905554604051631fc58c3360e31b815292935090916001600160a01b039091169063fe2c6198906121db906010906004016134f2565b602060405180830381600087803b1580156121f557600080fd5b505af1158015612209573d6000803e3d6000fd5b505050506040513d601f19601f8201168201806040525081019061222d91906133c9565b90506040518061016001604052808881526020018781526020018281526020016000815260200184815260200183815260200186815260200185600281111561228657634e487b7160e01b600052602160045260246000fd5b81526020016122a0610a8c670de0b6b3a764000089612abe565b81526020016122ba610a8c670de0b6b3a764000089612aec565b8152602001600081525060136000858152602001908152602001600020600082015181600001556020820151816001015560408201518160020155606082015181600301556080820151816004015560a0820151816005015560c0820151816006015560e08201518160070160006101000a81548160ff0219169083600281111561235557634e487b7160e01b600052602160045260246000fd5b021790555061010082015160088201556101208201516009820155610140820151600a8201805460ff191660018360028111156123a257634e487b7160e01b600052602160045260246000fd5b02179055505060118054600090815260046020908152604080832030845282528083208d9055925482526005905220546123dd915089612aec565b60118054600090815260056020908152604080832094909455825482526006815283822030835281528382208c905591548152600790915220546124219089612aec565b60115460009081526007602052604090205561243d8789612aca565b6011546000908152600860205260409020556124598689612aca565b6009600060115481526020019081526020016000208190555086600b600060115481526020019081526020016000208190555085600c60006011548152602001908152602001600020819055508760026000601154815260200190815260200160002060008f6001600160a01b03166001600160a01b0316815260200190815260200160002081905550601154600e60008f6001600160a01b03166001600160a01b03168152602001908152602001600020819055506125378860036000601154815260200190815260200160002054612aec90919063ffffffff16565b60115460009081526003602052604090205550505050505050505050505050565b600081815260066020908152604080832030845282528083205484845260079092528220546111cc91612abe565b601154336000908152600e602052604090205410156125a9576125a9600061153b565b60115460009081526009602090815260408083205460089092528220546125cf91612aec565b601154600090815260086020526040812054919250906125f59083906110c49086612aca565b6011546000908152600960205260408120549192509061261b9084906110c49087612aca565b60115460009081526004602090815260408083203084529091528120549192509061264c9085906110c49088612aca565b60115460009081526006602090815260408083203084529091528120549192509061267d9086906110c49089612aca565b60115460009081526008602052604090205490915061269c9085612aec565b6011805460009081526008602090815260408083209490945591548152600990915220546126ca9084612aec565b60118054600090815260096020908152604080832094909455915481526004825282812030825290915220546127009083612aec565b60118054600090815260046020908152604080832030808552908352818420959095559254825260068152828220938252929092529020546127429082612aec565b60118054600090815260066020908152604080832030845282528083209490945591548152600590915220546127789083612aec565b6011805460009081526005602090815260408083209490945591548152600790915220546127a69082612aec565b6011546000908152600760205260409020556014546127d0906001600160a01b0316333089612b28565b601154336000908152600e602090815260408083208490559282526003905220546127fb9087612aec565b60118054600090815260036020908152604080832094909455915481526002825282812033825290915220546128319087612aec565b6011546000908152600260209081526040808320338452909152902055505050505050565b60115460008181526008602090815260408083205460048352818420308552835281842054948452601590925282205491928392612026928692909161199b565b6000546001600160a01b031633146128f15760405162461bcd60e51b815260206004820181905260248201527f4f776e61626c653a2063616c6c6572206973206e6f7420746865206f776e6572604482015260640161094b565b6001600160a01b0381166129565760405162461bcd60e51b815260206004820152602660248201527f4f776e61626c653a206e6577206f776e657220697320746865207a65726f206160448201526564647265737360d01b606482015260840161094b565b600080546040516001600160a01b03808516939216917f8be0079c531659141344cd1fd0a4f28419497f9722a3daafe3b4186f6b6457e091a3600080546001600160a01b0319166001600160a01b0392909216919091179055565b601154600090815260046020908152604080832033845290915290205481811015612a395760405162461bcd60e51b815260206004820152603260248201527f73656c6c53706561723a3a6d73672e73656e64657220686173206e6f7420656e6044820152711bdd59da081cdc19585c881d1bc81cd95b1b60721b606482015260840161094b565b6000612a4483611e62565b9050612a508284612abe565b6011805460009081526004602081815260408084203385528252808420959095559254825282528281203082529091522054612a8c9084612aec565b601154600090815260046020908152604080832030845290915290205561151f612b93565b600f80546110e19061377e565b6000611fde828461373b565b6000612ad86012600a613674565b612ae28484612b10565b611fde919061361d565b6000611fde8284613605565b6000611fde82611191612b0d6012600a613674565b86905b6000611fde828461371c565b6000611fde828461361d565b6040516001600160a01b03808516602483015283166044820152606481018290526114179085906323b872dd60e01b906084015b60408051601f198184030181529190526020810180516001600160e01b03166001600160e01b031990931692909217909152612ecc565b601154600081815260046020908152604080832030845282528083205493835260089091528120549091612bc79190612af8565b6011546000818152600660209081526040808320308452825280832054938352600990915281205492935091612bfc91612af8565b9050670dbd2fc137a3000082101580612c1d5750670dbd2fc137a300008110155b15612c9f57670dbd2fc137a300008210612c6857601180546000908152600b60209081526040808320670dbd2fc137a30000905592548252600c905220662386f26fc1000090555050565b601180546000908152600b60209081526040808320662386f26fc10000905592548252600c905220670dbd2fc137a3000090555050565b601180546000908152600b6020908152604080832086905592548252600c9052208190555050565b6040516001600160a01b03831660248201526044810182905261153690849063a9059cbb60e01b90606401612b5c565b6000806000808711612d555760405162461bcd60e51b815260206004820152602160248201527f426174746c653a20494e53554646494349454e545f494e5055545f414d4f554e6044820152601560fa1b606482015260840161094b565b600086118015612d655750600085115b612db15760405162461bcd60e51b815260206004820152601e60248201527f426174746c653a20494e53554646494349454e545f4c49515549444954590000604482015260640161094b565b612dc16064611191876063612b10565b8610612dd557508591506001905082612ec2565b6000612df9612dea6063611191896064612b10565b612df4908961371c565b612f9e565b915081905080612e098989612aec565b1115612e7e576000612e1b8289612abe565b90506000612e2b826103e8612b10565b90506000612e39828a612b10565b90506000612e4d83611c998d6103e8612b10565b9050612e59818361361d565b9750612e6f612e688d86612abe565b8990612aec565b97506001965050505050612ec0565b6000612e8c896103e8612b10565b90506000612e9a8289612b10565b90506000612eae83611c998c6103e8612b10565b9050612eba818361361d565b96505050505b505b9450945094915050565b6000612f21826040518060400160405280602081526020017f5361666545524332303a206c6f772d6c6576656c2063616c6c206661696c6564815250856001600160a01b03166130079092919063ffffffff16565b8051909150156115365780806020019051810190612f3f9190613391565b6115365760405162461bcd60e51b815260206004820152602a60248201527f5361666545524332303a204552433230206f7065726174696f6e20646964206e6044820152691bdd081cdd58d8d9595960b21b606482015260840161094b565b60006003821115612ff95750806000612fb860028361361d565b612fc3906001613605565b90505b818110156108ef57905080600281612fde818661361d565b612fe89190613605565b612ff2919061361d565b9050612fc6565b811561120557506001919050565b6060613016848460008561301e565b949350505050565b60608247101561307f5760405162461bcd60e51b815260206004820152602660248201527f416464726573733a20696e73756666696369656e742062616c616e636520666f6044820152651c8818d85b1b60d21b606482015260840161094b565b843b6130cd5760405162461bcd60e51b815260206004820152601d60248201527f416464726573733a2063616c6c20746f206e6f6e2d636f6e7472616374000000604482015260640161094b565b600080866001600160a01b031685876040516130e991906134a3565b60006040518083038185875af1925050503d8060008114613126576040519150601f19603f3d011682016040523d82523d6000602084013e61312b565b606091505b5091509150611cab82828660608315613145575081611fde565b8251156131555782518084602001fd5b8160405162461bcd60e51b815260040161094b91906134bf565b82805461317b9061377e565b90600052602060002090601f01602090048101928261319d57600085556131e3565b82601f106131b657805160ff19168380011785556131e3565b828001600101855582156131e3579182015b828111156131e35782518255916020019190600101906131c8565b506131ef9291506131f3565b5090565b5b808211156131ef57600081556001016131f4565b803561120581613842565b80356003811061120557600080fd5b600082601f830112613232578081fd5b813567ffffffffffffffff8082111561324d5761324d61380e565b604051601f8301601f19908116603f011681019082821181831017156132755761327561380e565b8160405283815286602085880101111561328d578485fd5b8360208701602083013792830160200193909352509392505050565b6000602082840312156132ba578081fd5b8135611fde81613842565b6000806000806000806000806000806101408b8d0312156132e4578586fd5b6132ed8b613208565b99506132fb60208c01613208565b985061330960408c01613208565b975060608b013567ffffffffffffffff80821115613325578788fd5b6133318e838f01613222565b985060808d0135915080821115613346578788fd5b506133538d828e01613222565b96505060a08b0135945060c08b0135935060e08b013592506101008b013591506133806101208c01613213565b90509295989b9194979a5092959850565b6000602082840312156133a2578081fd5b81518015158114611fde578182fd5b6000602082840312156133c2578081fd5b5035919050565b6000602082840312156133da578081fd5b5051919050565b600080604083850312156133f3578182fd5b82359150602083013561340581613842565b809150509250929050565b600080600060608486031215613424578283fd5b83359250602084013561343681613842565b929592945050506040919091013590565b60008060006060848603121561345b578283fd5b505081359360208301359350604090920135919050565b60008060008060808587031215613487578384fd5b5050823594602084013594506040840135936060013592509050565b600082516134b5818460208701613752565b9190910192915050565b60208152600082518060208401526134de816040850160208701613752565b601f01601f19169190910160400192915050565b6000602080835281845483600182811c91508083168061351357607f831692505b85831081141561353157634e487b7160e01b87526022600452602487fd5b87860183815260200181801561354e576001811461355f57613589565b60ff19861682528782019650613589565b60008b815260209020895b868110156135835781548482015290850190890161356a565b83019750505b50949998505050505050505050565b6000610160820190508c82528b60208301528a60408301528960608301528860808301528760a08301528660c08301526135d186613824565b8560e083015284610100830152836101208301526135ee83613824565b826101408301529c9b505050505050505050505050565b60008219821115613618576136186137e2565b500190565b60008261362c5761362c6137f8565b500490565b600181815b8085111561366c578160001904821115613652576136526137e2565b8085161561365f57918102915b93841c9390800290613636565b509250929050565b6000611fde838360008261368a575060016111cc565b81613697575060006111cc565b81600181146136ad57600281146136b7576136d3565b60019150506111cc565b60ff8411156136c8576136c86137e2565b50506001821b6111cc565b5060208310610133831016604e8410600b84101617156136f6575081810a6111cc565b6137008383613631565b8060001904821115613714576137146137e2565b029392505050565b6000816000190483118215151615613736576137366137e2565b500290565b60008282101561374d5761374d6137e2565b500390565b60005b8381101561376d578181015183820152602001613755565b838111156114175750506000910152565b600181811c9082168061379257607f821691505b602082108114156108ef57634e487b7160e01b600052602260045260246000fd5b60006000198214156137c7576137c76137e2565b5060010190565b6000826137dd576137dd6137f8565b500690565b634e487b7160e01b600052601160045260246000fd5b634e487b7160e01b600052601260045260246000fd5b634e487b7160e01b600052604160045260246000fd5b6003811061199857634e487b7160e01b600052602160045260246000fd5b6001600160a01b038116811461199857600080fdfea2646970667358221220403342912665cdaa2996dedf0d52426a89c706655e6b6fad4fb7a91990d9896a64736f6c63430008040033a264697066735822122073e645b8211c8cdcb78c5b3015b1d6239f0b4043c9e22944a94d77c6e2cfd0a164736f6c63430008040033",
  "devdoc": {
    "kind": "dev",
    "methods": {},
    "version": 1
  },
  "userdoc": {
    "kind": "user",
    "methods": {},
    "version": 1
  },
  "storageLayout": {
    "storage": [
      {
        "astId": 3456,
        "contract": "contracts/Arena.sol:Arena",
        "label": "battleSet",
        "offset": 0,
        "slot": "0",
        "type": "t_struct(AddressSet)1666_storage"
      }
    ],
    "types": {
      "t_array(t_bytes32)dyn_storage": {
        "base": "t_bytes32",
        "encoding": "dynamic_array",
        "label": "bytes32[]",
        "numberOfBytes": "32"
      },
      "t_bytes32": {
        "encoding": "inplace",
        "label": "bytes32",
        "numberOfBytes": "32"
      },
      "t_mapping(t_bytes32,t_uint256)": {
        "encoding": "mapping",
        "key": "t_bytes32",
        "label": "mapping(bytes32 => uint256)",
        "numberOfBytes": "32",
        "value": "t_uint256"
      },
      "t_struct(AddressSet)1666_storage": {
        "encoding": "inplace",
        "label": "struct EnumerableSetUpgradeable.AddressSet",
        "members": [
          {
            "astId": 1665,
            "contract": "contracts/Arena.sol:Arena",
            "label": "_inner",
            "offset": 0,
            "slot": "0",
            "type": "t_struct(Set)1389_storage"
          }
        ],
        "numberOfBytes": "64"
      },
      "t_struct(Set)1389_storage": {
        "encoding": "inplace",
        "label": "struct EnumerableSetUpgradeable.Set",
        "members": [
          {
            "astId": 1384,
            "contract": "contracts/Arena.sol:Arena",
            "label": "_values",
            "offset": 0,
            "slot": "0",
            "type": "t_array(t_bytes32)dyn_storage"
          },
          {
            "astId": 1388,
            "contract": "contracts/Arena.sol:Arena",
            "label": "_indexes",
            "offset": 0,
            "slot": "1",
            "type": "t_mapping(t_bytes32,t_uint256)"
          }
        ],
        "numberOfBytes": "64"
      },
      "t_uint256": {
        "encoding": "inplace",
        "label": "uint256",
        "numberOfBytes": "32"
      }
    }
  }
}