{
  "address": "0x49F6Ebbd0fd6E40a2c16935B52aCef0Fe8c6dEB2",
  "abi": [
    {
      "inputs": [
        {
          "internalType": "address",
          "name": "_battle",
          "type": "address"
        }
      ],
      "name": "addBattle",
      "outputs": [],
      "stateMutability": "nonpayable",
      "type": "function"
    },
    {
      "inputs": [],
      "name": "battleLength",
      "outputs": [
        {
          "internalType": "uint256",
          "name": "len",
          "type": "uint256"
        }
      ],
      "stateMutability": "view",
      "type": "function"
    },
    {
      "inputs": [
        {
          "internalType": "address",
          "name": "_battle",
          "type": "address"
        }
      ],
      "name": "containBattle",
      "outputs": [
        {
          "internalType": "bool",
          "name": "",
          "type": "bool"
        }
      ],
      "stateMutability": "view",
      "type": "function"
    },
    {
      "inputs": [
        {
          "internalType": "address",
          "name": "_collateral",
          "type": "address"
        },
        {
          "internalType": "contract IOracle",
          "name": "_oracle",
          "type": "address"
        },
        {
          "internalType": "string",
          "name": "_trackName",
          "type": "string"
        },
        {
          "internalType": "string",
          "name": "_priceName",
          "type": "string"
        },
        {
          "internalType": "uint256",
          "name": "amount",
          "type": "uint256"
        },
        {
          "internalType": "uint256",
          "name": "_spearPrice",
          "type": "uint256"
        },
        {
          "internalType": "uint256",
          "name": "_shieldPrice",
          "type": "uint256"
        },
        {
          "internalType": "uint256",
          "name": "_range",
          "type": "uint256"
        },
        {
          "internalType": "enum RangeType",
          "name": "_ry",
          "type": "uint8"
        },
        {
          "internalType": "uint256",
          "name": "durType",
          "type": "uint256"
        }
      ],
      "name": "createBattle",
      "outputs": [],
      "stateMutability": "nonpayable",
      "type": "function"
    },
    {
      "inputs": [
        {
          "internalType": "uint256",
          "name": "index",
          "type": "uint256"
        }
      ],
      "name": "getBattle",
      "outputs": [
        {
          "internalType": "address",
          "name": "_battle",
          "type": "address"
        }
      ],
      "stateMutability": "view",
      "type": "function"
    },
    {
      "inputs": [
        {
          "internalType": "address",
          "name": "_battle",
          "type": "address"
        }
      ],
      "name": "removeBattle",
      "outputs": [],
      "stateMutability": "nonpayable",
      "type": "function"
    }
  ],
  "transactionHash": "0x0085d3919b2f312892fe1dd77af8923cbe5e6c432c2f7ce08805c480fa0e3f80",
  "args": [],
  "solcInputHash": "81c3f9eeac8d8e8d44aa0041f6e9c44a",
  "bytecode": "0x608060405234801561001057600080fd5b50614612806100206000396000f3fe60806040523480156200001157600080fd5b50600436106200006a5760003560e01c806338243ade146200006f5780636dd0ce7a146200008857806383d342ba14620000bc57806392d559b114620000d3578063a3bfe27414620000fb578063fab29a271462000114575b600080fd5b6200008662000080366004620008f1565b6200012b565b005b6200009f62000099366004620009e5565b6200022d565b6040516001600160a01b0390911681526020015b60405180910390f35b62000086620000cd366004620008d2565b62000241565b620000ea620000e4366004620008d2565b62000252565b6040519015158152602001620000b3565b6200010562000260565b604051908152602001620000b3565b6200008662000125366004620008d2565b62000273565b620001426001600160a01b038b1633308962000280565b60008a8a8a8a604051620001569062000813565b62000165949392919062000a4a565b604051809103906000f08015801562000182573d6000803e3d6000fd5b5090506200019b6001600160a01b038c163089620002f3565b604051631cfd676960e31b81526001600160a01b0382169063e7eb3b4890620001d59033908b908b908b908b908b908b9060040162000a8c565b600060405180830381600087803b158015620001f057600080fd5b505af115801562000205573d6000803e3d6000fd5b505050506200021f8160006200032a90919063ffffffff16565b505050505050505050505050565b60006200023b818362000348565b92915050565b6200024e6000826200032a565b5050565b60006200023b818362000356565b60006200026e600062000379565b905090565b6200024e60008262000384565b6040516001600160a01b0380851660248301528316604482015260648101829052620002ed9085906323b872dd60e01b906084015b60408051601f198184030181529190526020810180516001600160e01b03166001600160e01b0319909316929092179091526200039b565b50505050565b6040516001600160a01b0383166024820152604481018290526200032590849063a9059cbb60e01b90606401620002b5565b505050565b600062000341836001600160a01b03841662000478565b9392505050565b6000620003418383620004ca565b6001600160a01b0381166000908152600183016020526040812054151562000341565b60006200023b825490565b600062000341836001600160a01b03841662000561565b6000620003f2826040518060400160405280602081526020017f5361666545524332303a206c6f772d6c6576656c2063616c6c206661696c6564815250856001600160a01b03166200068a9092919063ffffffff16565b805190915015620003255780806020019051810190620004139190620009c3565b620003255760405162461bcd60e51b815260206004820152602a60248201527f5361666545524332303a204552433230206f7065726174696f6e20646964206e6044820152691bdd081cdd58d8d9595960b21b60648201526084015b60405180910390fd5b6000818152600183016020526040812054620004c1575081546001818101845560008481526020808220909301849055845484825282860190935260409020919091556200023b565b5060006200023b565b815460009082106200052a5760405162461bcd60e51b815260206004820152602260248201527f456e756d657261626c655365743a20696e646578206f7574206f6620626f756e604482015261647360f01b60648201526084016200046f565b8260000182815481106200054e57634e487b7160e01b600052603260045260246000fd5b9060005260206000200154905092915050565b600081815260018301602052604081205480156200067f5760006200058860018362000b1c565b85549091506000906200059e9060019062000b1c565b90506000866000018281548110620005c657634e487b7160e01b600052603260045260246000fd5b9060005260206000200154905080876000018481548110620005f857634e487b7160e01b600052603260045260246000fd5b6000918252602090912001556200061183600162000b01565b600082815260018901602052604090205586548790806200064257634e487b7160e01b600052603160045260246000fd5b600190038181906000526020600020016000905590558660010160008781526020019081526020016000206000905560019450505050506200023b565b60009150506200023b565b60606200069b8484600085620006a3565b949350505050565b606082471015620007065760405162461bcd60e51b815260206004820152602660248201527f416464726573733a20696e73756666696369656e742062616c616e636520666f6044820152651c8818d85b1b60d21b60648201526084016200046f565b843b620007565760405162461bcd60e51b815260206004820152601d60248201527f416464726573733a2063616c6c20746f206e6f6e2d636f6e747261637400000060448201526064016200046f565b600080866001600160a01b0316858760405162000774919062000a2c565b60006040518083038185875af1925050503d8060008114620007b3576040519150601f19603f3d011682016040523d82523d6000602084013e620007b8565b606091505b5091509150620007ca828286620007d5565b979650505050505050565b60608315620007e657508162000341565b825115620007f75782518084602001fd5b8160405162461bcd60e51b81526004016200046f919062000aec565b613a328062000bab83390190565b80356200082e8162000b91565b919050565b8035600381106200082e57600080fd5b600082601f83011262000854578081fd5b813567ffffffffffffffff8082111562000872576200087262000b7b565b604051601f8301601f19908116603f011681019082821181831017156200089d576200089d62000b7b565b81604052838152866020858801011115620008b6578485fd5b8360208701602083013792830160200193909352509392505050565b600060208284031215620008e4578081fd5b8135620003418162000b91565b6000806000806000806000806000806101408b8d03121562000911578586fd5b6200091c8b62000821565b99506200092c60208c0162000821565b985060408b013567ffffffffffffffff8082111562000949578788fd5b620009578e838f0162000843565b995060608d01359150808211156200096d578788fd5b506200097c8d828e0162000843565b97505060808b0135955060a08b0135945060c08b0135935060e08b01359250620009aa6101008c0162000833565b91506101208b013590509295989b9194979a5092959850565b600060208284031215620009d5578081fd5b8151801515811462000341578182fd5b600060208284031215620009f7578081fd5b5035919050565b6000815180845262000a1881602086016020860162000b36565b601f01601f19169290920160200192915050565b6000825162000a4081846020870162000b36565b9190910192915050565b6001600160a01b0385811682528416602082015260806040820181905260009062000a7890830185620009fe565b8281036060840152620007ca8185620009fe565b6001600160a01b03881681526020810187905260408101869052606081018590526080810184905260e081016003841062000ad757634e487b7160e01b600052602160045260246000fd5b60a082019390935260c0015295945050505050565b602081526000620003416020830184620009fe565b6000821982111562000b175762000b1762000b65565b500190565b60008282101562000b315762000b3162000b65565b500390565b60005b8381101562000b5357818101518382015260200162000b39565b83811115620002ed5750506000910152565b634e487b7160e01b600052601160045260246000fd5b634e487b7160e01b600052604160045260246000fd5b6001600160a01b038116811462000ba757600080fd5b5056fe60806040526017805460ff191660011790553480156200001e57600080fd5b5060405162003a3238038062003a32833981016040819052620000419162000241565b600080546001600160a01b031916339081178255604051909182917f8be0079c531659141344cd1fd0a4f28419497f9722a3daafe3b4186f6b6457e0908290a350601480546001600160a01b038087166001600160a01b03199283161790925560018054928616929091169190911790558151620000c790600f906020850190620000e8565b508051620000dd906010906020840190620000e8565b50505050506200033f565b828054620000f690620002d3565b90600052602060002090601f0160209004810192826200011a576000855562000165565b82601f106200013557805160ff191683800117855562000165565b8280016001018555821562000165579182015b828111156200016557825182559160200191906001019062000148565b506200017392915062000177565b5090565b5b8082111562000173576000815560010162000178565b600082601f8301126200019f578081fd5b81516001600160401b0380821115620001bc57620001bc62000310565b604051601f8301601f19908116603f01168101908282118183101715620001e757620001e762000310565b8160405283815260209250868385880101111562000203578485fd5b8491505b8382101562000226578582018301518183018401529082019062000207565b838211156200023757848385830101525b9695505050505050565b6000806000806080858703121562000257578384fd5b8451620002648162000326565b6020860151909450620002778162000326565b60408601519093506001600160401b038082111562000294578384fd5b620002a2888389016200018e565b93506060870151915080821115620002b8578283fd5b50620002c7878288016200018e565b91505092959194509250565b600181811c90821680620002e857607f821691505b602082108114156200030a57634e487b7160e01b600052602260045260246000fd5b50919050565b634e487b7160e01b600052604160045260246000fd5b6001600160a01b03811681146200033c57600080fd5b50565b6136e3806200034f6000396000f3fe608060405234801561001057600080fd5b50600436106102f15760003560e01c806385d100561161019d578063b2016bd4116100e9578063e7eb3b48116100a2578063f4ada3511161007c578063f4ada351146107e2578063f6e0c8f614610802578063f8a8fd6d14610344578063ff5958fc1461081557600080fd5b8063e7eb3b48146107a9578063e8a352f8146107bc578063f2fde38b146107cf57600080fd5b8063b2016bd41461072a578063c1097c0d1461073d578063c3383b5b14610750578063e5cb8d8614610763578063e6050c3814610776578063e78ccc391461078957600080fd5b806394e33d7f11610156578063a27382d611610130578063a27382d6146106ac578063a54e2ff2146106cc578063aafc7a76146106df578063ae809e8f146106ff57600080fd5b806394e33d7f1461065b5780639701f5e8146106835780639cbe5efd146106a357600080fd5b806385d1005614610548578063897f87e0146105685780638c65c81f146105935780638da5cb5b1461061757806390a4cb9b14610628578063936f28b91461063b57600080fd5b806349bf117b1161025c578063715018a611610215578063736bcfdb116101ef578063736bcfdb146104d757806374e9a267146104f757806376c4b8871461050a5780637dc0d1d01461051d57600080fd5b8063715018a61461049c578063728313c9146104a4578063732d2160146104b757600080fd5b806349bf117b146104035780634d56cc68146104165780634d61c32f146104335780634e71d92d1461045357806352707d8c1461045b5780636f4d2b671461048957600080fd5b80633203ba77116102ae5780633203ba77146103a457806335a94b7b146103ac5780633b18d439146103c15780633c45e736146103d45780633cc1f54c146103e7578063475e9888146103fa57600080fd5b80630d731228146102f65780630ef4b2481461032957806311da60b41461033c578063123656b9146103465780631c77054714610371578063221937e014610384575b600080fd5b610316610304366004613239565b60096020526000908152604090205481565b6040519081526020015b60405180910390f35b610316610337366004613196565b61081d565b610344610919565b005b610316610354366004613269565b600660209081526000928352604080842090915290825290205481565b61031661037f366004613239565b611073565b610316610392366004613239565b600b6020526000908152604090205481565b601254610316565b6103b46110e1565b6040516103209190613340565b6103166103cf366004613239565b61116f565b6103446103e2366004613239565b611217565b6103446103f5366004613239565b61142a565b61031660185481565b610344610411366004613239565b611548565b6017546104239060ff1681565b6040519015158152602001610320565b610316610441366004613196565b600e6020526000908152604090205481565b610344611937565b61046e6104693660046132f3565b6119a8565b60408051938452911515602084015290820152606001610320565b610316610497366004613239565b6119d0565b6103446119fe565b6103446104b2366004613239565b611aa2565b6103166104c5366004613196565b600d6020526000908152604090205481565b6103166104e5366004613239565b600a6020526000908152604090205481565b6103166105053660046132c8565b611c75565b610316610518366004613196565b611cc3565b600154610530906001600160a01b031681565b6040516001600160a01b039091168152602001610320565b610316610556366004613239565b60086020526000908152604090205481565b610316610576366004613269565b600260209081526000928352604080842090915290825290205481565b6106006105a1366004613239565b601360205260009081526040902080546001820154600283015460038401546004850154600586015460068701546007880154600889015460098a0154600a909a0154989997989697959694959394929360ff9283169391929091168b565b6040516103209b9a99989796959493929190613419565b6000546001600160a01b0316610530565b610316610636366004613239565b611db5565b610316610649366004613239565b60036020526000908152604090205481565b61066e610669366004613239565b611dd6565b60408051928352602083019190915201610320565b610316610691366004613239565b60166020526000908152604090205481565b61031660115481565b6103166106ba366004613239565b60156020526000908152604090205481565b6103166106da366004613239565b611e6f565b6103166106ed366004613239565b60076020526000908152604090205481565b61031661070d366004613269565b600460209081526000928352604080842090915290825290205481565b601454610530906001600160a01b031681565b61031661074b366004613294565b611f06565b61031661075e366004613239565b611ff2565b610316610771366004613239565b61203d565b610344610784366004613239565b61206b565b610316610797366004613239565b600c6020526000908152604090205481565b6103446107b73660046131b0565b61233b565b6103166107ca366004613239565b6127e9565b6103446107dd366004613196565b61282a565b6103166107f0366004613239565b60056020526000908152604090205481565b610344610810366004613239565b612944565b6103b4612a44565b6001600160a01b0381166000908152600d60205260408120548015801590610846575060115481105b156109135760016000828152601360205260409020600a015460ff16600281111561088157634e487b7160e01b600052602160045260246000fd5b14156108b15760008181526004602090815260408083206001600160a01b03871684529091529020549150610913565b60026000828152601360205260409020600a015460ff1660028111156108e757634e487b7160e01b600052602160045260246000fd5b14156109135760008181526006602090815260408083206001600160a01b038716845290915290205491505b50919050565b6011546000908152601360205260409020600501544210156109785760405162461bcd60e51b8152602060048201526013602482015272746f6f206561726c7920746f20736574746c6560681b60448201526064015b60405180910390fd5b6011546000908152601360205260408120600a015460ff1660028111156109af57634e487b7160e01b600052602160045260246000fd5b146109f05760405162461bcd60e51b81526020600482015260116024820152701c9bdd5b99081a1859081cd95d1d1b1959607a1b604482015260640161096f565b600154604051631fc58c3360e31b81526000916001600160a01b03169063fe2c619890610a2290601090600401613373565b602060405180830381600087803b158015610a3c57600080fd5b505af1158015610a50573d6000803e3d6000fd5b505050506040513d601f19601f82011682018060405250810190610a749190613251565b601180546000908152601360205260408082206003018490559154815290812060060154919250610ab7610ab0670de0b6b3a764000084612a51565b8490612a5d565b90506000610ad7610ad0670de0b6b3a764000085612a7f565b8590612a5d565b9050600080610ae4612a8b565b91509150604051806101600160405280601360006012600081548110610b1a57634e487b7160e01b600052603260045260246000fd5b90600052602060002001548152602001908152602001600020600001548152602001601360006012600081548110610b6257634e487b7160e01b600052603260045260246000fd5b906000526020600020015481526020019081526020016000206001015481526020018781526020016000815260200183815260200182815260200186815260200160136000601154815260200190815260200160002060070160009054906101000a900460ff166002811115610be857634e487b7160e01b600052602160045260246000fd5b81526020810186905260408101859052606001600081525060136000428152602001908152602001600020600082015181600001556020820151816001015560408201518160020155606082015181600301556080820151816004015560a0820151816005015560c0820151816006015560e08201518160070160006101000a81548160ff02191690836002811115610c9157634e487b7160e01b600052602160045260246000fd5b021790555061010082015160088201556101208201516009820155610140820151600a8201805460ff19166001836002811115610cde57634e487b7160e01b600052602160045260246000fd5b02179055506000915081905060115460009081526013602052604090206007015460ff166002811115610d2157634e487b7160e01b600052602160045260246000fd5b1415610db45760115460009081526013602052604090206008015487111580610d5e57506011546000908152601360205260409020600901548710155b15610d8e576011546000908152601360205260409020600a0180546001919060ff191682805b0217905550610e93565b6011546000908152601360205260409020600a0180546002919060ff1916600183610d84565b600160115460009081526013602052604090206007015460ff166002811115610ded57634e487b7160e01b600052602160045260246000fd5b1415610e33576011546000908152601360205260409020600901548710610d8e576011546000908152601360205260409020600a0180546001919060ff19168280610d84565b6011546000908152601360205260409020600801548711610e73576011546000908152601360205260409020600a0180546001919060ff19168280610d84565b6011546000908152601360205260409020600a01805460ff191660021790555b60016011546000908152601360205260409020600a015460ff166002811115610ecc57634e487b7160e01b600052602160045260246000fd5b1415610f475750601180546000908152600460208181526040808420308086529083528185205442808752858552838720838852855283872091909155865486528484528286208287528452828620549086526006845282862082875284528286205594548452918152818320938352929092522054610fb8565b506011805460009081526006602081815260408084203080865290835281852054428087526004855283872083885285528387209190915586548652848452828620828752845282862054908652848452828620828752845282862055945484529181528183209383529290925220545b601180546000908152600b60208181526040808420544280865282862091825595548552600c83528185205495855293209390935590915254610ffb9082612a5d565b42600090815260086020908152604080832093909355600c905220546110219082612a5d565b4260008181526009602052604081209290925560118190556012805460018101825592527fbb8a6a4669ba250d26cd7a459eca9d215f8307e33aebe50379bc5a3617ec34449091015550505050505050565b6000806110816011546119d0565b9050600061109060115461203d565b905060008183116110a157816110a3565b825b601154600090815260036020526040812054919250906110d7906110d1886110cb8387612a51565b90612a5d565b90612b08565b9695505050505050565b601080546110ee906135ff565b80601f016020809104026020016040519081016040528092919081815260200182805461111a906135ff565b80156111675780601f1061113c57610100808354040283529160200191611167565b820191906000526020600020905b81548152906001019060200180831161114a57829003601f168201915b505050505081565b60115460009081526006602090815260408083203084529091528120546111a49060649061119e906063612b20565b90612b2c565b601154600090815260096020526040902054106111df576011546000908152601660205260409020546111d990839080611c75565b92915050565b601154600081815260066020908152604080832030845282528083205493835260099091529020546111d9918491611c75565b919050565b601154336000908152600d6020526040902054101561123857611238611937565b601154336000818152600d6020526040902091909155601454611268916001600160a01b03909116903084612b38565b6011546000818152600860209081526040808320546004835281842030855283528184205494845260159092528220549192839283926112a99287926119a8565b6011805460009081526015602090815260408083208590559254825260089052205492955090935091506112dd9085612a7f565b60118054600090815260086020908152604080832094909455915481526004825282812030825290915220546113139084612a51565b601180546000908152600460208181526040808420308552825280842095909555925482528252828120338252909152205461134f9084612a7f565b601154600090815260046020908152604080832033845290915290205581156113b157601154600090815260066020908152604080832030845290915290205461139a906064612b2c565b60115460009081526009602052604090205561141c565b6011546000818152600460209081526040808320308085528184528285205486865260068552838620828752855283862054968652600885529285205494529091526114099290916110d191906110cb908490612a51565b6011546000908152600960205260409020555b611424612ba3565b50505050565b6011546000908152600660209081526040808320338452909152902054818110156114b45760405162461bcd60e51b815260206004820152603460248201527f73656c6c536869656c643a3a6d73672e73656e64657220686173206e6f7420656044820152731b9bdd59da081cda1a595b19081d1bc81cd95b1b60621b606482015260840161096f565b60006114bf8361116f565b90506114cb8284612a51565b60118054600090815260066020818152604080842033855282528084209590955592548252825282812030825290915220546115079084612a7f565b601154600090815260066020908152604080832030845290915290205561152c612ba3565b601454611543906001600160a01b03163383612cd7565b505050565b336000908152600e602052604090205461155f5750565b601154336000908152600e60205260408120549091141561159d575060115460009081526002602090815260408083203384529091529020546115a9565b6115a633611cc3565b90505b818110156115f15760405162461bcd60e51b81526020600482015260156024820152743737ba1032b737bab3b4103638103a3790313ab93760591b604482015260640161096f565b60006115fe6011546119d0565b9050600061160d60115461203d565b9050600081831161161e5781611620565b825b60115460009081526003602052604081205491925090611648906110d1886110cb8387612a51565b6011546000908152600360209081526040808320546008909252822054929350909161167a91906110d1908590612a5d565b601154600090815260036020908152604080832054600990925282205492935090916116ac91906110d1908690612a5d565b601154600090815260036020908152604080832054600890925282205492935090916116dd91906110d19087612a5d565b6011546000908152600360209081526040808320546009909252822054929350909161170e91906110d19088612a5d565b601154600090815260036020908152604080832054600a909252822054929350909161173f91906110d19089612a5d565b60115460009081526004602090815260408083203084529091529020549091506117699086612a51565b60118054600090815260046020908152604080832030808552908352818420959095559254825260068152828220938252929092529020546117ab9085612a51565b60118054600090815260066020908152604080832030845282528083209490945591548152600890915220546117e19084612a51565b60118054600090815260086020908152604080832094909455915481526009909152205461180f9083612a51565b6011805460009081526009602090815260408083209490945591548152600a909152205461183d9082612a51565b601180546000908152600a6020908152604080832094909455915481526005909152205461186b9086612a51565b6011805460009081526005602090815260408083209490945591548152600790915220546118999085612a51565b601180546000908152600760209081526040808320949094559154338252600e83528382208190558152600390915220546118d4908c612a51565b6011546000908152600360205260409020556118f08a8c612a51565b60115460009081526002602090815260408083203380855292529091209190915560145461192a916001600160a01b039091169088612cd7565b5050505050505050505050565b60006119423361081d565b905080156119a557336000818152600d602081815260408084208054855260048352818520868652835281852085905580548552600683528185208686528352908420849055919052556014546119a5916001600160a01b039091169083612cd7565b50565b6000806000806000806119bd8a8a8a8a612d07565b919c909b50909950975050505050505050565b600081815260046020908152604080832030845282528083205484845260059092528220546111d991612a51565b6000546001600160a01b03163314611a585760405162461bcd60e51b815260206004820181905260248201527f4f776e61626c653a2063616c6c6572206973206e6f7420746865206f776e6572604482015260640161096f565b600080546040516001600160a01b03909116907f8be0079c531659141344cd1fd0a4f28419497f9722a3daafe3b4186f6b6457e0908390a3600080546001600160a01b0319169055565b601454611aba906001600160a01b0316333084612b38565b601154600081815260096020908152604080832054600683528184203085528352818420549484526016909252822054919283928392611afb9287926119a8565b601180546000908152601660209081526040808320859055925482526009905220549295509093509150611b2f9085612a7f565b6011805460009081526009602090815260408083209490945591548152600682528281203082529091522054611b659084612a51565b6011805460009081526006602081815260408084203085528252808420959095559254825282528281203382529091522054611ba19084612a7f565b60115460009081526006602090815260408083203384529091529020558115611c03576011546000908152600460209081526040808320308452909152902054611bec906064612b2c565b60115460009081526008602052604090205561141c565b601154600081815260066020908152604080832030808552818452828520548686526004855283862082875285528386205496865260098552928520549452909152611c5b9290916110d191906110cb908490612a51565b601154600090815260086020526040902055611424612ba3565b600080611c84856103e8612b20565b90506000611c928285612b20565b90506000611cac83611ca6886103e8612b20565b90612a7f565b9050611cb8818361349e565b979650505050505050565b6001600160a01b0381166000908152600e60205260408120548015801590611ced57506011548111155b156109135760008181526002602090815260408083206001600160a01b038716845290915281205492505b601254611d27906001906135bc565b811015611dae578160128281548110611d5057634e487b7160e01b600052603260045260246000fd5b906000526020600020015410611d9c576000611d9860128381548110611d8657634e487b7160e01b600052603260045260246000fd5b90600052602060002001548686611f06565b9350505b80611da681613634565b915050611d18565b5050919050565b60128181548110611dc557600080fd5b600091825260209091200154905081565b601154600090815260096020908152604080832054600890925282205482918291611e0091612a7f565b601154600090815260046020908152604080832030845290915281205491925090611e319083906110d19088612a5d565b601154600090815260066020908152604080832030845290915281205491925090611e629084906110d19089612a5d565b9196919550909350505050565b6011546000908152600460209081526040808320308452909152812054611e9e9060649061119e906063612b20565b60115460009081526008602052604090205410611ed3576011546000908152601560205260409020546111d990839080611c75565b601154600081815260046020908152604080832030845282528083205493835260089091529020546111d9918491611c75565b6000601154841415611f3b575060008381526002602090815260408083206001600160a01b0386168452909152902054611feb565b60016000858152601360205260409020600a015460ff166002811115611f7157634e487b7160e01b600052602160045260246000fd5b1415611fb3576000848152600460209081526040808320308452825280832054878452600390925290912054611fab906110d18584612a5d565b915050611feb565b6000848152600660209081526040808320308452825280832054878452600390925290912054611fe7906110d18584612a5d565b9150505b9392505050565b6011546000818152600960209081526040808320546006835281842030855283528184205494845260169092528220549192839261203392869290916119a8565b5090949350505050565b600081815260066020908152604080832030845282528083205484845260079092528220546111d991612a51565b601154336000908152600e6020526040902054101561208e5761208e6000611548565b60115460009081526009602090815260408083205460089092528220546120b491612a7f565b601154600090815260086020526040812054919250906120da9083906110d19086612a5d565b601154600090815260096020526040812054919250906121009084906110d19087612a5d565b6011546000908152600460209081526040808320308452909152812054919250906121319085906110d19088612a5d565b6011546000908152600660209081526040808320308452909152812054919250906121629086906110d19089612a5d565b6011546000908152600860205260409020549091506121819085612a7f565b6011805460009081526008602090815260408083209490945591548152600990915220546121af9084612a7f565b60118054600090815260096020908152604080832094909455915481526004825282812030825290915220546121e59083612a7f565b60118054600090815260046020908152604080832030808552908352818420959095559254825260068152828220938252929092529020546122279082612a7f565b601180546000908152600660209081526040808320308452825280832094909455915481526005909152205461225d9083612a7f565b60118054600090815260056020908152604080832094909455915481526007909152205461228b9082612a7f565b6011546000908152600760205260409020556014546122b5906001600160a01b0316333089612b38565b601154336000908152600e602090815260408083208490559282526003905220546122e09087612a7f565b60118054600090815260036020908152604080832094909455915481526002825282812033825290915220546123169087612a7f565b6011546000908152600260209081526040808320338452909152902055505050505050565b60175460ff1661237e5760405162461bcd60e51b815260206004820152600e60248201526d1b9bdd08199a5c9cdd081a5b9a5d60921b604482015260640161096f565b80158061238b5750806001145b806123965750806002145b6123e25760405162461bcd60e51b815260206004820152601b60248201527f4e6f7420737570706f727420626174746c65206475726174696f6e0000000000604482015260640161096f565b60188190556017805460ff191690556123fb8585612a7f565b670de0b6b3a76400001461245d5760405162461bcd60e51b8152602060048201526024808201527f426174746c653a3a696e69743a7370656172202b20736869656c642073686f756044820152636c64203160e01b606482015260840161096f565b600080612468612a8b565b6011829055601280546001818101835560009283527fbb8a6a4669ba250d26cd7a459eca9d215f8307e33aebe50379bc5a3617ec344490910184905554604051631fc58c3360e31b8152939550919350916001600160a01b039091169063fe2c6198906124da90601090600401613373565b602060405180830381600087803b1580156124f457600080fd5b505af1158015612508573d6000803e3d6000fd5b505050506040513d601f19601f8201168201806040525081019061252c9190613251565b90506040518061016001604052808981526020018881526020018281526020016000815260200184815260200183815260200187815260200186600281111561258557634e487b7160e01b600052602160045260246000fd5b815260200161259f610ab0670de0b6b3a76400008a612a51565b81526020016125b9610ab0670de0b6b3a76400008a612a7f565b8152602001600081525060136000858152602001908152602001600020600082015181600001556020820151816001015560408201518160020155606082015181600301556080820151816004015560a0820151816005015560c0820151816006015560e08201518160070160006101000a81548160ff0219169083600281111561265457634e487b7160e01b600052602160045260246000fd5b021790555061010082015160088201556101208201516009820155610140820151600a8201805460ff191660018360028111156126a157634e487b7160e01b600052602160045260246000fd5b02179055505060118054600090815260046020908152604080832030845282528083208e9055925482526005905220546126dc91508a612a7f565b60118054600090815260056020908152604080832094909455825482526006815283822030835281528382208d90559154815260079091522054612720908a612a7f565b60115460009081526007602052604090205561273c888a612a5d565b601154600090815260086020526040902055612758878a612a5d565b6011805460009081526009602090815260408083209490945582548252600b81528382208c905582548252600c81528382208b905582548252600281528382206001600160a01b038f16835281528382208d90559154600e83528382208190558152600390915220546127cb908a612a7f565b60115460009081526003602052604090205550505050505050505050565b6011546000818152600860209081526040808320546004835281842030855283528184205494845260159092528220549192839261203392869290916119a8565b6000546001600160a01b031633146128845760405162461bcd60e51b815260206004820181905260248201527f4f776e61626c653a2063616c6c6572206973206e6f7420746865206f776e6572604482015260640161096f565b6001600160a01b0381166128e95760405162461bcd60e51b815260206004820152602660248201527f4f776e61626c653a206e6577206f776e657220697320746865207a65726f206160448201526564647265737360d01b606482015260840161096f565b600080546040516001600160a01b03808516939216917f8be0079c531659141344cd1fd0a4f28419497f9722a3daafe3b4186f6b6457e091a3600080546001600160a01b0319166001600160a01b0392909216919091179055565b6011546000908152600460209081526040808320338452909152902054818110156129cc5760405162461bcd60e51b815260206004820152603260248201527f73656c6c53706561723a3a6d73672e73656e64657220686173206e6f7420656e6044820152711bdd59da081cdc19585c881d1bc81cd95b1b60721b606482015260840161096f565b60006129d783611e6f565b90506129e38284612a51565b6011805460009081526004602081815260408084203385528252808420959095559254825282528281203082529091522054612a1f9084612a7f565b601154600090815260046020908152604080832030845290915290205561152c612ba3565b600f80546110ee906135ff565b6000611feb82846135bc565b6000612a6b6012600a6134f5565b612a758484612b20565b611feb919061349e565b6000611feb8284613486565b60008060185460001415612ac557612aa6620151804261364f565b612ab090426135bc565b9150612abf8262015180613486565b90509091565b60185460011415612b045762093a80612ae1426203f480613486565b612aeb919061364f565b612af590426135bc565b9150612abf8262093a80613486565b9091565b6000611feb8261119e612b1d6012600a6134f5565b86905b6000611feb828461359d565b6000611feb828461349e565b6040516001600160a01b03808516602483015283166044820152606481018290526114249085906323b872dd60e01b906084015b60408051601f198184030181529190526020810180516001600160e01b03166001600160e01b031990931692909217909152612edc565b601154600081815260046020908152604080832030845282528083205493835260089091528120549091612bd79190612b08565b6011546000818152600660209081526040808320308452825280832054938352600990915281205492935091612c0c91612b08565b9050670dbd2fc137a3000082101580612c2d5750670dbd2fc137a300008110155b15612caf57670dbd2fc137a300008210612c7857601180546000908152600b60209081526040808320670dbd2fc137a30000905592548252600c905220662386f26fc1000090555050565b601180546000908152600b60209081526040808320662386f26fc10000905592548252600c905220670dbd2fc137a3000090555050565b601180546000908152600b6020908152604080832086905592548252600c9052208190555050565b6040516001600160a01b03831660248201526044810182905261154390849063a9059cbb60e01b90606401612b6c565b6000806000808711612d655760405162461bcd60e51b815260206004820152602160248201527f426174746c653a20494e53554646494349454e545f494e5055545f414d4f554e6044820152601560fa1b606482015260840161096f565b600086118015612d755750600085115b612dc15760405162461bcd60e51b815260206004820152601e60248201527f426174746c653a20494e53554646494349454e545f4c49515549444954590000604482015260640161096f565b612dd1606461119e876063612b20565b8610612de557508591506001905082612ed2565b6000612e09612dfa606361119e896064612b20565b612e04908961359d565b612fae565b915081905080612e198989612a7f565b1115612e8e576000612e2b8289612a51565b90506000612e3b826103e8612b20565b90506000612e49828a612b20565b90506000612e5d83611ca68d6103e8612b20565b9050612e69818361349e565b9750612e7f612e788d86612a51565b8990612a7f565b97506001965050505050612ed0565b6000612e9c896103e8612b20565b90506000612eaa8289612b20565b90506000612ebe83611ca68c6103e8612b20565b9050612eca818361349e565b96505050505b505b9450945094915050565b6000612f31826040518060400160405280602081526020017f5361666545524332303a206c6f772d6c6576656c2063616c6c206661696c6564815250856001600160a01b03166130179092919063ffffffff16565b8051909150156115435780806020019051810190612f4f9190613219565b6115435760405162461bcd60e51b815260206004820152602a60248201527f5361666545524332303a204552433230206f7065726174696f6e20646964206e6044820152691bdd081cdd58d8d9595960b21b606482015260840161096f565b600060038211156130095750806000612fc860028361349e565b612fd3906001613486565b90505b8181101561091357905080600281612fee818661349e565b612ff89190613486565b613002919061349e565b9050612fd6565b811561121257506001919050565b6060613026848460008561302e565b949350505050565b60608247101561308f5760405162461bcd60e51b815260206004820152602660248201527f416464726573733a20696e73756666696369656e742062616c616e636520666f6044820152651c8818d85b1b60d21b606482015260840161096f565b843b6130dd5760405162461bcd60e51b815260206004820152601d60248201527f416464726573733a2063616c6c20746f206e6f6e2d636f6e7472616374000000604482015260640161096f565b600080866001600160a01b031685876040516130f99190613324565b60006040518083038185875af1925050503d8060008114613136576040519150601f19603f3d011682016040523d82523d6000602084013e61313b565b606091505b5091509150611cb882828660608315613155575081611feb565b8251156131655782518084602001fd5b8160405162461bcd60e51b815260040161096f9190613340565b80356001600160a01b038116811461121257600080fd5b6000602082840312156131a7578081fd5b611feb8261317f565b600080600080600080600060e0888a0312156131ca578283fd5b6131d38861317f565b96506020880135955060408801359450606088013593506080880135925060a088013560038110613202578283fd5b8092505060c0880135905092959891949750929550565b60006020828403121561322a578081fd5b81518015158114611feb578182fd5b60006020828403121561324a578081fd5b5035919050565b600060208284031215613262578081fd5b5051919050565b6000806040838503121561327b578182fd5b8235915061328b6020840161317f565b90509250929050565b6000806000606084860312156132a8578283fd5b833592506132b86020850161317f565b9150604084013590509250925092565b6000806000606084860312156132dc578283fd5b505081359360208301359350604090920135919050565b60008060008060808587031215613308578384fd5b5050823594602084013594506040840135936060013592509050565b600082516133368184602087016135d3565b9190910192915050565b602081526000825180602084015261335f8160408501602087016135d3565b601f01601f19169190910160400192915050565b6000602080835281845483600182811c91508083168061339457607f831692505b8583108114156133b257634e487b7160e01b87526022600452602487fd5b8786018381526020018180156133cf57600181146133e05761340a565b60ff1986168252878201965061340a565b60008b815260209020895b86811015613404578154848201529085019089016133eb565b83019750505b50949998505050505050505050565b6000610160820190508c82528b60208301528a60408301528960608301528860808301528760a08301528660c08301526134528661368f565b8560e0830152846101008301528361012083015261346f8361368f565b826101408301529c9b505050505050505050505050565b6000821982111561349957613499613663565b500190565b6000826134ad576134ad613679565b500490565b600181815b808511156134ed5781600019048211156134d3576134d3613663565b808516156134e057918102915b93841c93908002906134b7565b509250929050565b6000611feb838360008261350b575060016111d9565b81613518575060006111d9565b816001811461352e576002811461353857613554565b60019150506111d9565b60ff84111561354957613549613663565b50506001821b6111d9565b5060208310610133831016604e8410600b8410161715613577575081810a6111d9565b61358183836134b2565b806000190482111561359557613595613663565b029392505050565b60008160001904831182151516156135b7576135b7613663565b500290565b6000828210156135ce576135ce613663565b500390565b60005b838110156135ee5781810151838201526020016135d6565b838111156114245750506000910152565b600181811c9082168061361357607f821691505b6020821081141561091357634e487b7160e01b600052602260045260246000fd5b600060001982141561364857613648613663565b5060010190565b60008261365e5761365e613679565b500690565b634e487b7160e01b600052601160045260246000fd5b634e487b7160e01b600052601260045260246000fd5b600381106119a557634e487b7160e01b600052602160045260246000fdfea2646970667358221220ef295d77ff073c7546f0b977625b25f7a66df7142d567183f0c8839243e3589a64736f6c63430008040033a264697066735822122080cf2c55c150b4c03f60415150c0ef4cc3459ffac12df0f153ac81c5a92b0a6164736f6c63430008040033",
  "devdoc": {
    "kind": "dev",
    "methods": {},
    "version": 1
  },
  "userdoc": {
    "kind": "user",
    "methods": {},
    "version": 1
  },
  "storageLayout": {
    "storage": [
      {
        "astId": 3456,
        "contract": "contracts/Arena.sol:Arena",
        "label": "battleSet",
        "offset": 0,
        "slot": "0",
        "type": "t_struct(AddressSet)1666_storage"
      }
    ],
    "types": {
      "t_array(t_bytes32)dyn_storage": {
        "base": "t_bytes32",
        "encoding": "dynamic_array",
        "label": "bytes32[]",
        "numberOfBytes": "32"
      },
      "t_bytes32": {
        "encoding": "inplace",
        "label": "bytes32",
        "numberOfBytes": "32"
      },
      "t_mapping(t_bytes32,t_uint256)": {
        "encoding": "mapping",
        "key": "t_bytes32",
        "label": "mapping(bytes32 => uint256)",
        "numberOfBytes": "32",
        "value": "t_uint256"
      },
      "t_struct(AddressSet)1666_storage": {
        "encoding": "inplace",
        "label": "struct EnumerableSetUpgradeable.AddressSet",
        "members": [
          {
            "astId": 1665,
            "contract": "contracts/Arena.sol:Arena",
            "label": "_inner",
            "offset": 0,
            "slot": "0",
            "type": "t_struct(Set)1389_storage"
          }
        ],
        "numberOfBytes": "64"
      },
      "t_struct(Set)1389_storage": {
        "encoding": "inplace",
        "label": "struct EnumerableSetUpgradeable.Set",
        "members": [
          {
            "astId": 1384,
            "contract": "contracts/Arena.sol:Arena",
            "label": "_values",
            "offset": 0,
            "slot": "0",
            "type": "t_array(t_bytes32)dyn_storage"
          },
          {
            "astId": 1388,
            "contract": "contracts/Arena.sol:Arena",
            "label": "_indexes",
            "offset": 0,
            "slot": "1",
            "type": "t_mapping(t_bytes32,t_uint256)"
          }
        ],
        "numberOfBytes": "64"
      },
      "t_uint256": {
        "encoding": "inplace",
        "label": "uint256",
        "numberOfBytes": "32"
      }
    }
  }
}