{
  "address": "0x471318f3d0E713D0AEE2173f29168a5b49Cf0B8E",
  "abi": [
    {
      "inputs": [
        {
          "internalType": "address",
          "name": "_battle",
          "type": "address"
        }
      ],
      "name": "addBattle",
      "outputs": [],
      "stateMutability": "nonpayable",
      "type": "function"
    },
    {
      "inputs": [
        {
          "internalType": "address",
          "name": "",
          "type": "address"
        }
      ],
      "name": "approved",
      "outputs": [
        {
          "internalType": "bool",
          "name": "",
          "type": "bool"
        }
      ],
      "stateMutability": "view",
      "type": "function"
    },
    {
      "inputs": [],
      "name": "battleLength",
      "outputs": [
        {
          "internalType": "uint256",
          "name": "len",
          "type": "uint256"
        }
      ],
      "stateMutability": "view",
      "type": "function"
    },
    {
      "inputs": [
        {
          "internalType": "address",
          "name": "_battle",
          "type": "address"
        }
      ],
      "name": "containBattle",
      "outputs": [
        {
          "internalType": "bool",
          "name": "",
          "type": "bool"
        }
      ],
      "stateMutability": "view",
      "type": "function"
    },
    {
      "inputs": [
        {
          "internalType": "uint256",
          "name": "index",
          "type": "uint256"
        }
      ],
      "name": "getBattle",
      "outputs": [
        {
          "internalType": "address",
          "name": "_battle",
          "type": "address"
        }
      ],
      "stateMutability": "view",
      "type": "function"
    },
    {
      "inputs": [
        {
          "internalType": "address",
          "name": "_battle",
          "type": "address"
        }
      ],
      "name": "removeBattle",
      "outputs": [],
      "stateMutability": "nonpayable",
      "type": "function"
    }
  ],
  "transactionHash": "0xe59d1538eda1c3e96f5c03efb8f86c7248c94d02720757ee329b8d3e316ee8e5",
  "args": [],
  "solcInputHash": "33e692906ffbf4642436f977ab99a8cb",
  "bytecode": "0x608060405234801561001057600080fd5b5061048b806100206000396000f3fe608060405234801561001057600080fd5b50600436106100625760003560e01c80636dd0ce7a1461006757806383d342ba1461009757806392d559b1146100ac578063a3bfe274146100cf578063d8b964e6146100e5578063fab29a2714610108575b600080fd5b61007a6100753660046103f8565b61011b565b6040516001600160a01b0390911681526020015b60405180910390f35b6100aa6100a53660046103d1565b61012d565b005b6100bf6100ba3660046103d1565b61013c565b604051901515815260200161008e565b6100d7610148565b60405190815260200161008e565b6100bf6100f33660046103d1565b60026020526000908152604090205460ff1681565b6100aa6101163660046103d1565b610159565b60006101278183610164565b92915050565b610138600082610177565b5050565b6000610127818361018c565b600061015460006101ae565b905090565b6101386000826101b8565b600061017083836101cd565b9392505050565b6000610170836001600160a01b038416610265565b6001600160a01b03811660009081526001830160205260408120541515610170565b6000610127825490565b6000610170836001600160a01b0384166102b4565b8154600090821061022f5760405162461bcd60e51b815260206004820152602260248201527f456e756d657261626c655365743a20696e646578206f7574206f6620626f756e604482015261647360f01b606482015260840160405180910390fd5b82600001828154811061025257634e487b7160e01b600052603260045260246000fd5b9060005260206000200154905092915050565b60008181526001830160205260408120546102ac57508154600181810184556000848152602080822090930184905584548482528286019093526040902091909155610127565b506000610127565b600081815260018301602052604081205480156103c75760006102d8600183610428565b85549091506000906102ec90600190610428565b9050600086600001828154811061031357634e487b7160e01b600052603260045260246000fd5b906000526020600020015490508087600001848154811061034457634e487b7160e01b600052603260045260246000fd5b60009182526020909120015561035b836001610410565b6000828152600189016020526040902055865487908061038b57634e487b7160e01b600052603160045260246000fd5b60019003818190600052602060002001600090559055866001016000878152602001908152602001600020600090556001945050505050610127565b6000915050610127565b6000602082840312156103e2578081fd5b81356001600160a01b0381168114610170578182fd5b600060208284031215610409578081fd5b5035919050565b600082198211156104235761042361043f565b500190565b60008282101561043a5761043a61043f565b500390565b634e487b7160e01b600052601160045260246000fdfea26469706673582212202f557ec477b285de7829fca9a3ffc2f3bab9f5ee5ace3b722c9be9eb4ac2522f64736f6c63430008040033",
  "devdoc": {
    "kind": "dev",
    "methods": {},
    "version": 1
  },
  "userdoc": {
    "kind": "user",
    "methods": {},
    "version": 1
  },
  "storageLayout": {
    "storage": [
      {
        "astId": 3456,
        "contract": "contracts/Arena.sol:Arena",
        "label": "battleSet",
        "offset": 0,
        "slot": "0",
        "type": "t_struct(AddressSet)1666_storage"
      },
      {
        "astId": 3460,
        "contract": "contracts/Arena.sol:Arena",
        "label": "approved",
        "offset": 0,
        "slot": "2",
        "type": "t_mapping(t_address,t_bool)"
      }
    ],
    "types": {
      "t_address": {
        "encoding": "inplace",
        "label": "address",
        "numberOfBytes": "20"
      },
      "t_array(t_bytes32)dyn_storage": {
        "base": "t_bytes32",
        "encoding": "dynamic_array",
        "label": "bytes32[]",
        "numberOfBytes": "32"
      },
      "t_bool": {
        "encoding": "inplace",
        "label": "bool",
        "numberOfBytes": "1"
      },
      "t_bytes32": {
        "encoding": "inplace",
        "label": "bytes32",
        "numberOfBytes": "32"
      },
      "t_mapping(t_address,t_bool)": {
        "encoding": "mapping",
        "key": "t_address",
        "label": "mapping(address => bool)",
        "numberOfBytes": "32",
        "value": "t_bool"
      },
      "t_mapping(t_bytes32,t_uint256)": {
        "encoding": "mapping",
        "key": "t_bytes32",
        "label": "mapping(bytes32 => uint256)",
        "numberOfBytes": "32",
        "value": "t_uint256"
      },
      "t_struct(AddressSet)1666_storage": {
        "encoding": "inplace",
        "label": "struct EnumerableSetUpgradeable.AddressSet",
        "members": [
          {
            "astId": 1665,
            "contract": "contracts/Arena.sol:Arena",
            "label": "_inner",
            "offset": 0,
            "slot": "0",
            "type": "t_struct(Set)1389_storage"
          }
        ],
        "numberOfBytes": "64"
      },
      "t_struct(Set)1389_storage": {
        "encoding": "inplace",
        "label": "struct EnumerableSetUpgradeable.Set",
        "members": [
          {
            "astId": 1384,
            "contract": "contracts/Arena.sol:Arena",
            "label": "_values",
            "offset": 0,
            "slot": "0",
            "type": "t_array(t_bytes32)dyn_storage"
          },
          {
            "astId": 1388,
            "contract": "contracts/Arena.sol:Arena",
            "label": "_indexes",
            "offset": 0,
            "slot": "1",
            "type": "t_mapping(t_bytes32,t_uint256)"
          }
        ],
        "numberOfBytes": "64"
      },
      "t_uint256": {
        "encoding": "inplace",
        "label": "uint256",
        "numberOfBytes": "32"
      }
    }
  }
}