{
  "address": "0x4768e53c53377F84d092aCd3127Ea3D227914d99",
  "abi": [
    {
      "inputs": [
        {
          "internalType": "address",
          "name": "_battle",
          "type": "address"
        }
      ],
      "name": "addBattle",
      "outputs": [],
      "stateMutability": "nonpayable",
      "type": "function"
    },
    {
      "inputs": [],
      "name": "battleLength",
      "outputs": [
        {
          "internalType": "uint256",
          "name": "len",
          "type": "uint256"
        }
      ],
      "stateMutability": "view",
      "type": "function"
    },
    {
      "inputs": [
        {
          "internalType": "address",
          "name": "_battle",
          "type": "address"
        }
      ],
      "name": "containBattle",
      "outputs": [
        {
          "internalType": "bool",
          "name": "",
          "type": "bool"
        }
      ],
      "stateMutability": "view",
      "type": "function"
    },
    {
      "inputs": [
        {
          "internalType": "address",
          "name": "_collateral",
          "type": "address"
        },
        {
          "internalType": "contract IOracle",
          "name": "_oracle",
          "type": "address"
        },
        {
          "internalType": "string",
          "name": "_trackName",
          "type": "string"
        },
        {
          "internalType": "string",
          "name": "_priceName",
          "type": "string"
        },
        {
          "internalType": "uint256",
          "name": "amount",
          "type": "uint256"
        },
        {
          "internalType": "uint256",
          "name": "_spearPrice",
          "type": "uint256"
        },
        {
          "internalType": "uint256",
          "name": "_shieldPrice",
          "type": "uint256"
        },
        {
          "internalType": "uint256",
          "name": "_range",
          "type": "uint256"
        },
        {
          "internalType": "enum RangeType",
          "name": "_ry",
          "type": "uint8"
        },
        {
          "internalType": "uint256",
          "name": "durType",
          "type": "uint256"
        }
      ],
      "name": "createBattle",
      "outputs": [],
      "stateMutability": "nonpayable",
      "type": "function"
    },
    {
      "inputs": [
        {
          "internalType": "uint256",
          "name": "index",
          "type": "uint256"
        }
      ],
      "name": "getBattle",
      "outputs": [
        {
          "internalType": "address",
          "name": "_battle",
          "type": "address"
        }
      ],
      "stateMutability": "view",
      "type": "function"
    },
    {
      "inputs": [
        {
          "internalType": "uint256",
          "name": "battleDur",
          "type": "uint256"
        }
      ],
      "name": "getDurationTs",
      "outputs": [
        {
          "internalType": "uint256",
          "name": "start",
          "type": "uint256"
        },
        {
          "internalType": "uint256",
          "name": "end",
          "type": "uint256"
        }
      ],
      "stateMutability": "view",
      "type": "function"
    },
    {
      "inputs": [
        {
          "internalType": "address",
          "name": "_battle",
          "type": "address"
        }
      ],
      "name": "removeBattle",
      "outputs": [],
      "stateMutability": "nonpayable",
      "type": "function"
    }
  ],
  "transactionHash": "0xcb532f986751604b0ab6c4deef2068c6bbbd0b5607d3ed54aee8c924baa416e2",
  "args": [],
  "solcInputHash": "03aa00df5a92d1f58af372b6b585d82c",
  "bytecode": "0x608060405234801561001057600080fd5b50614fe5806100206000396000f3fe60806040523480156200001157600080fd5b5060043610620000875760003560e01c806392d559b1116200006257806392d559b114620000f0578063a3bfe2741462000118578063e6aa9fab1462000131578063fab29a27146200015e57600080fd5b806338243ade146200008c5780636dd0ce7a14620000a557806383d342ba14620000d9575b600080fd5b620000a36200009d366004620009c2565b62000175565b005b620000bc620000b636600462000ab6565b62000277565b6040516001600160a01b0390911681526020015b60405180910390f35b620000a3620000ea366004620009a3565b6200028b565b6200010762000101366004620009a3565b6200029c565b6040519015158152602001620000d0565b62000122620002aa565b604051908152602001620000d0565b620001486200014236600462000ab6565b620002bd565b60408051928352602083019190915201620000d0565b620000a36200016f366004620009a3565b62000344565b6200018c6001600160a01b038b1633308962000351565b60008a8a8a8a604051620001a090620008e4565b620001af949392919062000b1b565b604051809103906000f080158015620001cc573d6000803e3d6000fd5b509050620001e56001600160a01b038c163089620003c4565b604051631cfd676960e31b81526001600160a01b0382169063e7eb3b48906200021f9033908b908b908b908b908b908b9060040162000b5d565b600060405180830381600087803b1580156200023a57600080fd5b505af11580156200024f573d6000803e3d6000fd5b5050505062000269816000620003fb90919063ffffffff16565b505050505050505050505050565b600062000285818362000419565b92915050565b62000298600082620003fb565b5050565b600062000285818362000427565b6000620002b860006200044a565b905090565b60008082620002f957620002d5620151804262000c36565b620002e1904262000bed565b9150620002f2826201518062000bd2565b9050915091565b82600114156200033f5762093a8062000316426203f48062000bd2565b62000322919062000c36565b6200032e904262000bed565b9150620002f28262093a8062000bd2565b915091565b6200029860008262000455565b6040516001600160a01b0380851660248301528316604482015260648101829052620003be9085906323b872dd60e01b906084015b60408051601f198184030181529190526020810180516001600160e01b03166001600160e01b0319909316929092179091526200046c565b50505050565b6040516001600160a01b038316602482015260448101829052620003f690849063a9059cbb60e01b9060640162000386565b505050565b600062000412836001600160a01b03841662000549565b9392505050565b60006200041283836200059b565b6001600160a01b0381166000908152600183016020526040812054151562000412565b600062000285825490565b600062000412836001600160a01b03841662000632565b6000620004c3826040518060400160405280602081526020017f5361666545524332303a206c6f772d6c6576656c2063616c6c206661696c6564815250856001600160a01b03166200075b9092919063ffffffff16565b805190915015620003f65780806020019051810190620004e4919062000a94565b620003f65760405162461bcd60e51b815260206004820152602a60248201527f5361666545524332303a204552433230206f7065726174696f6e20646964206e6044820152691bdd081cdd58d8d9595960b21b60648201526084015b60405180910390fd5b6000818152600183016020526040812054620005925750815460018181018455600084815260208082209093018490558454848252828601909352604090209190915562000285565b50600062000285565b81546000908210620005fb5760405162461bcd60e51b815260206004820152602260248201527f456e756d657261626c655365743a20696e646578206f7574206f6620626f756e604482015261647360f01b606482015260840162000540565b8260000182815481106200061f57634e487b7160e01b600052603260045260246000fd5b9060005260206000200154905092915050565b60008181526001830160205260408120548015620007505760006200065960018362000bed565b85549091506000906200066f9060019062000bed565b905060008660000182815481106200069757634e487b7160e01b600052603260045260246000fd5b9060005260206000200154905080876000018481548110620006c957634e487b7160e01b600052603260045260246000fd5b600091825260209091200155620006e283600162000bd2565b600082815260018901602052604090205586548790806200071357634e487b7160e01b600052603160045260246000fd5b6001900381819060005260206000200160009055905586600101600087815260200190815260200160002060009055600194505050505062000285565b600091505062000285565b60606200076c848460008562000774565b949350505050565b606082471015620007d75760405162461bcd60e51b815260206004820152602660248201527f416464726573733a20696e73756666696369656e742062616c616e636520666f6044820152651c8818d85b1b60d21b606482015260840162000540565b843b620008275760405162461bcd60e51b815260206004820152601d60248201527f416464726573733a2063616c6c20746f206e6f6e2d636f6e7472616374000000604482015260640162000540565b600080866001600160a01b0316858760405162000845919062000afd565b60006040518083038185875af1925050503d806000811462000884576040519150601f19603f3d011682016040523d82523d6000602084013e62000889565b606091505b50915091506200089b828286620008a6565b979650505050505050565b60608315620008b757508162000412565b825115620008c85782518084602001fd5b8160405162461bcd60e51b815260040162000540919062000bbd565b6143138062000c9d83390190565b8035620008ff8162000c83565b919050565b803560048110620008ff57600080fd5b600082601f83011262000925578081fd5b813567ffffffffffffffff8082111562000943576200094362000c6d565b604051601f8301601f19908116603f011681019082821181831017156200096e576200096e62000c6d565b8160405283815286602085880101111562000987578485fd5b8360208701602083013792830160200193909352509392505050565b600060208284031215620009b5578081fd5b8135620004128162000c83565b6000806000806000806000806000806101408b8d031215620009e2578586fd5b620009ed8b620008f2565b9950620009fd60208c01620008f2565b985060408b013567ffffffffffffffff8082111562000a1a578788fd5b62000a288e838f0162000914565b995060608d013591508082111562000a3e578788fd5b5062000a4d8d828e0162000914565b97505060808b0135955060a08b0135945060c08b0135935060e08b0135925062000a7b6101008c0162000904565b91506101208b013590509295989b9194979a5092959850565b60006020828403121562000aa6578081fd5b8151801515811462000412578182fd5b60006020828403121562000ac8578081fd5b5035919050565b6000815180845262000ae981602086016020860162000c07565b601f01601f19169290920160200192915050565b6000825162000b1181846020870162000c07565b9190910192915050565b6001600160a01b0385811682528416602082015260806040820181905260009062000b499083018562000acf565b82810360608401526200089b818562000acf565b6001600160a01b03881681526020810187905260408101869052606081018590526080810184905260e081016004841062000ba857634e487b7160e01b600052602160045260246000fd5b60a082019390935260c0015295945050505050565b60208152600062000412602083018462000acf565b6000821982111562000be85762000be862000c57565b500190565b60008282101562000c025762000c0262000c57565b500390565b60005b8381101562000c2457818101518382015260200162000c0a565b83811115620003be5750506000910152565b60008262000c5257634e487b7160e01b81526012600452602481fd5b500690565b634e487b7160e01b600052601160045260246000fd5b634e487b7160e01b600052604160045260246000fd5b6001600160a01b038116811462000c9957600080fd5b5056fe6080604052601b805460ff191660011790553480156200001e57600080fd5b5060405162004313380380620043138339810160408190526200004191620002e0565b6040518060400160405280601881526020017f426174746c65204c697175696c696469747920546f6b656e0000000000000000815250604051806040016040528060038152602001620626c760ec1b8152506000620000a56200018360201b60201c565b600080546001600160a01b0319166001600160a01b0383169081178255604051929350917f8be0079c531659141344cd1fd0a4f28419497f9722a3daafe3b4186f6b6457e0908290a35081516200010490600490602085019062000187565b5080516200011a90600590602084019062000187565b5050601880546001600160a01b038088166001600160a01b03199283161790925560068054928716929091169190911790555081516200016290601390602085019062000187565b5080516200017890601490602084019062000187565b5050505050620003de565b3390565b828054620001959062000372565b90600052602060002090601f016020900481019282620001b9576000855562000204565b82601f10620001d457805160ff191683800117855562000204565b8280016001018555821562000204579182015b8281111562000204578251825591602001919060010190620001e7565b506200021292915062000216565b5090565b5b8082111562000212576000815560010162000217565b600082601f8301126200023e578081fd5b81516001600160401b03808211156200025b576200025b620003af565b604051601f8301601f19908116603f01168101908282118183101715620002865762000286620003af565b81604052838152602092508683858801011115620002a2578485fd5b8491505b83821015620002c55785820183015181830184015290820190620002a6565b83821115620002d657848385830101525b9695505050505050565b60008060008060808587031215620002f6578384fd5b84516200030381620003c5565b60208601519094506200031681620003c5565b60408601519093506001600160401b038082111562000333578384fd5b62000341888389016200022d565b9350606087015191508082111562000357578283fd5b5062000366878288016200022d565b91505092959194509250565b600181811c908216806200038757607f821691505b60208210811415620003a957634e487b7160e01b600052602260045260246000fd5b50919050565b634e487b7160e01b600052604160045260246000fd5b6001600160a01b0381168114620003db57600080fd5b50565b613f2580620003ee6000396000f3fe608060405234801561001057600080fd5b50600436106103af5760003560e01c806374e9a267116101f4578063aafc7a761161011a578063e78ccc39116100ad578063f4ada3511161007c578063f4ada35114610961578063f6e0c8f614610981578063f8a8fd6d1461043e578063ff5958fc1461099457600080fd5b8063e78ccc3914610908578063e7eb3b4814610928578063e8a352f81461093b578063f2fde38b1461094e57600080fd5b8063c3383b5b116100e9578063c3383b5b14610896578063dd62ed3e146108a9578063e5cb8d86146108e2578063e6050c38146108f557600080fd5b8063aafc7a7614610825578063ae809e8f14610845578063b2016bd414610870578063c1097c0d1461088357600080fd5b806394e33d7f11610192578063a27382d611610161578063a27382d6146107cc578063a457c2d7146107ec578063a54e2ff2146107ff578063a9059cbb1461081257600080fd5b806394e33d7f1461077357806395d89b411461079b5780639701f5e8146107a35780639cbe5efd146107c357600080fd5b806385d10056116101ce57806385d10056146106ab5780638c65c81f146106cb5780638da5cb5b1461074f57806390a4cb9b1461076057600080fd5b806374e9a2671461065a57806376c4b8871461066d5780637dc0d1d01461068057600080fd5b80633b1f18dd116102d95780634e71d92d11610277578063715018a611610246578063715018a6146105ff578063728313c914610607578063732d21601461061a578063736bcfdb1461063a57600080fd5b80634e71d92d1461058d57806352707d8c146105955780636f4d2b67146105c357806370a08231146105d657600080fd5b8063475e9888116102b3578063475e98881461054457806349bf117b1461054d5780634d56cc68146105605780634d61c32f1461056d57600080fd5b80633b1f18dd146104fe5780633c45e7361461051e5780633cc1f54c1461053157600080fd5b80631c770547116103515780633203ba77116103205780633203ba77146104c857806335a94b7b146104d057806339509351146104d85780633b18d439146104eb57600080fd5b80631c77054714610473578063221937e01461048657806323b872dd146104a6578063313ce567146104b957600080fd5b80630ef4b2481161038d5780630ef4b2481461042357806311da60b414610436578063123656b91461044057806318160ddd1461046b57600080fd5b806306fdde03146103b4578063095ea7b3146103d25780630d731228146103f5575b600080fd5b6103bc61099c565b6040516103c99190613b7c565b60405180910390f35b6103e56103e03660046139dc565b610a2e565b60405190151581526020016103c9565b610415610403366004613a8e565b600c6020526000908152604090205481565b6040519081526020016103c9565b610415610431366004613955565b610a45565b61043e610b41565b005b61041561044e366004613abe565b600960209081526000928352604080842090915290825290205481565b600354610415565b610415610481366004613a8e565b61129b565b610415610494366004613a8e565b600e6020526000908152604090205481565b6103e56104b43660046139a1565b611308565b604051601281526020016103c9565b601654610415565b6103bc6113bb565b6103e56104e63660046139dc565b611449565b6104156104f9366004613a8e565b611480565b61041561050c366004613a8e565b60126020526000908152604090205481565b61043e61052c366004613a8e565b611522565b61043e61053f366004613a8e565b611735565b610415601c5481565b61043e61055b366004613a8e565b611853565b601b546103e59060ff1681565b61041561057b366004613955565b60116020526000908152604090205481565b61043e611bbf565b6105a86105a3366004613b2f565b611c30565b604080519384529115156020840152908201526060016103c9565b6104156105d1366004613a8e565b611c58565b6104156105e4366004613955565b6001600160a01b031660009081526001602052604090205490565b61043e611c86565b61043e610615366004613a8e565b611d2a565b610415610628366004613955565b60106020526000908152604090205481565b610415610648366004613a8e565b600d6020526000908152604090205481565b610415610668366004613b04565b611efd565b61041561067b366004613955565b611f4b565b600654610693906001600160a01b031681565b6040516001600160a01b0390911681526020016103c9565b6104156106b9366004613a8e565b600b6020526000908152604090205481565b6107386106d9366004613a8e565b601760205260009081526040902080546001820154600283015460038401546004850154600586015460068701546007880154600889015460098a0154600a909a0154989997989697959694959394929360ff9283169391929091168b565b6040516103c99b9a99989796959493929190613c55565b6000546001600160a01b0316610693565b61041561076e366004613a8e565b612033565b610786610781366004613a8e565b612054565b604080519283526020830191909152016103c9565b6103bc6120ed565b6104156107b1366004613a8e565b601a6020526000908152604090205481565b61041560155481565b6104156107da366004613a8e565b60196020526000908152604090205481565b6103e56107fa3660046139dc565b6120fc565b61041561080d366004613a8e565b612197565b6103e56108203660046139dc565b61222e565b610415610833366004613a8e565b600a6020526000908152604090205481565b610415610853366004613abe565b600760209081526000928352604080842090915290825290205481565b601854610693906001600160a01b031681565b610415610891366004613ae0565b61223b565b6104156108a4366004613a8e565b612309565b6104156108b736600461396f565b6001600160a01b03918216600090815260026020908152604080832093909416825291909152205490565b6104156108f0366004613a8e565b612354565b61043e610903366004613a8e565b612382565b610415610916366004613a8e565b600f6020526000908152604090205481565b61043e610936366004613a05565b6125f4565b610415610949366004613a8e565b612a79565b61043e61095c366004613955565b612aba565b61041561096f366004613a8e565b60086020526000908152604090205481565b61043e61098f366004613a8e565b612bd4565b6103bc612cd4565b6060600480546109ab90613e49565b80601f01602080910402602001604051908101604052809291908181526020018280546109d790613e49565b8015610a245780601f106109f957610100808354040283529160200191610a24565b820191906000526020600020905b815481529060010190602001808311610a0757829003601f168201915b5050505050905090565b6000610a3b338484612ce1565b5060015b92915050565b6001600160a01b0381166000908152601060205260408120548015801590610a6e575060155481105b15610b3b5760016000828152601760205260409020600a015460ff166002811115610aa957634e487b7160e01b600052602160045260246000fd5b1415610ad95760008181526007602090815260408083206001600160a01b03871684529091529020549150610b3b565b60026000828152601760205260409020600a015460ff166002811115610b0f57634e487b7160e01b600052602160045260246000fd5b1415610b3b5760008181526009602090815260408083206001600160a01b038716845290915290205491505b50919050565b601554600090815260176020526040902060050154421015610ba05760405162461bcd60e51b8152602060048201526013602482015272746f6f206561726c7920746f20736574746c6560681b60448201526064015b60405180910390fd5b6015546000908152601760205260408120600a015460ff166002811115610bd757634e487b7160e01b600052602160045260246000fd5b14610c185760405162461bcd60e51b81526020600482015260116024820152701c9bdd5b99081a1859081cd95d1d1b1959607a1b6044820152606401610b97565b600654604051631fc58c3360e31b81526000916001600160a01b03169063fe2c619890610c4a90601490600401613baf565b602060405180830381600087803b158015610c6457600080fd5b505af1158015610c78573d6000803e3d6000fd5b505050506040513d601f19601f82011682018060405250810190610c9c9190613aa6565b601580546000908152601760205260408082206003018490559154815290812060060154919250610cdf610cd8670de0b6b3a764000084612e06565b8490612e12565b90506000610cff610cf8670de0b6b3a764000085612e34565b8590612e12565b9050600080610d0c612e40565b91509150604051806101600160405280601760006016600081548110610d4257634e487b7160e01b600052603260045260246000fd5b90600052602060002001548152602001908152602001600020600001548152602001601760006016600081548110610d8a57634e487b7160e01b600052603260045260246000fd5b906000526020600020015481526020019081526020016000206001015481526020018781526020016000815260200183815260200182815260200186815260200160176000601554815260200190815260200160002060070160009054906101000a900460ff166003811115610e1057634e487b7160e01b600052602160045260246000fd5b81526020810186905260408101859052606001600081525060176000428152602001908152602001600020600082015181600001556020820151816001015560408201518160020155606082015181600301556080820151816004015560a0820151816005015560c0820151816006015560e08201518160070160006101000a81548160ff02191690836003811115610eb957634e487b7160e01b600052602160045260246000fd5b021790555061010082015160088201556101208201516009820155610140820151600a8201805460ff19166001836002811115610f0657634e487b7160e01b600052602160045260246000fd5b02179055506000915081905060155460009081526017602052604090206007015460ff166003811115610f4957634e487b7160e01b600052602160045260246000fd5b1415610fdc5760155460009081526017602052604090206008015487111580610f8657506015546000908152601760205260409020600901548710155b15610fb6576015546000908152601760205260409020600a0180546001919060ff191682805b02179055506110bb565b6015546000908152601760205260409020600a0180546002919060ff1916600183610fac565b600160155460009081526017602052604090206007015460ff16600381111561101557634e487b7160e01b600052602160045260246000fd5b141561105b576015546000908152601760205260409020600901548710610fb6576015546000908152601760205260409020600a0180546001919060ff19168280610fac565b601554600090815260176020526040902060080154871161109b576015546000908152601760205260409020600a0180546001919060ff19168280610fac565b6015546000908152601760205260409020600a01805460ff191660021790555b6015546000908152600d6020908152604080832054600c835281842054600b9093529083205490916110ec91613cd0565b6110f69190613cd0565b905060016015546000908152601760205260409020600a015460ff16600281111561113157634e487b7160e01b600052602160045260246000fd5b141561118d576015805460009081526007602081815260408084203080865290835281852054428652848452828620828752845282862055945484529181528183209383529290925220546111869082613e06565b91506111df565b6015805460009081526009602081815260408084203080865290835281852054428652848452828620828752845282862055945484529181528183209383529290925220546111dc9082613e06565b91505b601580546000908152600e60208181526040808420544280865282862091825595548552600f835281852054958552932093909355909152546112229083612e12565b426000908152600b6020908152604080832093909355600f905220546112489083612e12565b426000818152600c602052604081209290925560158190556016805460018101825592527fd833147d7dc355ba459fc788f669e58cfaf9dc25ddcd0702e87d69c7b5124289909101555050505050505050565b6000806112a9601554611c58565b905060006112b8601554612354565b905060008183116112c957816112cb565b825b905060006112fe6112db60035490565b6112f8886112f2866112ec60035490565b90612e06565b90612e12565b90612ebd565b9695505050505050565b6000611315848484612ed9565b6001600160a01b03841660009081526002602090815260408083203384529091529020548281101561139a5760405162461bcd60e51b815260206004820152602860248201527f45524332303a207472616e7366657220616d6f756e74206578636565647320616044820152676c6c6f77616e636560c01b6064820152608401610b97565b6113ae85336113a98685613e06565b612ce1565b60019150505b9392505050565b601480546113c890613e49565b80601f01602080910402602001604051908101604052809291908181526020018280546113f490613e49565b80156114415780601f1061141657610100808354040283529160200191611441565b820191906000526020600020905b81548152906001019060200180831161142457829003601f168201915b505050505081565b3360008181526002602090815260408083206001600160a01b03871684529091528120549091610a3b9185906113a9908690613cd0565b60155460009081526009602090815260408083203084529091528120546114b5906064906114af9060636130b1565b906130bd565b6015546000908152600c6020526040902054106114ea576015546000908152601a6020526040902054610a3f90839080611efd565b6015546000818152600960209081526040808320308452825280832054938352600c909152902054610a3f918491611efd565b919050565b60155433600090815260106020526040902054101561154357611543611bbf565b60155433600081815260106020526040902091909155601854611573916001600160a01b039091169030846130c9565b6015546000818152600b60209081526040808320546007835281842030855283528184205494845260199092528220549192839283926115b4928792611c30565b60158054600090815260196020908152604080832085905592548252600b9052205492955090935091506115e89085612e34565b601580546000908152600b60209081526040808320949094559154815260078252828120308252909152205461161e9084612e06565b601580546000908152600760208181526040808420308552825280842095909555925482528252828120338252909152205461165a9084612e34565b601554600090815260076020908152604080832033845290915290205581156116bc5760155460009081526009602090815260408083203084529091529020546116a59060646130bd565b6015546000908152600c6020526040902055611727565b6015546000818152600760209081526040808320308085528184528285205486865260098552838620828752855283862054968652600b85529285205494529091526117149290916112f891906112f2908490612e06565b6015546000908152600c60205260409020555b61172f613134565b50505050565b6015546000908152600960209081526040808320338452909152902054818110156117bf5760405162461bcd60e51b815260206004820152603460248201527f73656c6c536869656c643a3a6d73672e73656e64657220686173206e6f7420656044820152731b9bdd59da081cda1a595b19081d1bc81cd95b1b60621b6064820152608401610b97565b60006117ca83611480565b90506117d68284612e06565b60158054600090815260096020818152604080842033855282528084209590955592548252825282812030825290915220546118129084612e34565b6015546000908152600960209081526040808320308452909152902055611837613134565b60185461184e906001600160a01b03163383613268565b505050565b3360009081526011602052604090205461186a5750565b601554336000908152601160205260408120549091141561189b5750336000908152600160205260409020546118a7565b6118a433611f4b565b90505b818110156118ef5760405162461bcd60e51b81526020600482015260156024820152743737ba1032b737bab3b4103638103a3790313ab93760591b6044820152606401610b97565b60006118fc601554611c58565b9050600061190b601554612354565b9050600081831161191c578161191e565b825b9050600061192e6112db60035490565b9050600061195b61193e60035490565b6015546000908152600b60205260409020546112f8908590612e12565b9050600061198861196b60035490565b6015546000908152600c60205260409020546112f8908690612e12565b905060006119b461199860035490565b6015546000908152600b60205260409020546112f89087612e12565b905060006119e06119c460035490565b6015546000908152600c60205260409020546112f89088612e12565b90506000611a0c6119f060035490565b6015546000908152600d60205260409020546112f89089612e12565b6015546000908152600760209081526040808320308452909152902054909150611a369086612e06565b6015805460009081526007602090815260408083203080855290835281842095909555925482526009815282822093825292909252902054611a789085612e06565b60158054600090815260096020908152604080832030845282528083209490945591548152600b9091522054611aae9084612e06565b601580546000908152600b602090815260408083209490945591548152600c9091522054611adc9083612e06565b601580546000908152600c602090815260408083209490945591548152600d9091522054611b0a9082612e06565b601580546000908152600d60209081526040808320949094559154815260089091522054611b389086612e06565b6015805460009081526008602090815260408083209490945591548152600a9091522054611b669085612e06565b601580546000908152600a6020908152604080832094909455915433808352601190935292902091909155611b9b908c613298565b601854611bb2906001600160a01b03163388613268565b5050505050505050505050565b6000611bca33610a45565b90508015611c2d57336000818152601060208181526040808420805485526007835281852086865283528185208590558054855260098352818520868652835290842084905591905255601854611c2d916001600160a01b039091169083613268565b50565b600080600080600080611c458a8a8a8a6133e7565b919c909b50909950975050505050505050565b60008181526007602090815260408083203084528252808320548484526008909252822054610a3f91612e06565b6000546001600160a01b03163314611ce05760405162461bcd60e51b815260206004820181905260248201527f4f776e61626c653a2063616c6c6572206973206e6f7420746865206f776e65726044820152606401610b97565b600080546040516001600160a01b03909116907f8be0079c531659141344cd1fd0a4f28419497f9722a3daafe3b4186f6b6457e0908390a3600080546001600160a01b0319169055565b601854611d42906001600160a01b03163330846130c9565b6015546000818152600c602090815260408083205460098352818420308552835281842054948452601a909252822054919283928392611d83928792611c30565b601580546000908152601a6020908152604080832085905592548252600c905220549295509093509150611db79085612e34565b601580546000908152600c602090815260408083209490945591548152600982528281203082529091522054611ded9084612e06565b6015805460009081526009602081815260408084203085528252808420959095559254825282528281203382529091522054611e299084612e34565b60155460009081526009602090815260408083203384529091529020558115611e8b576015546000908152600760209081526040808320308452909152902054611e749060646130bd565b6015546000908152600b6020526040902055611727565b6015546000818152600960209081526040808320308085528184528285205486865260078552838620828752855283862054968652600c8552928520549452909152611ee39290916112f891906112f2908490612e06565b6015546000908152600b602052604090205561172f613134565b600080611f0c856103e86130b1565b90506000611f1a82856130b1565b90506000611f3483611f2e886103e86130b1565b90612e34565b9050611f408183613ce8565b979650505050505050565b6001600160a01b0381166000908152601160205260408120548015801590611f7557506015548111155b15610b3b576001600160a01b03831660009081526001602052604081205492505b601654611fa590600190613e06565b81101561202c578160168281548110611fce57634e487b7160e01b600052603260045260246000fd5b90600052602060002001541061201a5760006120166016838154811061200457634e487b7160e01b600052603260045260246000fd5b9060005260206000200154868661223b565b9350505b8061202481613e7e565b915050611f96565b5050919050565b6016818154811061204357600080fd5b600091825260209091200154905081565b6015546000908152600c6020908152604080832054600b9092528220548291829161207e91612e34565b6015546000908152600760209081526040808320308452909152812054919250906120af9083906112f89088612e12565b6015546000908152600960209081526040808320308452909152812054919250906120e09084906112f89089612e12565b9196919550909350505050565b6060600580546109ab90613e49565b3360009081526002602090815260408083206001600160a01b03861684529091528120548281101561217e5760405162461bcd60e51b815260206004820152602560248201527f45524332303a2064656372656173656420616c6c6f77616e63652062656c6f77604482015264207a65726f60d81b6064820152608401610b97565b61218d33856113a98685613e06565b5060019392505050565b60155460009081526007602090815260408083203084529091528120546121c6906064906114af9060636130b1565b6015546000908152600b6020526040902054106121fb57601554600090815260196020526040902054610a3f90839080611efd565b6015546000818152600760209081526040808320308452825280832054938352600b909152902054610a3f918491611efd565b6000610a3b338484612ed9565b600060155484141561226657506001600160a01b0382166000908152600160205260409020546113b4565b60016000858152601760205260409020600a015460ff16600281111561229c57634e487b7160e01b600052602160045260246000fd5b14156122da5760008481526007602090815260408083203084529091529020546122d26122c860035490565b6112f88584612e12565b9150506113b4565b60008481526009602090815260408083203084529091529020546123006122c860035490565b95945050505050565b6015546000818152600c602090815260408083205460098352818420308552835281842054948452601a9092528220549192839261234a9286929091611c30565b5090949350505050565b6000818152600960209081526040808320308452825280832054848452600a909252822054610a3f91612e06565b6015543360009081526011602052604090205410156123a5576123a56000611853565b6015546000908152600c6020908152604080832054600b9092528220546123cb91612e34565b6015546000908152600b6020526040812054919250906123f19083906112f89086612e12565b6015546000908152600c6020526040812054919250906124179084906112f89087612e12565b6015546000908152600760209081526040808320308452909152812054919250906124489085906112f89088612e12565b6015546000908152600960209081526040808320308452909152812054919250906124799086906112f89089612e12565b6015546000908152600b60205260409020549091506124989085612e34565b601580546000908152600b602090815260408083209490945591548152600c90915220546124c69084612e34565b601580546000908152600c6020908152604080832094909455915481526007825282812030825290915220546124fc9083612e34565b601580546000908152600760209081526040808320308085529083528184209590955592548252600981528282209382529290925290205461253e9082612e34565b60158054600090815260096020908152604080832030845282528083209490945591548152600890915220546125749083612e34565b6015805460009081526008602090815260408083209490945591548152600a90915220546125a29082612e34565b6015546000908152600a60205260409020556018546125cc906001600160a01b03163330896130c9565b601554336000818152601160205260409020919091556125ec90876135bc565b505050505050565b601b5460ff166126375760405162461bcd60e51b815260206004820152600e60248201526d1b9bdd08199a5c9cdd081a5b9a5d60921b6044820152606401610b97565b8015806126445750806001145b8061264f5750806002145b61269b5760405162461bcd60e51b815260206004820152601b60248201527f4e6f7420737570706f727420626174746c65206475726174696f6e00000000006044820152606401610b97565b601c819055601b805460ff191690556126b48585612e34565b670de0b6b3a7640000146127165760405162461bcd60e51b8152602060048201526024808201527f426174746c653a3a696e69743a7370656172202b20736869656c642073686f756044820152636c64203160e01b6064820152608401610b97565b600080612721612e40565b60158290556016805460018101825560009182527fd833147d7dc355ba459fc788f669e58cfaf9dc25ddcd0702e87d69c7b512428901839055600654604051631fc58c3360e31b8152939550919350916001600160a01b039091169063fe2c61989061279290601490600401613baf565b602060405180830381600087803b1580156127ac57600080fd5b505af11580156127c0573d6000803e3d6000fd5b505050506040513d601f19601f820116820180604052508101906127e49190613aa6565b90506040518061016001604052808981526020018881526020018281526020016000815260200184815260200183815260200187815260200186600381111561283d57634e487b7160e01b600052602160045260246000fd5b8152602001612857610cd8670de0b6b3a76400008a612e06565b8152602001612871610cd8670de0b6b3a76400008a612e34565b8152602001600081525060176000858152602001908152602001600020600082015181600001556020820151816001015560408201518160020155606082015181600301556080820151816004015560a0820151816005015560c0820151816006015560e08201518160070160006101000a81548160ff0219169083600381111561290c57634e487b7160e01b600052602160045260246000fd5b021790555061010082015160088201556101208201516009820155610140820151600a8201805460ff1916600183600281111561295957634e487b7160e01b600052602160045260246000fd5b02179055505060158054600090815260076020908152604080832030845282528083208e90559254825260089052205461299491508a612e34565b60158054600090815260086020908152604080832094909455825482526009815283822030835281528382208d905591548152600a90915220546129d8908a612e34565b6015546000908152600a60205260409020556129f4888a612e12565b6015546000908152600b6020526040902055612a10878a612e12565b601580546000908152600c602090815260408083209490945582548252600e81528382208c905591548152600f90915220879055612a4e8a8a6135bc565b50506015546001600160a01b0390981660009081526011602052604090209790975550505050505050565b6015546000818152600b60209081526040808320546007835281842030855283528184205494845260199092528220549192839261234a9286929091611c30565b6000546001600160a01b03163314612b145760405162461bcd60e51b815260206004820181905260248201527f4f776e61626c653a2063616c6c6572206973206e6f7420746865206f776e65726044820152606401610b97565b6001600160a01b038116612b795760405162461bcd60e51b815260206004820152602660248201527f4f776e61626c653a206e6577206f776e657220697320746865207a65726f206160448201526564647265737360d01b6064820152608401610b97565b600080546040516001600160a01b03808516939216917f8be0079c531659141344cd1fd0a4f28419497f9722a3daafe3b4186f6b6457e091a3600080546001600160a01b0319166001600160a01b0392909216919091179055565b601554600090815260076020908152604080832033845290915290205481811015612c5c5760405162461bcd60e51b815260206004820152603260248201527f73656c6c53706561723a3a6d73672e73656e64657220686173206e6f7420656e6044820152711bdd59da081cdc19585c881d1bc81cd95b1b60721b6064820152608401610b97565b6000612c6783612197565b9050612c738284612e06565b6015805460009081526007602081815260408084203385528252808420959095559254825282528281203082529091522054612caf9084612e34565b6015546000908152600760209081526040808320308452909152902055611837613134565b601380546113c890613e49565b6001600160a01b038316612d435760405162461bcd60e51b8152602060048201526024808201527f45524332303a20617070726f76652066726f6d20746865207a65726f206164646044820152637265737360e01b6064820152608401610b97565b6001600160a01b038216612da45760405162461bcd60e51b815260206004820152602260248201527f45524332303a20617070726f766520746f20746865207a65726f206164647265604482015261737360f01b6064820152608401610b97565b6001600160a01b0383811660008181526002602090815260408083209487168084529482529182902085905590518481527f8c5be1e5ebec7d5bd14f71427d1e84f3dd0314c0f7b2291e5b200ac8c7c3b92591015b60405180910390a3505050565b60006113b48284613e06565b6000612e206012600a613d3f565b612e2a84846130b1565b6113b49190613ce8565b60006113b48284613cd0565b600080601c5460001415612e7a57612e5b6201518042613e99565b612e659042613e06565b9150612e748262015180613cd0565b90509091565b601c5460011415612eb95762093a80612e96426203f480613cd0565b612ea09190613e99565b612eaa9042613e06565b9150612e748262093a80613cd0565b9091565b60006113b4826114af612ed26012600a613d3f565b86906130b1565b6001600160a01b038316612f3d5760405162461bcd60e51b815260206004820152602560248201527f45524332303a207472616e736665722066726f6d20746865207a65726f206164604482015264647265737360d81b6064820152608401610b97565b6001600160a01b038216612f9f5760405162461bcd60e51b815260206004820152602360248201527f45524332303a207472616e7366657220746f20746865207a65726f206164647260448201526265737360e81b6064820152608401610b97565b6001600160a01b038316600090815260016020526040902054818110156130175760405162461bcd60e51b815260206004820152602660248201527f45524332303a207472616e7366657220616d6f756e7420657863656564732062604482015265616c616e636560d01b6064820152608401610b97565b6130218282613e06565b6001600160a01b038086166000908152600160205260408082209390935590851681529081208054849290613057908490613cd0565b92505081905550826001600160a01b0316846001600160a01b03167fddf252ad1be2c89b69c2b068fc378daa952ba7f163c4a11628f55a4df523b3ef846040516130a391815260200190565b60405180910390a350505050565b60006113b48284613de7565b60006113b48284613ce8565b6040516001600160a01b038085166024830152831660448201526064810182905261172f9085906323b872dd60e01b906084015b60408051601f198184030181529190526020810180516001600160e01b03166001600160e01b03199093169290921790915261369b565b6015546000818152600760209081526040808320308452825280832054938352600b90915281205490916131689190612ebd565b6015546000818152600960209081526040808320308452825280832054938352600c9091528120549293509161319d91612ebd565b9050670dbd2fc137a30000821015806131be5750670dbd2fc137a300008110155b1561324057670dbd2fc137a30000821061320957601580546000908152600e60209081526040808320670dbd2fc137a30000905592548252600f905220662386f26fc1000090555050565b601580546000908152600e60209081526040808320662386f26fc10000905592548252600f905220670dbd2fc137a3000090555050565b601580546000908152600e6020908152604080832086905592548252600f9052208190555050565b6040516001600160a01b03831660248201526044810182905261184e90849063a9059cbb60e01b906064016130fd565b6001600160a01b0382166132f85760405162461bcd60e51b815260206004820152602160248201527f45524332303a206275726e2066726f6d20746865207a65726f206164647265736044820152607360f81b6064820152608401610b97565b6001600160a01b0382166000908152600160205260409020548181101561336c5760405162461bcd60e51b815260206004820152602260248201527f45524332303a206275726e20616d6f756e7420657863656564732062616c616e604482015261636560f01b6064820152608401610b97565b6133768282613e06565b6001600160a01b038416600090815260016020526040812091909155600380548492906133a4908490613e06565b90915550506040518281526000906001600160a01b038516907fddf252ad1be2c89b69c2b068fc378daa952ba7f163c4a11628f55a4df523b3ef90602001612df9565b60008060008087116134455760405162461bcd60e51b815260206004820152602160248201527f426174746c653a20494e53554646494349454e545f494e5055545f414d4f554e6044820152601560fa1b6064820152608401610b97565b6000861180156134555750600085115b6134a15760405162461bcd60e51b815260206004820152601e60248201527f426174746c653a20494e53554646494349454e545f4c495155494449545900006044820152606401610b97565b6134b160646114af8760636130b1565b86106134c5575085915060019050826135b2565b60006134e96134da60636114af8960646130b1565b6134e49089613de7565b61376d565b9150819050806134f98989612e34565b111561356e57600061350b8289612e06565b9050600061351b826103e86130b1565b90506000613529828a6130b1565b9050600061353d83611f2e8d6103e86130b1565b90506135498183613ce8565b975061355f6135588d86612e06565b8990612e34565b975060019650505050506135b0565b600061357c896103e86130b1565b9050600061358a82896130b1565b9050600061359e83611f2e8c6103e86130b1565b90506135aa8183613ce8565b96505050505b505b9450945094915050565b6001600160a01b0382166136125760405162461bcd60e51b815260206004820152601f60248201527f45524332303a206d696e7420746f20746865207a65726f2061646472657373006044820152606401610b97565b80600360008282546136249190613cd0565b90915550506001600160a01b03821660009081526001602052604081208054839290613651908490613cd0565b90915550506040518181526001600160a01b038316906000907fddf252ad1be2c89b69c2b068fc378daa952ba7f163c4a11628f55a4df523b3ef9060200160405180910390a35050565b60006136f0826040518060400160405280602081526020017f5361666545524332303a206c6f772d6c6576656c2063616c6c206661696c6564815250856001600160a01b03166137d69092919063ffffffff16565b80519091501561184e578080602001905181019061370e9190613a6e565b61184e5760405162461bcd60e51b815260206004820152602a60248201527f5361666545524332303a204552433230206f7065726174696f6e20646964206e6044820152691bdd081cdd58d8d9595960b21b6064820152608401610b97565b600060038211156137c85750806000613787600283613ce8565b613792906001613cd0565b90505b81811015610b3b579050806002816137ad8186613ce8565b6137b79190613cd0565b6137c19190613ce8565b9050613795565b811561151d57506001919050565b60606137e584846000856137ed565b949350505050565b60608247101561384e5760405162461bcd60e51b815260206004820152602660248201527f416464726573733a20696e73756666696369656e742062616c616e636520666f6044820152651c8818d85b1b60d21b6064820152608401610b97565b843b61389c5760405162461bcd60e51b815260206004820152601d60248201527f416464726573733a2063616c6c20746f206e6f6e2d636f6e74726163740000006044820152606401610b97565b600080866001600160a01b031685876040516138b89190613b60565b60006040518083038185875af1925050503d80600081146138f5576040519150601f19603f3d011682016040523d82523d6000602084013e6138fa565b606091505b5091509150611f40828286606083156139145750816113b4565b8251156139245782518084602001fd5b8160405162461bcd60e51b8152600401610b979190613b7c565b80356001600160a01b038116811461151d57600080fd5b600060208284031215613966578081fd5b6113b48261393e565b60008060408385031215613981578081fd5b61398a8361393e565b91506139986020840161393e565b90509250929050565b6000806000606084860312156139b5578081fd5b6139be8461393e565b92506139cc6020850161393e565b9150604084013590509250925092565b600080604083850312156139ee578182fd5b6139f78361393e565b946020939093013593505050565b600080600080600080600060e0888a031215613a1f578283fd5b613a288861393e565b96506020880135955060408801359450606088013593506080880135925060a088013560048110613a57578283fd5b8092505060c0880135905092959891949750929550565b600060208284031215613a7f578081fd5b815180151581146113b4578182fd5b600060208284031215613a9f578081fd5b5035919050565b600060208284031215613ab7578081fd5b5051919050565b60008060408385031215613ad0578182fd5b823591506139986020840161393e565b600080600060608486031215613af4578283fd5b833592506139cc6020850161393e565b600080600060608486031215613b18578283fd5b505081359360208301359350604090920135919050565b60008060008060808587031215613b44578384fd5b5050823594602084013594506040840135936060013592509050565b60008251613b72818460208701613e1d565b9190910192915050565b6020815260008251806020840152613b9b816040850160208701613e1d565b601f01601f19169190910160400192915050565b6000602080835281845483600182811c915080831680613bd057607f831692505b858310811415613bee57634e487b7160e01b87526022600452602487fd5b878601838152602001818015613c0b5760018114613c1c57613c46565b60ff19861682528782019650613c46565b60008b815260209020895b86811015613c4057815484820152908501908901613c27565b83019750505b50949998505050505050505050565b6000610160820190508c82528b60208301528a60408301528960608301528860808301528760a08301528660c083015260048610613c9557613c95613ed9565b8560e0830152846101008301528361012083015260038310613cb957613cb9613ed9565b826101408301529c9b505050505050505050505050565b60008219821115613ce357613ce3613ead565b500190565b600082613cf757613cf7613ec3565b500490565b600181815b80851115613d37578160001904821115613d1d57613d1d613ead565b80851615613d2a57918102915b93841c9390800290613d01565b509250929050565b60006113b48383600082613d5557506001610a3f565b81613d6257506000610a3f565b8160018114613d785760028114613d8257613d9e565b6001915050610a3f565b60ff841115613d9357613d93613ead565b50506001821b610a3f565b5060208310610133831016604e8410600b8410161715613dc1575081810a610a3f565b613dcb8383613cfc565b8060001904821115613ddf57613ddf613ead565b029392505050565b6000816000190483118215151615613e0157613e01613ead565b500290565b600082821015613e1857613e18613ead565b500390565b60005b83811015613e38578181015183820152602001613e20565b8381111561172f5750506000910152565b600181811c90821680613e5d57607f821691505b60208210811415610b3b57634e487b7160e01b600052602260045260246000fd5b6000600019821415613e9257613e92613ead565b5060010190565b600082613ea857613ea8613ec3565b500690565b634e487b7160e01b600052601160045260246000fd5b634e487b7160e01b600052601260045260246000fd5b634e487b7160e01b600052602160045260246000fdfea26469706673582212204a86007a3e35b4b8aa962248e4d7075fa301907ef399d55ff621c884782cf5a364736f6c63430008040033a26469706673582212208b469acecb1a4da74119140e06da94fc3594bea3233a09ee9e0a2c11916876dc64736f6c63430008040033",
  "devdoc": {
    "kind": "dev",
    "methods": {
      "createBattle(address,address,string,string,uint256,uint256,uint256,uint256,uint8,uint256)": {
        "params": {
          "_collateral": "collateral token address, eg. DAI",
          "_oracle": "oracle contract address",
          "_priceName": "eg. BTC",
          "_range": "price range, eg. 5%=>5*10**16;if _ry is 3, then will a price",
          "_ry": "range type, 0=>TwoWay, 1=>Positive, 2=>negative, 3=> Number",
          "_shieldPrice": "init price of shield, eg. 0.5*10**18",
          "_spearPrice": "init price of spear, eg. 0.5*10**18",
          "_trackName": "battle's track name, eg. WBTC-DAI",
          "amount": "collateral's amount",
          "durType": "0=> day, 1=> week, 2=> month"
        }
      }
    },
    "version": 1
  },
  "userdoc": {
    "kind": "user",
    "methods": {},
    "version": 1
  },
  "storageLayout": {
    "storage": [
      {
        "astId": 3456,
        "contract": "contracts/Arena.sol:Arena",
        "label": "battleSet",
        "offset": 0,
        "slot": "0",
        "type": "t_struct(AddressSet)1666_storage"
      }
    ],
    "types": {
      "t_array(t_bytes32)dyn_storage": {
        "base": "t_bytes32",
        "encoding": "dynamic_array",
        "label": "bytes32[]",
        "numberOfBytes": "32"
      },
      "t_bytes32": {
        "encoding": "inplace",
        "label": "bytes32",
        "numberOfBytes": "32"
      },
      "t_mapping(t_bytes32,t_uint256)": {
        "encoding": "mapping",
        "key": "t_bytes32",
        "label": "mapping(bytes32 => uint256)",
        "numberOfBytes": "32",
        "value": "t_uint256"
      },
      "t_struct(AddressSet)1666_storage": {
        "encoding": "inplace",
        "label": "struct EnumerableSetUpgradeable.AddressSet",
        "members": [
          {
            "astId": 1665,
            "contract": "contracts/Arena.sol:Arena",
            "label": "_inner",
            "offset": 0,
            "slot": "0",
            "type": "t_struct(Set)1389_storage"
          }
        ],
        "numberOfBytes": "64"
      },
      "t_struct(Set)1389_storage": {
        "encoding": "inplace",
        "label": "struct EnumerableSetUpgradeable.Set",
        "members": [
          {
            "astId": 1384,
            "contract": "contracts/Arena.sol:Arena",
            "label": "_values",
            "offset": 0,
            "slot": "0",
            "type": "t_array(t_bytes32)dyn_storage"
          },
          {
            "astId": 1388,
            "contract": "contracts/Arena.sol:Arena",
            "label": "_indexes",
            "offset": 0,
            "slot": "1",
            "type": "t_mapping(t_bytes32,t_uint256)"
          }
        ],
        "numberOfBytes": "64"
      },
      "t_uint256": {
        "encoding": "inplace",
        "label": "uint256",
        "numberOfBytes": "32"
      }
    }
  }
}