{
  "address": "0x23eBB5249aBDcbD054aBAeDC6A6383F2a1C325bA",
  "abi": [
    {
      "anonymous": false,
      "inputs": [
        {
          "indexed": true,
          "internalType": "bytes32",
          "name": "role",
          "type": "bytes32"
        },
        {
          "indexed": true,
          "internalType": "bytes32",
          "name": "previousAdminRole",
          "type": "bytes32"
        },
        {
          "indexed": true,
          "internalType": "bytes32",
          "name": "newAdminRole",
          "type": "bytes32"
        }
      ],
      "name": "RoleAdminChanged",
      "type": "event"
    },
    {
      "anonymous": false,
      "inputs": [
        {
          "indexed": true,
          "internalType": "bytes32",
          "name": "role",
          "type": "bytes32"
        },
        {
          "indexed": true,
          "internalType": "address",
          "name": "account",
          "type": "address"
        },
        {
          "indexed": true,
          "internalType": "address",
          "name": "sender",
          "type": "address"
        }
      ],
      "name": "RoleGranted",
      "type": "event"
    },
    {
      "anonymous": false,
      "inputs": [
        {
          "indexed": true,
          "internalType": "bytes32",
          "name": "role",
          "type": "bytes32"
        },
        {
          "indexed": true,
          "internalType": "address",
          "name": "account",
          "type": "address"
        },
        {
          "indexed": true,
          "internalType": "address",
          "name": "sender",
          "type": "address"
        }
      ],
      "name": "RoleRevoked",
      "type": "event"
    },
    {
      "inputs": [],
      "name": "DEFAULT_ADMIN_ROLE",
      "outputs": [
        {
          "internalType": "bytes32",
          "name": "",
          "type": "bytes32"
        }
      ],
      "stateMutability": "view",
      "type": "function"
    },
    {
      "inputs": [],
      "name": "ORACLE_ROLE",
      "outputs": [
        {
          "internalType": "bytes32",
          "name": "",
          "type": "bytes32"
        }
      ],
      "stateMutability": "view",
      "type": "function"
    },
    {
      "inputs": [
        {
          "internalType": "bytes32",
          "name": "role",
          "type": "bytes32"
        }
      ],
      "name": "getRoleAdmin",
      "outputs": [
        {
          "internalType": "bytes32",
          "name": "",
          "type": "bytes32"
        }
      ],
      "stateMutability": "view",
      "type": "function"
    },
    {
      "inputs": [
        {
          "internalType": "bytes32",
          "name": "role",
          "type": "bytes32"
        },
        {
          "internalType": "uint256",
          "name": "index",
          "type": "uint256"
        }
      ],
      "name": "getRoleMember",
      "outputs": [
        {
          "internalType": "address",
          "name": "",
          "type": "address"
        }
      ],
      "stateMutability": "view",
      "type": "function"
    },
    {
      "inputs": [
        {
          "internalType": "bytes32",
          "name": "role",
          "type": "bytes32"
        }
      ],
      "name": "getRoleMemberCount",
      "outputs": [
        {
          "internalType": "uint256",
          "name": "",
          "type": "uint256"
        }
      ],
      "stateMutability": "view",
      "type": "function"
    },
    {
      "inputs": [
        {
          "internalType": "bytes32",
          "name": "role",
          "type": "bytes32"
        },
        {
          "internalType": "address",
          "name": "account",
          "type": "address"
        }
      ],
      "name": "grantRole",
      "outputs": [],
      "stateMutability": "nonpayable",
      "type": "function"
    },
    {
      "inputs": [
        {
          "internalType": "bytes32",
          "name": "role",
          "type": "bytes32"
        },
        {
          "internalType": "address",
          "name": "account",
          "type": "address"
        }
      ],
      "name": "hasRole",
      "outputs": [
        {
          "internalType": "bool",
          "name": "",
          "type": "bool"
        }
      ],
      "stateMutability": "view",
      "type": "function"
    },
    {
      "inputs": [
        {
          "internalType": "string",
          "name": "",
          "type": "string"
        },
        {
          "internalType": "uint256",
          "name": "",
          "type": "uint256"
        }
      ],
      "name": "historyPrice",
      "outputs": [
        {
          "internalType": "uint256",
          "name": "",
          "type": "uint256"
        }
      ],
      "stateMutability": "view",
      "type": "function"
    },
    {
      "inputs": [],
      "name": "initialize",
      "outputs": [],
      "stateMutability": "nonpayable",
      "type": "function"
    },
    {
      "inputs": [
        {
          "internalType": "string",
          "name": "",
          "type": "string"
        }
      ],
      "name": "price",
      "outputs": [
        {
          "internalType": "uint256",
          "name": "",
          "type": "uint256"
        }
      ],
      "stateMutability": "view",
      "type": "function"
    },
    {
      "inputs": [
        {
          "internalType": "bytes32",
          "name": "role",
          "type": "bytes32"
        },
        {
          "internalType": "address",
          "name": "account",
          "type": "address"
        }
      ],
      "name": "renounceRole",
      "outputs": [],
      "stateMutability": "nonpayable",
      "type": "function"
    },
    {
      "inputs": [
        {
          "internalType": "bytes32",
          "name": "role",
          "type": "bytes32"
        },
        {
          "internalType": "address",
          "name": "account",
          "type": "address"
        }
      ],
      "name": "revokeRole",
      "outputs": [],
      "stateMutability": "nonpayable",
      "type": "function"
    },
    {
      "inputs": [
        {
          "internalType": "string",
          "name": "symbol",
          "type": "string"
        },
        {
          "internalType": "uint256",
          "name": "ts",
          "type": "uint256"
        },
        {
          "internalType": "uint256",
          "name": "_price",
          "type": "uint256"
        }
      ],
      "name": "setPrice",
      "outputs": [],
      "stateMutability": "nonpayable",
      "type": "function"
    },
    {
      "inputs": [
        {
          "internalType": "bytes4",
          "name": "interfaceId",
          "type": "bytes4"
        }
      ],
      "name": "supportsInterface",
      "outputs": [
        {
          "internalType": "bool",
          "name": "",
          "type": "bool"
        }
      ],
      "stateMutability": "view",
      "type": "function"
    }
  ],
  "transactionHash": "0x7ccc107f9eb55b7197a9e5f5932576c23217b9835728edfec3332d8511826be5",
  "args": [],
  "solcInputHash": "33e692906ffbf4642436f977ab99a8cb",
  "bytecode": "0x60806040526a6f7261636c655f726f6c6560a81b60cb5534801561002257600080fd5b50610c67806100326000396000f3fe608060405234801561001057600080fd5b50600436106100ea5760003560e01c80639010d07c1161008c578063b3f63c7a11610066578063b3f63c7a146101da578063ca15c87314610215578063d547741f14610228578063fe2c61981461023b57600080fd5b80639010d07c1461019457806391d14854146101bf578063a217fddf146101d257600080fd5b8063248a9ca3116100c8578063248a9ca3146101435780632f2ff15d1461016657806336568abe146101795780638129fc1c1461018c57600080fd5b806301ffc9a7146100ef57806307e2cea5146101175780631d74e6781461012e575b600080fd5b6101026100fd366004610aab565b610266565b60405190151581526020015b60405180910390f35b61012060cb5481565b60405190815260200161010e565b61014161013c366004610b51565b610291565b005b610120610151366004610a38565b60009081526065602052604090206001015490565b610141610174366004610a50565b61033e565b610141610187366004610a50565b610365565b610141610387565b6101a76101a2366004610a8a565b610451565b6040516001600160a01b03909116815260200161010e565b6101026101cd366004610a50565b610470565b610120600081565b6101206101e8366004610b0e565b815160208184018101805160ca825292820194820194909420919093529091526000908152604090205481565b610120610223366004610a38565b61049b565b610141610236366004610a50565b6104b2565b610120610249366004610ad3565b805160208183018101805160c98252928201919093012091525481565b60006001600160e01b03198216635a05180f60e01b148061028b575061028b826104bc565b92915050565b61029d60cb5433610470565b6102e25760405162461bcd60e51b815260206004820152601160248201527063616c6c6572206e6f74206f7261636c6560781b60448201526064015b60405180910390fd5b8060c9846040516102f39190610b9d565b9081526020016040518091039020819055508060ca846040516103169190610b9d565b9081526020016040518091039020600084815260200190815260200160002081905550505050565b61034882826104f1565b60008281526097602052604090206103609082610580565b505050565b61036f8282610595565b6000828152609760205260409020610360908261060f565b600054610100900460ff16806103a0575060005460ff16155b6104035760405162461bcd60e51b815260206004820152602e60248201527f496e697469616c697a61626c653a20636f6e747261637420697320616c72656160448201526d191e481a5b9a5d1a585b1a5e995960921b60648201526084016102d9565b600054610100900460ff16158015610425576000805461ffff19166101011790555b610430600033610624565b61043c60cb5433610624565b801561044e576000805461ff00191690555b50565b6000828152609760205260408120610469908361062e565b9392505050565b60009182526065602090815260408084206001600160a01b0393909316845291905290205460ff1690565b600081815260976020526040812061028b9061063a565b61036f8282610644565b60006001600160e01b03198216637965db0b60e01b148061028b57506301ffc9a760e01b6001600160e01b031983161461028b565b60008281526065602052604090206001015461050e905b33610470565b6105725760405162461bcd60e51b815260206004820152602f60248201527f416363657373436f6e74726f6c3a2073656e646572206d75737420626520616e60448201526e0818591b5a5b881d1bc819dc985b9d608a1b60648201526084016102d9565b61057c82826106c4565b5050565b6000610469836001600160a01b03841661074a565b6001600160a01b03811633146106055760405162461bcd60e51b815260206004820152602f60248201527f416363657373436f6e74726f6c3a2063616e206f6e6c792072656e6f756e636560448201526e103937b632b9903337b91039b2b63360891b60648201526084016102d9565b61057c8282610799565b6000610469836001600160a01b038416610800565b6103488282610572565b6000610469838361091d565b600061028b825490565b60008281526065602052604090206001015461065f90610508565b6106055760405162461bcd60e51b815260206004820152603060248201527f416363657373436f6e74726f6c3a2073656e646572206d75737420626520616e60448201526f2061646d696e20746f207265766f6b6560801b60648201526084016102d9565b6106ce8282610470565b61057c5760008281526065602090815260408083206001600160a01b03851684529091529020805460ff191660011790556107063390565b6001600160a01b0316816001600160a01b0316837f2f8788117e7eff1d82e926ec794901d17c78024a50270940304540a733656f0d60405160405180910390a45050565b60008181526001830160205260408120546107915750815460018181018455600084815260208082209093018490558454848252828601909352604090209190915561028b565b50600061028b565b6107a38282610470565b1561057c5760008281526065602090815260408083206001600160a01b0385168085529252808320805460ff1916905551339285917ff6391f5c32d9c69d2a47ea670b442974b53935d1edc7fd64eb21e047a839171b9190a45050565b60008181526001830160205260408120548015610913576000610824600183610bee565b855490915060009061083890600190610bee565b9050600086600001828154811061085f57634e487b7160e01b600052603260045260246000fd5b906000526020600020015490508087600001848154811061089057634e487b7160e01b600052603260045260246000fd5b6000918252602090912001556108a7836001610bd6565b600082815260018901602052604090205586548790806108d757634e487b7160e01b600052603160045260246000fd5b6001900381819060005260206000200160009055905586600101600087815260200190815260200160002060009055600194505050505061028b565b600091505061028b565b8154600090821061097b5760405162461bcd60e51b815260206004820152602260248201527f456e756d657261626c655365743a20696e646578206f7574206f6620626f756e604482015261647360f01b60648201526084016102d9565b82600001828154811061099e57634e487b7160e01b600052603260045260246000fd5b9060005260206000200154905092915050565b600082601f8301126109c1578081fd5b813567ffffffffffffffff808211156109dc576109dc610c1b565b604051601f8301601f19908116603f01168101908282118183101715610a0457610a04610c1b565b81604052838152866020858801011115610a1c578485fd5b8360208701602083013792830160200193909352509392505050565b600060208284031215610a49578081fd5b5035919050565b60008060408385031215610a62578081fd5b8235915060208301356001600160a01b0381168114610a7f578182fd5b809150509250929050565b60008060408385031215610a9c578182fd5b50508035926020909101359150565b600060208284031215610abc578081fd5b81356001600160e01b031981168114610469578182fd5b600060208284031215610ae4578081fd5b813567ffffffffffffffff811115610afa578182fd5b610b06848285016109b1565b949350505050565b60008060408385031215610b20578182fd5b823567ffffffffffffffff811115610b36578283fd5b610b42858286016109b1565b95602094909401359450505050565b600080600060608486031215610b65578081fd5b833567ffffffffffffffff811115610b7b578182fd5b610b87868287016109b1565b9660208601359650604090950135949350505050565b60008251815b81811015610bbd5760208186018101518583015201610ba3565b81811115610bcb5782828501525b509190910192915050565b60008219821115610be957610be9610c05565b500190565b600082821015610c0057610c00610c05565b500390565b634e487b7160e01b600052601160045260246000fd5b634e487b7160e01b600052604160045260246000fdfea26469706673582212202993a8c122d956380644af8b682a6b79aab0ae55a137a0dd77fdf9d581a97cf764736f6c63430008040033",
  "devdoc": {
    "kind": "dev",
    "methods": {
      "getRoleAdmin(bytes32)": {
        "details": "Returns the admin role that controls `role`. See {grantRole} and {revokeRole}. To change a role's admin, use {_setRoleAdmin}."
      },
      "getRoleMember(bytes32,uint256)": {
        "details": "Returns one of the accounts that have `role`. `index` must be a value between 0 and {getRoleMemberCount}, non-inclusive. Role bearers are not sorted in any particular way, and their ordering may change at any point. WARNING: When using {getRoleMember} and {getRoleMemberCount}, make sure you perform all queries on the same block. See the following https://forum.openzeppelin.com/t/iterating-over-elements-on-enumerableset-in-openzeppelin-contracts/2296[forum post] for more information."
      },
      "getRoleMemberCount(bytes32)": {
        "details": "Returns the number of accounts that have `role`. Can be used together with {getRoleMember} to enumerate all bearers of a role."
      },
      "grantRole(bytes32,address)": {
        "details": "Overload {grantRole} to track enumerable memberships"
      },
      "hasRole(bytes32,address)": {
        "details": "Returns `true` if `account` has been granted `role`."
      },
      "renounceRole(bytes32,address)": {
        "details": "Overload {renounceRole} to track enumerable memberships"
      },
      "revokeRole(bytes32,address)": {
        "details": "Overload {revokeRole} to track enumerable memberships"
      },
      "supportsInterface(bytes4)": {
        "details": "See {IERC165-supportsInterface}."
      }
    },
    "version": 1
  },
  "userdoc": {
    "kind": "user",
    "methods": {},
    "version": 1
  },
  "storageLayout": {
    "storage": [
      {
        "astId": 578,
        "contract": "contracts/oracle/Oracle.sol:Oracle",
        "label": "_initialized",
        "offset": 0,
        "slot": "0",
        "type": "t_bool"
      },
      {
        "astId": 581,
        "contract": "contracts/oracle/Oracle.sol:Oracle",
        "label": "_initializing",
        "offset": 1,
        "slot": "0",
        "type": "t_bool"
      },
      {
        "astId": 1208,
        "contract": "contracts/oracle/Oracle.sol:Oracle",
        "label": "__gap",
        "offset": 0,
        "slot": "1",
        "type": "t_array(t_uint256)50_storage"
      },
      {
        "astId": 1365,
        "contract": "contracts/oracle/Oracle.sol:Oracle",
        "label": "__gap",
        "offset": 0,
        "slot": "51",
        "type": "t_array(t_uint256)50_storage"
      },
      {
        "astId": 306,
        "contract": "contracts/oracle/Oracle.sol:Oracle",
        "label": "_roles",
        "offset": 0,
        "slot": "101",
        "type": "t_mapping(t_bytes32,t_struct(RoleData)301_storage)"
      },
      {
        "astId": 570,
        "contract": "contracts/oracle/Oracle.sol:Oracle",
        "label": "__gap",
        "offset": 0,
        "slot": "102",
        "type": "t_array(t_uint256)49_storage"
      },
      {
        "astId": 62,
        "contract": "contracts/oracle/Oracle.sol:Oracle",
        "label": "_roleMembers",
        "offset": 0,
        "slot": "151",
        "type": "t_mapping(t_bytes32,t_struct(AddressSet)1666_storage)"
      },
      {
        "astId": 219,
        "contract": "contracts/oracle/Oracle.sol:Oracle",
        "label": "__gap",
        "offset": 0,
        "slot": "152",
        "type": "t_array(t_uint256)49_storage"
      },
      {
        "astId": 6655,
        "contract": "contracts/oracle/Oracle.sol:Oracle",
        "label": "price",
        "offset": 0,
        "slot": "201",
        "type": "t_mapping(t_string_memory_ptr,t_uint256)"
      },
      {
        "astId": 6661,
        "contract": "contracts/oracle/Oracle.sol:Oracle",
        "label": "historyPrice",
        "offset": 0,
        "slot": "202",
        "type": "t_mapping(t_string_memory_ptr,t_mapping(t_uint256,t_uint256))"
      },
      {
        "astId": 6664,
        "contract": "contracts/oracle/Oracle.sol:Oracle",
        "label": "ORACLE_ROLE",
        "offset": 0,
        "slot": "203",
        "type": "t_bytes32"
      }
    ],
    "types": {
      "t_address": {
        "encoding": "inplace",
        "label": "address",
        "numberOfBytes": "20"
      },
      "t_array(t_bytes32)dyn_storage": {
        "base": "t_bytes32",
        "encoding": "dynamic_array",
        "label": "bytes32[]",
        "numberOfBytes": "32"
      },
      "t_array(t_uint256)49_storage": {
        "base": "t_uint256",
        "encoding": "inplace",
        "label": "uint256[49]",
        "numberOfBytes": "1568"
      },
      "t_array(t_uint256)50_storage": {
        "base": "t_uint256",
        "encoding": "inplace",
        "label": "uint256[50]",
        "numberOfBytes": "1600"
      },
      "t_bool": {
        "encoding": "inplace",
        "label": "bool",
        "numberOfBytes": "1"
      },
      "t_bytes32": {
        "encoding": "inplace",
        "label": "bytes32",
        "numberOfBytes": "32"
      },
      "t_mapping(t_address,t_bool)": {
        "encoding": "mapping",
        "key": "t_address",
        "label": "mapping(address => bool)",
        "numberOfBytes": "32",
        "value": "t_bool"
      },
      "t_mapping(t_bytes32,t_struct(AddressSet)1666_storage)": {
        "encoding": "mapping",
        "key": "t_bytes32",
        "label": "mapping(bytes32 => struct EnumerableSetUpgradeable.AddressSet)",
        "numberOfBytes": "32",
        "value": "t_struct(AddressSet)1666_storage"
      },
      "t_mapping(t_bytes32,t_struct(RoleData)301_storage)": {
        "encoding": "mapping",
        "key": "t_bytes32",
        "label": "mapping(bytes32 => struct AccessControlUpgradeable.RoleData)",
        "numberOfBytes": "32",
        "value": "t_struct(RoleData)301_storage"
      },
      "t_mapping(t_bytes32,t_uint256)": {
        "encoding": "mapping",
        "key": "t_bytes32",
        "label": "mapping(bytes32 => uint256)",
        "numberOfBytes": "32",
        "value": "t_uint256"
      },
      "t_mapping(t_string_memory_ptr,t_mapping(t_uint256,t_uint256))": {
        "encoding": "mapping",
        "key": "t_string_memory_ptr",
        "label": "mapping(string => mapping(uint256 => uint256))",
        "numberOfBytes": "32",
        "value": "t_mapping(t_uint256,t_uint256)"
      },
      "t_mapping(t_string_memory_ptr,t_uint256)": {
        "encoding": "mapping",
        "key": "t_string_memory_ptr",
        "label": "mapping(string => uint256)",
        "numberOfBytes": "32",
        "value": "t_uint256"
      },
      "t_mapping(t_uint256,t_uint256)": {
        "encoding": "mapping",
        "key": "t_uint256",
        "label": "mapping(uint256 => uint256)",
        "numberOfBytes": "32",
        "value": "t_uint256"
      },
      "t_string_memory_ptr": {
        "encoding": "bytes",
        "label": "string",
        "numberOfBytes": "32"
      },
      "t_struct(AddressSet)1666_storage": {
        "encoding": "inplace",
        "label": "struct EnumerableSetUpgradeable.AddressSet",
        "members": [
          {
            "astId": 1665,
            "contract": "contracts/oracle/Oracle.sol:Oracle",
            "label": "_inner",
            "offset": 0,
            "slot": "0",
            "type": "t_struct(Set)1389_storage"
          }
        ],
        "numberOfBytes": "64"
      },
      "t_struct(RoleData)301_storage": {
        "encoding": "inplace",
        "label": "struct AccessControlUpgradeable.RoleData",
        "members": [
          {
            "astId": 298,
            "contract": "contracts/oracle/Oracle.sol:Oracle",
            "label": "members",
            "offset": 0,
            "slot": "0",
            "type": "t_mapping(t_address,t_bool)"
          },
          {
            "astId": 300,
            "contract": "contracts/oracle/Oracle.sol:Oracle",
            "label": "adminRole",
            "offset": 0,
            "slot": "1",
            "type": "t_bytes32"
          }
        ],
        "numberOfBytes": "64"
      },
      "t_struct(Set)1389_storage": {
        "encoding": "inplace",
        "label": "struct EnumerableSetUpgradeable.Set",
        "members": [
          {
            "astId": 1384,
            "contract": "contracts/oracle/Oracle.sol:Oracle",
            "label": "_values",
            "offset": 0,
            "slot": "0",
            "type": "t_array(t_bytes32)dyn_storage"
          },
          {
            "astId": 1388,
            "contract": "contracts/oracle/Oracle.sol:Oracle",
            "label": "_indexes",
            "offset": 0,
            "slot": "1",
            "type": "t_mapping(t_bytes32,t_uint256)"
          }
        ],
        "numberOfBytes": "64"
      },
      "t_uint256": {
        "encoding": "inplace",
        "label": "uint256",
        "numberOfBytes": "32"
      }
    }
  }
}