{
  "address": "0xCf7Ed3AccA5a467e9e704C703E8D87F634fB0Fc9",
  "abi": [
    {
      "inputs": [
        {
          "internalType": "bytes32",
          "name": "salt",
          "type": "bytes32"
        }
      ],
      "name": "createBattle",
      "outputs": [],
      "stateMutability": "nonpayable",
      "type": "function"
    },
    {
      "inputs": [
        {
          "internalType": "address",
          "name": "_collateral",
          "type": "address"
        },
        {
          "internalType": "string",
          "name": "_trackName",
          "type": "string"
        },
        {
          "internalType": "uint256",
          "name": "_peroidType",
          "type": "uint256"
        },
        {
          "internalType": "uint256",
          "name": "_settleType",
          "type": "uint256"
        },
        {
          "internalType": "uint256",
          "name": "_settleValue",
          "type": "uint256"
        }
      ],
      "name": "getBattleAddress",
      "outputs": [
        {
          "internalType": "address",
          "name": "",
          "type": "address"
        },
        {
          "internalType": "bytes32",
          "name": "",
          "type": "bytes32"
        }
      ],
      "stateMutability": "view",
      "type": "function"
    }
  ],
  "transactionHash": "0x00524f4ad119ff7b2e14eec3e55c6627261eecb67c1cc4061a7a2c6ccb485627",
  "args": [],
  "solcInputHash": "01a9835b1e8366a37cd227b8895365de",
  "bytecode": "0x608060405234801561001057600080fd5b506151d8806100206000396000f3fe608060405234801561001057600080fd5b50600436106100365760003560e01c80638fd28afc1461003b578063ae1fec9014610071575b600080fd5b61004e61004936600461028f565b610086565b604080516001600160a01b03909316835260208301919091520160405180910390f35b61008461007f366004610372565b610145565b005b600080600087878787876040516020016100a495949392919061038a565b6040516020818303038152906040528051906020012090506000604051806020016100ce90610282565b601f1982820381018352601f90910116604081815282516020938401206001600160f81b0319848401526bffffffffffffffffffffffff193060601b166021840152603583018690526055808401919091528151808403909101815260759092019052805191012099919850909650505050505050565b6101736000826040518060200161015b90610282565b601f1982820381018352601f90910116604052610177565b5050565b600080844710156101cf5760405162461bcd60e51b815260206004820152601d60248201527f437265617465323a20696e73756666696369656e742062616c616e636500000060448201526064015b60405180910390fd5b825161021d5760405162461bcd60e51b815260206004820181905260248201527f437265617465323a2062797465636f6465206c656e677468206973207a65726f60448201526064016101c6565b8383516020850187f590506001600160a01b03811661027a5760405162461bcd60e51b8152602060048201526019602482015278437265617465323a204661696c6564206f6e206465706c6f7960381b60448201526064016101c6565b949350505050565b614d968061040d83390190565b600080600080600060a086880312156102a6578081fd5b85356001600160a01b03811681146102bc578182fd5b9450602086013567ffffffffffffffff808211156102d8578283fd5b818801915088601f8301126102eb578283fd5b8135818111156102fd576102fd6103f6565b604051601f8201601f19908116603f01168101908382118183101715610325576103256103f6565b816040528281528b602084870101111561033d578586fd5b826020860160208301379182016020019490945296999698505050506040850135946060810135946080909101359350915050565b600060208284031215610383578081fd5b5035919050565b6bffffffffffffffffffffffff198660601b16815260008551815b818110156103c257602081890181015160148684010152016103a5565b818111156103d35782601483860101525b506014920191820194909452603481019290925260548201526074019392505050565b634e487b7160e01b600052604160045260246000fdfe6080604052670de05bc096e9c00060078190556200002690670de0b6b3a7640000620001c0565b6008553480156200003657600080fd5b50604080518082018252601881527f426174746c65204c697175696c696469747920546f6b656e00000000000000006020808301918252835180850190945260038452620424c560ec1b9084015281519192916200009791600c916200011a565b508051620000ad90600d9060208401906200011a565b5050506000620000c26200011660201b60201c565b601680546001600160a01b0319166001600160a01b038316908117909155604051919250906000907f8be0079c531659141344cd1fd0a4f28419497f9722a3daafe3b4186f6b6457e0908290a35062000221565b3390565b8280546200012890620001e4565b90600052602060002090601f0160209004810192826200014c576000855562000197565b82601f106200016757805160ff191683800117855562000197565b8280016001018555821562000197579182015b82811115620001975782518255916020019190600101906200017a565b50620001a5929150620001a9565b5090565b5b80821115620001a55760008155600101620001aa565b600082821015620001df57634e487b7160e01b81526011600452602481fd5b500390565b600181811c90821680620001f957607f821691505b602082108114156200021b57634e487b7160e01b600052602260045260246000fd5b50919050565b614b6580620002316000396000f3fe608060405234801561001057600080fd5b50600436106104e35760003560e01c806373cdc9551161028e578063b145a5b811610167578063e5591954116100d9578063f2fde38b11610092578063f2fde38b14610c68578063f46901ed14610c7b578063f6e0c8f614610c8e578063fa38601d14610ca1578063fc0afb4214610cb5578063fd3705f914610cd557600080fd5b8063e559195414610bc2578063e5cb8d8614610bd5578063e78ccc3914610be8578063e800bd4414610bfb578063ee0075e014610c1b578063efe8639414610c4657600080fd5b8063d019abba1161012b578063d019abba14610ae8578063d3bb6d6314610afb578063d923455b14610b0e578063dd62ed3e14610b2e578063dec966e914610b67578063e1237df014610b8757600080fd5b8063b145a5b814610a48578063b2016bd414610a5c578063b4f77f7114610a6f578063bc0d12c514610a9a578063c29bf54914610aba57600080fd5b80638da5cb5b1161020057806396eb6d0b116101c457806396eb6d0b146109d357806399b675bf146109dc5780639c8f9f23146109ef578063a345d92114610a02578063a457c2d714610a22578063a9059cbb14610a3557600080fd5b80638da5cb5b146109875780638e5698191461098f57806390a4cb9b146109af57806391a1adbe146109c257806395d89b41146109cb57600080fd5b80637fc65b96116102525780637fc65b9614610910578063821482e21461092357806384b1242714610943578063858e6e891461095857806388c3ffb01461096b57806389ef689d1461097e57600080fd5b806373cdc955146108b2578063747dff42146108bf57806376e8424f146108d45780637a917e54146108f45780637dc0d1d0146108fd57600080fd5b80633b1f18dd116103c057806351c6590a116103325780636db70830116102f65780636db70830146108565780636f307dc3146108695780636f4d2b671461087157806370a0823114610884578063715018a614610897578063728313c91461089f57600080fd5b806351c6590a146107f557806355756a1d1461080857806357b622e51461081057806358a01710146108235780635b2c44af1461083657600080fd5b806341744dd41161038457806341744dd4146107665780634484cc691461076f5780634975dc3f1461078f5780634e5b611e146107ba5780634e71d92d146107da5780634ec501b2146107e257600080fd5b80633b1f18dd146106ed5780633b6050471461070d5780633c45e7361461072d5780633cc1f54c1461074057806340dd37f61461075357600080fd5b80631f26255611610459578063313ce5671161041d578063313ce567146106705780633203ba771461067f57806333eca6341461068757806339509351146106a757806339bd0430146106ba5780633a8bcc91146106cd57600080fd5b80631f262556146105db5780631f38f5c6146105fb578063221937e01461061a57806323b872dd1461062d5780632bed99a31461064057600080fd5b80630d12872d116104ab5780630d12872d1461057c57806311da60b41461059c57806318160ddd146105a457806319f4ff2f146105ac5780631bd59029146105bf5780631bd5ff28146105c857600080fd5b8063017e7e58146104e857806306fdde031461051857806309300a331461052d578063095ea7b3146105445780630c7461d614610567575b600080fd5b6017546104fb906001600160a01b031681565b6040516001600160a01b0390911681526020015b60405180910390f35b610520610ce8565b60405161050f91906146c2565b61053660195481565b60405190815260200161050f565b6105576105523660046142e5565b610d7a565b604051901515815260200161050f565b61057a610575366004614186565b610d91565b005b61053661058a3660046143b0565b60146020526000908152604090205481565b61057a610e9f565b600b54610536565b61057a6105ba3660046143b0565b611076565b610536601f5481565b61057a6105d636600461413a565b6110aa565b6105366105e93660046143b0565b60296020526000908152604090205481565b601e5461060d90610100900460ff1681565b60405161050f9190614670565b6105366106283660046143b0565b6110fb565b61055761063b36600461425e565b611133565b61066361064e3660046143b0565b60156020526000908152604090205460ff1681565b60405161050f919061465d565b6040516012815260200161050f565b601a54610536565b6105366106953660046143b0565b60026020526000908152604090205481565b6105576106b53660046142e5565b6111e4565b61057a6106c836600461430e565b61121b565b6105366106db3660046143b0565b600e6020526000908152604090205481565b6105366106fb3660046143b0565b60066020526000908152604090205481565b61072061071b36600461413a565b611312565b60405161050f9190614607565b61057a61073b3660046143b0565b6113af565b61057a61074e3660046143b0565b611486565b6105366107613660046143b0565b61150a565b61053660185481565b61053661077d3660046143b0565b60106020526000908152604090205481565b61053661079d3660046143e0565b600360209081526000928352604080842090915290825290205481565b6105366107c83660046143b0565b60116020526000908152604090205481565b61057a611518565b6105366107f03660046143b0565b6115b1565b61057a6108033660046143b0565b6115bf565b61057a61162b565b61057a61081e3660046143b0565b611725565b6105366108313660046143b0565b6117fa565b6105366108443660046143b0565b60286020526000908152604090205481565b610720610864366004614299565b611832565b6105206118bc565b61053661087f3660046143b0565b61194a565b61053661089236600461413a565b611978565b61057a611993565b61057a6108ad3660046143b0565b611a0c565b601e546106639060ff1681565b6108c7611aa1565b60405161050f9190614864565b6108e76108e23660046142e5565b611ab9565b60405161050f9190614872565b61053660205481565b6026546104fb906001600160a01b031681565b61053661091e3660046143b0565b611b32565b6105366109313660046143b0565b60046020526000908152604090205481565b61094b611ba4565b60405161050f91906147ee565b6105366109663660046143b0565b611cff565b6108c76109793660046143b0565b611d0d565b61053660255481565b6104fb611d97565b61053661099d3660046143b0565b60056020526000908152604090205481565b6105366109bd3660046143b0565b611da6565b61053660215481565b610520611dc7565b61053660245481565b6105366109ea3660046143b0565b611dd6565b61057a6109fd3660046143b0565b611de4565b610536610a103660046143b0565b600f6020526000908152604090205481565b610557610a303660046142e5565b611e0c565b610557610a433660046142e5565b611ea7565b60265461055790600160a81b900460ff1681565b601c546104fb906001600160a01b031681565b610536610a7d3660046143e0565b600160209081526000928352604080842090915290825290205481565b610536610aa83660046143b0565b60136020526000908152604090205481565b610acd610ac83660046143b0565b611eb4565b6040805193845260208401929092529082015260600161050f565b610acd610af6366004614402565b611ed3565b61057a610b093660046143b0565b611fcd565b610b21610b1c36600461435d565b6120b8565b60405161050f91906145b9565b610536610b3c366004614154565b6001600160a01b039182166000908152600a6020908152604080832093909416825291909152205490565b610536610b753660046143b0565b60006020819052908152604090205481565b610b9a610b95366004614402565b61213a565b604080519586526020860194909452928401919091526060830152608082015260a00161050f565b610b9a610bd03660046143b0565b612250565b610536610be33660046143b0565b612276565b610536610bf63660046143b0565b6122a5565b610536610c093660046143b0565b60126020526000908152604090205481565b610536610c293660046143e0565b602760209081526000928352604080842090915290825290205481565b610c59610c5436600461413a565b6122d6565b60405161050f93929190614893565b61057a610c7636600461413a565b6123be565b61057a610c8936600461413a565b6124ae565b61057a610c9c3660046143b0565b6124ff565b60265461055790600160a01b900460ff1681565b610536610cc336600461413a565b60226020526000908152604090205481565b601b546104fb906001600160a01b031681565b6060600c8054610cf790614a6a565b80601f0160208091040260200160405190810160405280929190818152602001828054610d2390614a6a565b8015610d705780601f10610d4557610100808354040283529160200191610d70565b820191906000526020600020905b815481529060010190602001808311610d5357829003601f168201915b5050505050905090565b6000610d8733848461252a565b5060015b92915050565b602654600160a01b900460ff1615610dd85760405162461bcd60e51b81526020600482015260056024820152640696e6974360dc1b60448201526064015b60405180910390fd5b6026805460ff60a01b1916600160a01b179055601c80546001600160a01b038089166001600160a01b031992831617909255601b8054928816929091169190911790558351610e2e90601d906020870190613fac565b50601e805484919060ff19166001836002811115610e5c57634e487b7160e01b600052602160045260246000fd5b0217905550601e805483919061ff001916610100836003811115610e9057634e487b7160e01b600052602160045260246000fd5b0217905550601f555050505050565b601954600090815260116020526040902054421015610eec5760405162461bcd60e51b8152602060048201526009602482015268746f6f206561726c7960b81b6044820152606401610dcf565b60195460009081526015602052604081205460ff166002811115610f2057634e487b7160e01b600052602160045260246000fd5b14610f575760405162461bcd60e51b81526020600482015260076024820152661cd95d1d1b195960ca1b6044820152606401610dcf565b6026546019546000908152601160205260408082205490516359fb1e3d60e11b815291926001600160a01b03169163b3f63c7a91610f9b91601d91906004016146d5565b60206040518083038186803b158015610fb357600080fd5b505afa158015610fc7573d6000803e3d6000fd5b505050506040513d601f19601f82011682018060405250810190610feb91906143c8565b90508061100a5760405162461bcd60e51b8152600401610dcf90614726565b6019546000908152600f6020526040902081905561102661264f565b6000806110316128b8565b9150915061105430602860006019548152602001908152602001600020546129ea565b601954600090815260296020526040902081905561107182612b27565b505050565b3361107f611d97565b6001600160a01b0316146110a55760405162461bcd60e51b8152600401610dcf9061474b565b601855565b336110b3611d97565b6001600160a01b0316146110d95760405162461bcd60e51b8152600401610dcf9061474b565b601b80546001600160a01b0319166001600160a01b0392909216919091179055565b60008181526001602090815260408083203084528252808320548484526004909252822054829161112c9190612dc7565b9392505050565b6000611140848484612de9565b6001600160a01b0384166000908152600a60209081526040808320338452909152902054828110156111c55760405162461bcd60e51b815260206004820152602860248201527f45524332303a207472616e7366657220616d6f756e74206578636565647320616044820152676c6c6f77616e636560c01b6064820152608401610dcf565b6111d985336111d48685614a27565b61252a565b506001949350505050565b336000818152600a602090815260408083206001600160a01b03871684529091528120549091610d879185906111d49086906148e5565b6019546001600160a01b038616600090815260236020526040902086916112429190612faf565b61126c576019546001600160a01b038216600090815260236020526040902061126a91612fc7565b505b602654600160a81b900460ff16156112af5760405162461bcd60e51b8152600401610dcf906020808252600490820152631a5b9a5d60e21b604082015260600190565b60268054600161ff0160a01b0319166001600160a01b03841617600160a81b179055602084905560218390556112e485612b27565b6019546001600160a01b03871660009081526022602052604090205561130a8686612fd3565b505050505050565b606060005b6001600160a01b0383166000908152602360205260409020611338906130a0565b8110156113a9576001600160a01b03831660009081526023602052604081206113679085906108e290856130aa565b90508083838151811061138a57634e487b7160e01b600052603260045260246000fd5b60200260200101819052505080806113a190614a9f565b915050611317565b50919050565b33600090815260226020526040902054156113cc576113cc611518565b60195433600081815260236020526040902090916113ea9190612faf565b611414576019546001600160a01b038216600090815260236020526040902061141291612fc7565b505b600061142b601854846130b690919063ffffffff16565b9050611444601954828561143f9190614a27565b6130d8565b61146733306114538487614a27565b601c546001600160a01b03169291906131f7565b601754601c54611071916001600160a01b0391821691339116846131f7565b33600090815260226020526040902054156114a3576114a3611518565b60006114b160195483613268565b905060006114ca601854836130b690919063ffffffff16565b90506114ed336114da8385614a27565b601c546001600160a01b031691906132b8565b601754601c54611071916001600160a01b039182169116836132b8565b6000610d8b601954836132e8565b600080611524336122d6565b9250509150806000141561156e5760405162461bcd60e51b815260206004820152601160248201527073706561722f736869656c64207a65726f60781b6044820152606401610dcf565b611579823383613322565b6115848233836133be565b33600081815260226020526040812055601c546115ad916001600160a01b0390911690836132b8565b5050565b6000610d8b6019548361344d565b60195433600081815260236020526040902090916115dd9190612faf565b611607576019546001600160a01b038216600090815260236020526040902061160591612fc7565b505b6116136019548361347f565b601c546115ad906001600160a01b03163330856131f7565b336000908152602a602052604081208190611645906130a0565b9050806116865760405162461bcd60e51b815260206004820152600f60248201526e139bdd08105c1c1bda5b9d1b595b9d608a1b6044820152606401610dcf565b60005b8181101561170d57336000908152602a602052604081206116aa90836130aa565b6000818152602860209081526040808320546027835281842033855283528184205485855260299093529220549293506116ed926116e7916130b6565b90612dc7565b6116f790856148e5565b935050808061170590614a9f565b915050611689565b50601c546115ad906001600160a01b031633846132b8565b60255461173133611978565b101561176f5760405162461bcd60e51b815260206004820152600d60248201526c06e6f7420656e6f756768206c7609c1b6044820152606401610dcf565b670de0b6b3a764000081106117965760405162461bcd60e51b8152600401610dcf90614726565b60208190556117ad81670de0b6b3a7640000614a27565b60218190556020805460408051338152928301919091528101919091527ff6b8a92f9bdaf1c98998652be215c78364778cd8decd80347d680b38b0a09bbc9060600160405180910390a150565b6000818152600560209081526040808320546004835281842054600690935290832054909161182891614a27565b610d8b9190614a27565b606060005b82518110156118b55760006118738585848151811061186657634e487b7160e01b600052603260045260246000fd5b6020026020010151611ab9565b90508083838151811061189657634e487b7160e01b600052603260045260246000fd5b60200260200101819052505080806118ad90614a9f565b915050611837565b5092915050565b601d80546118c990614a6a565b80601f01602080910402602001604051908101604052809291908181526020018280546118f590614a6a565b80156119425780601f1061191757610100808354040283529160200191611942565b820191906000526020600020905b81548152906001019060200180831161192557829003601f168201915b505050505081565b600081815260016020908152604080832030845282528083205484845291839052822054610d8b9190614a27565b6001600160a01b031660009081526009602052604090205490565b3361199c611d97565b6001600160a01b0316146119c25760405162461bcd60e51b8152600401610dcf9061474b565b6016546040516000916001600160a01b0316907f8be0079c531659141344cd1fd0a4f28419497f9722a3daafe3b4186f6b6457e0908390a3601680546001600160a01b0319169055565b3360009081526022602052604090205415611a2957611a29611518565b6019543360008181526023602052604090209091611a479190612faf565b611a71576019546001600160a01b0382166000908152602360205260409020611a6f91612fc7565b505b6000611a88601854846130b690919063ffffffff16565b90506114446019548285611a9c9190614a27565b6134d8565b611aa9614030565b611ab4601954611d0d565b905090565b611add60405180606001604052806000815260200160008152602001600081525090565b50604080516060810182528281526000838152600160209081528382206001600160a01b0387168084529082528483205482850152858352600382528483209083529052829020549181019190915292915050565b60008181526010602090815260408083205460119092528220548291611b7691611b5c9190614a27565b6000858152601160205260409020546116e7904290614a27565b611b8890670de0b6b3a7640000614a27565b9050611b93816135b5565b61112c90662386f26fc10000614a08565b611bde6040805160c08101825260608152600060208201819052909182019081526020016000815260200160008152602001600081525090565b6040518060c00160405280601d8054611bf690614a6a565b80601f0160208091040260200160405190810160405280929190818152602001828054611c2290614a6a565b8015611c6f5780601f10611c4457610100808354040283529160200191611c6f565b820191906000526020600020905b815481529060010190602001808311611c5257829003601f168201915b5050509183525050601c546001600160a01b03166020820152601e5460409091019060ff166002811115611cb357634e487b7160e01b600052602160045260246000fd5b8152602001601e60019054906101000a900460ff166003811115611ce757634e487b7160e01b600052602160045260246000fd5b8152602001601f548152602001601854815250905090565b6000610d8b6019548361361f565b611d15614030565b6040518060e00160405280611d29846110fb565b8152602001611d37846122a5565b815260008481526012602090815260408083205482850152868352601382528083205481850152868352601482528083205460608501528683526010825280832054608085015295825260119052939093205460a0909301929092525090565b6016546001600160a01b031690565b601a8181548110611db657600080fd5b600091825260209091200154905081565b6060600d8054610cf790614a6a565b6000610d8b6019548361364c565b6000611df260195483613679565b601c549091506115ad906001600160a01b031633836132b8565b336000908152600a602090815260408083206001600160a01b038616845290915281205482811015611e8e5760405162461bcd60e51b815260206004820152602560248201527f45524332303a2064656372656173656420616c6c6f77616e63652062656c6f77604482015264207a65726f60d81b6064820152608401610dcf565b611e9d33856111d48685614a27565b5060019392505050565b6000610d87338484612de9565b6000806000611ec560195485611ed3565b9250925092505b9193909250565b600080600080611ee28661194a565b90506000611eef87612276565b90506000818311611f005781611f02565b825b9050611f36611f10600b5490565b60008a8152600660205260409020546116e7908a90611f30908690614a27565b906130b6565b9550611f5d611f4489611b32565b611f5690670de0b6b3a7640000614a27565b87906130b6565b9550611f8f611f6b600b5490565b60008a81526001602090815260408083203084529091529020546116e7908a6130b6565b9450611fc1611f9d600b5490565b60008a81526003602090815260408083203084529091529020546116e7908a6130b6565b93505050509250925092565b6000611fd833611978565b90508181101561201a5760405162461bcd60e51b815260206004820152600d60248201526c04e6f7420456e6f756768204c5609c1b6044820152606401610dcf565b6019546000908152602760209081526040808320338452909152812080548392906120469084906148e5565b90915550506019546000908152602860205260408120805483929061206c9084906148e5565b9091555050601954336000908152602a6020526040902061208c91612faf565b6120ad57601954336000908152602a602052604090206120ab91612fc7565b505b611071333084611133565b606060005b82518110156113a95760006120f88483815181106120eb57634e487b7160e01b600052603260045260246000fd5b6020026020010151611d0d565b90508083838151811061211b57634e487b7160e01b600052603260045260246000fd5b602002602001018190525050808061213290614a9f565b9150506120bd565b600082815260056020908152604080832054600490925282205482918291829182918291612167916148e5565b6000898152600460205260409020549091506121899082906116e7908a6130b6565b6000898152600560205260409020549096506121ab9082906116e7908a6130b6565b60008981526001602090815260408083203084529091529020549095506121d89082906116e7908a6130b6565b60008981526003602090815260408083203084529091529020549094506122059082906116e7908a6130b6565b9250612210600b5490565b61221c57869150612245565b600088815260066020526040902054612242906116e761223b600b5490565b8a906130b6565b91505b509295509295909350565b60008060008060006122646019548761213a565b939a9299509097509550909350915050565b60008181526003602090815260408083203084528252808320548484526002909252822054610d8b9190614a27565b60008181526003602090815260408083203084528252808320548484526005909252822054829161112c9190612dc7565b6001600160a01b0381166000908152602260209081526040808320548084526015909252822054909160ff909116908215801590612315575060195483105b15611ecc57600182600281111561233c57634e487b7160e01b600052602160045260246000fd5b141561236b575060008281526001602090815260408083206001600160a01b0387168452909152902054611ecc565b600282600281111561238d57634e487b7160e01b600052602160045260246000fd5b1415611ecc575060008281526003602090815260408083206001600160a01b03871684529091529020549193909250565b336123c7611d97565b6001600160a01b0316146123ed5760405162461bcd60e51b8152600401610dcf9061474b565b6001600160a01b0381166124525760405162461bcd60e51b815260206004820152602660248201527f4f776e61626c653a206e6577206f776e657220697320746865207a65726f206160448201526564647265737360d01b6064820152608401610dcf565b6016546040516001600160a01b038084169216907f8be0079c531659141344cd1fd0a4f28419497f9722a3daafe3b4186f6b6457e090600090a3601680546001600160a01b0319166001600160a01b0392909216919091179055565b336124b7611d97565b6001600160a01b0316146124dd5760405162461bcd60e51b8152600401610dcf9061474b565b601780546001600160a01b0319166001600160a01b0392909216919091179055565b336000908152602260205260409020541561251c5761251c611518565b60006114b160195483613763565b6001600160a01b03831661258c5760405162461bcd60e51b8152602060048201526024808201527f45524332303a20617070726f76652066726f6d20746865207a65726f206164646044820152637265737360e01b6064820152608401610dcf565b6001600160a01b0382166125ed5760405162461bcd60e51b815260206004820152602260248201527f45524332303a20617070726f766520746f20746865207a65726f206164647265604482015261737360f01b6064820152608401610dcf565b6001600160a01b038381166000818152600a602090815260408083209487168084529482529182902085905590518481527f8c5be1e5ebec7d5bd14f71427d1e84f3dd0314c0f7b2291e5b200ac8c7c3b92591015b60405180910390a3505050565b6000601e54610100900460ff16600381111561267b57634e487b7160e01b600052602160045260246000fd5b141561271557601954600090815260136020908152604080832054600f909252909120541015806126c85750601954600090815260146020908152604080832054600f9092529091205411155b156126f257601954600090815260156020526040902080546001919060ff191682805b0217905550565b601954600090815260156020526040902080546002919060ff19166001836126eb565b6001601e54610100900460ff16600381111561274157634e487b7160e01b600052602160045260246000fd5b141561278c57601954600090815260136020908152604080832054600f90925290912054106126f257601954600090815260156020526040902080546001919060ff191682806126eb565b6002601e54610100900460ff1660038111156127b857634e487b7160e01b600052602160045260246000fd5b141561280357601954600090815260146020908152604080832054600f90925290912054106126f257601954600090815260156020526040902080546001919060ff191682806126eb565b6003601e54610100900460ff16600381111561282f57634e487b7160e01b600052602160045260246000fd5b141561287a57601954600090815260126020908152604080832054600f90925290912054106126f257601954600090815260156020526040902080546001919060ff191682806126eb565b60405162461bcd60e51b8152602060048201526013602482015272756e6b6e6f776e20736574746c65207479706560681b6044820152606401610dcf565b600080600160195460009081526015602052604090205460ff1660028111156128f157634e487b7160e01b600052602160045260246000fd5b14156129255761290260195461194a565b60195460009081526006602052604090205461291e9190614a27565b91506129af565b600260195460009081526015602052604090205460ff16600281111561295b57634e487b7160e01b600052602160045260246000fd5b141561296c57612902601954612276565b60405162461bcd60e51b81526020600482015260186024820152771b9bdd0818dbdc9c9958dd081c9bdd5b99081c995cdd5b1d60421b6044820152606401610dcf565b6129d86129bb600b5490565b6019546000908152602860205260409020546116e79085906130b6565b90506129e48183614a27565b91509091565b6001600160a01b038216612a4a5760405162461bcd60e51b815260206004820152602160248201527f45524332303a206275726e2066726f6d20746865207a65726f206164647265736044820152607360f81b6064820152608401610dcf565b6001600160a01b03821660009081526009602052604090205481811015612abe5760405162461bcd60e51b815260206004820152602260248201527f45524332303a206275726e20616d6f756e7420657863656564732062616c616e604482015261636560f01b6064820152608401610dcf565b612ac88282614a27565b6001600160a01b038416600090815260096020526040812091909155600b8054849290612af6908490614a27565b90915550506040518281526000906001600160a01b03851690600080516020614b1083398151915290602001612642565b602654601e5460009182916001600160a01b039091169063f3c9f8f79060ff166002811115612b6657634e487b7160e01b600052602160045260246000fd5b6040518263ffffffff1660e01b8152600401612b8491815260200190565b604080518083038186803b158015612b9b57600080fd5b505afa158015612baf573d6000803e3d6000fd5b505050506040513d601f19601f82011682018060405250810190612bd39190614423565b6019829055601a805460018101825560009182527f057c384a7d1c54f3a1b2e5e67b2617b8224fdfd1ea7234eea573a6ff665ff63e01839055602654601e54939550919350918291829182916001600160a01b03169063d39f696490601d9060ff166002811115612c5457634e487b7160e01b600052602160045260246000fd5b601e54610100900460ff166003811115612c7e57634e487b7160e01b600052602160045260246000fd5b601f546040518563ffffffff1660e01b8152600401612ca094939291906146f7565b60806040518083038186803b158015612cb857600080fd5b505afa158015612ccc573d6000803e3d6000fd5b505050506040513d601f19601f82011682018060405250810190612cf09190614446565b9350935093509350612d0560195430896137b0565b612d12601954308961383f565b612d32601954612d2d896020546130b690919063ffffffff16565b6138ce565b612d52601954612d4d896021546130b690919063ffffffff16565b613918565b601980546000908152600e6020908152604080832097909755825482526010815286822098909855815481526011885285812096909655805486526012875284862093909355825485526013865283852091909155815484526014855282842055548252601590925220805460ff1916905550565b600061112c82612de3612ddc6012600a614960565b8690613936565b90613942565b6001600160a01b038316612e4d5760405162461bcd60e51b815260206004820152602560248201527f45524332303a207472616e736665722066726f6d20746865207a65726f206164604482015264647265737360d81b6064820152608401610dcf565b6001600160a01b038216612eaf5760405162461bcd60e51b815260206004820152602360248201527f45524332303a207472616e7366657220746f20746865207a65726f206164647260448201526265737360e81b6064820152608401610dcf565b6001600160a01b03831660009081526009602052604090205481811015612f275760405162461bcd60e51b815260206004820152602660248201527f45524332303a207472616e7366657220616d6f756e7420657863656564732062604482015265616c616e636560d01b6064820152608401610dcf565b612f318282614a27565b6001600160a01b038086166000908152600960205260408082209390935590851681529081208054849290612f679084906148e5565b92505081905550826001600160a01b0316846001600160a01b0316600080516020614b1083398151915284604051612fa191815260200190565b60405180910390a350505050565b6000818152600183016020526040812054151561112c565b600061112c838361394e565b6001600160a01b0382166130295760405162461bcd60e51b815260206004820152601f60248201527f45524332303a206d696e7420746f20746865207a65726f2061646472657373006044820152606401610dcf565b80600b600082825461303b91906148e5565b90915550506001600160a01b038216600090815260096020526040812080548392906130689084906148e5565b90915550506040518181526001600160a01b03831690600090600080516020614b108339815191529060200160405180910390a35050565b6000610d8b825490565b600061112c838361399d565b60006130c46012600a614960565b6130ce8484613936565b61112c91906148fd565b60006130e4838361361f565b600084815260016020908152604080832030808552908352818420548885526003845282852091855292529091205460075492935090916131416131288585614a27565b6000888152600460205260409020546116e790886148e5565b106131b7576131718561315f846007546130b690919063ffffffff16565b60009182526004602052604090912055565b61317b8585613a31565b61318785303386613a4f565b6131b2856131a0836008546130b690919063ffffffff16565b60009182526005602052604090912055565b6131f0565b6131c185856138ce565b6131cd85303386613a4f565b6131f0856131a0836131de896110fb565b611f3090670de0b6b3a7640000614a27565b5050505050565b6040516001600160a01b03808516602483015283166044820152606481018290526132629085906323b872dd60e01b906084015b60408051601f198184030181529190526020810180516001600160e01b03166001600160e01b031990931692909217909152613b4e565b50505050565b600061327483836132e8565b600084815260016020908152604080832030845290915290205490915061329b8483613c20565b6132a784333086613c61565b6118b58461315f836131de886122a5565b6040516001600160a01b03831660248201526044810182905261107190849063a9059cbb60e01b9060640161322b565b6000828152600360209081526040808320308452825280832054858452600590925282205461331a9084908390613d52565b949350505050565b60008381526001602090815260408083206001600160a01b038616845290915281208054839290613354908490614a27565b909155505060008381526020819052604081208054839290613377908490614a27565b90915550506040517fe1b6e34006e9871307436c226f232f9c5e7690c1d2c4f4adda4f607a75a9beca906133b190600090859085906146a3565b60405180910390a1505050565b60008381526003602090815260408083206001600160a01b0386168452909152812080548392906133f0908490614a27565b909155505060008381526002602052604081208054839290613413908490614a27565b90915550506040517fe1b6e34006e9871307436c226f232f9c5e7690c1d2c4f4adda4f607a75a9beca906133b190600190859085906146a3565b6000828152600160209081526040808320308452825280832054858452600490925282205461331a9084908390613d52565b6000806000806000613491878761213a565b945094509450945094506134a587866138ce565b6134af8785613918565b6134ba8733856137b0565b6134c587338461383f565b6134cf3382612fd3565b50505050505050565b60006134e4838361364c565b600084815260016020908152604080832030808552908352818420548885526003845282852091855292529091205460075492935090916135416135288584614a27565b6000888152600560205260409020546116e790886148e5565b1061358e5761355f856131a0836007546130b690919063ffffffff16565b6135698585613a31565b61357585303386613c61565b6131b28561315f846008546130b690919063ffffffff16565b6135988585613918565b6135a485303386613c61565b6131f08561315f836131de896122a5565b6000600382111561361057508060006135cf6002836148fd565b6135da9060016148e5565b90505b818110156113a9579050806002816135f581866148fd565b6135ff91906148e5565b61360991906148fd565b90506135dd565b811561361a575060015b919050565b6000828152600460209081526040808320546001835281842030855290925282205461112c918491613d83565b6000828152600560209081526040808320546003835281842030855290925282205461112c918491613d83565b6000806000806136898686611ed3565b6000898152600660209081526040808320546004909252822054949750929550909350916136bd91906116e79087906130b6565b600088815260066020908152604080832054600590925282205492935090916136ec91906116e79088906130b6565b60008981526006602052604081205491925090613716906116e761370f8c6117fa565b89906130b6565b90506137228984613e65565b61372c8983613c20565b6137368982613e83565b613741893087613322565b61374c8930866133be565b61375633896129ea565b5093979650505050505050565b6000828152600360209081526040808320308452909152812054613787848461344d565b91506137938483613e65565b61379f84333086613a4f565b6118b5846131a0836131de886110fb565b60008381526001602090815260408083206001600160a01b0386168452909152812080548392906137e29084906148e5565b9091555050600083815260208190526040812080548392906138059084906148e5565b90915550506040517f4e3883c75cc9c752bb1db2e406a822e4a75067ae77ad9a0a4d179f2709b9e1f6906133b190600090859085906146a3565b60008381526003602090815260408083206001600160a01b0386168452909152812080548392906138719084906148e5565b9091555050600083815260026020526040812080548392906138949084906148e5565b90915550506040517f4e3883c75cc9c752bb1db2e406a822e4a75067ae77ad9a0a4d179f2709b9e1f6906133b190600190859085906146a3565b600082815260046020526040812080548392906138ec9084906148e5565b90915550506000828152600660205260408120805483929061390f9084906148e5565b90915550505050565b600082815260056020526040812080548392906138ec9084906148e5565b600061112c8284614a08565b600061112c82846148fd565b600081815260018301602052604081205461399557508154600181810184556000848152602080822090930184905584548482528286019093526040902091909155610d8b565b506000610d8b565b815460009082106139fb5760405162461bcd60e51b815260206004820152602260248201527f456e756d657261626c655365743a20696e646578206f7574206f6620626f756e604482015261647360f01b6064820152608401610dcf565b826000018281548110613a1e57634e487b7160e01b600052603260045260246000fd5b9060005260206000200154905092915050565b6000828152600660205260408120805483929061390f9084906148e5565b6001600160a01b038316613a755760405162461bcd60e51b8152600401610dcf90614780565b6001600160a01b038216613a9b5760405162461bcd60e51b8152600401610dcf906147b7565b60008481526001602090815260408083206001600160a01b038716845290915281208054839290613acd908490614a27565b909155505060008481526001602090815260408083206001600160a01b038616845290915281208054839290613b049084906148e5565b90915550506040517ff2dbd98d79f00f7aff338b824931d607bfcc63d47307162470f25a055102d3b090613b409060009086908690869061467e565b60405180910390a150505050565b6000613ba3826040518060400160405280602081526020017f5361666545524332303a206c6f772d6c6576656c2063616c6c206661696c6564815250856001600160a01b0316613ea19092919063ffffffff16565b8051909150156110715780806020019051810190613bc19190614390565b6110715760405162461bcd60e51b815260206004820152602a60248201527f5361666545524332303a204552433230206f7065726174696f6e20646964206e6044820152691bdd081cdd58d8d9595960b21b6064820152608401610dcf565b60008281526005602052604081208054839290613c3e908490614a27565b90915550506000828152600660205260408120805483929061390f908490614a27565b6001600160a01b038316613c875760405162461bcd60e51b8152600401610dcf90614780565b6001600160a01b038216613cad5760405162461bcd60e51b8152600401610dcf906147b7565b60008481526003602090815260408083206001600160a01b038716845290915281208054839290613cdf908490614a27565b909155505060008481526003602090815260408083206001600160a01b038616845290915281208054839290613d169084906148e5565b90915550506040517ff2dbd98d79f00f7aff338b824931d607bfcc63d47307162470f25a055102d3b090613b409060019086908690869061467e565b600080613d5f8584614a08565b90506000613d6d86866148e5565b9050613d7981836148fd565b9695505050505050565b6000670de05bc096e9c000613d988484612dc7565b10613da457508261112c565b6000613dca613dbb612710612de38661270f613936565b613dc59086614a08565b6135b5565b90506000613ded613de361270f612de387612710613936565b613dc59087614a08565b905081613dfa86886148e5565b1115613e3457848287613e0d8488614a27565b613e1791906148e5565b613e219190614a27565b613e2b91906148e5565b9250505061112c565b6000613e408786614a08565b90506000613e4e88886148e5565b9050613e5a81836148fd565b94505050505061112c565b60008281526004602052604081208054839290613c3e908490614a27565b6000828152600660205260408120805483929061390f908490614a27565b606061331a848460008585843b613efa5760405162461bcd60e51b815260206004820152601d60248201527f416464726573733a2063616c6c20746f206e6f6e2d636f6e74726163740000006044820152606401610dcf565b600080866001600160a01b03168587604051613f16919061459d565b60006040518083038185875af1925050503d8060008114613f53576040519150601f19603f3d011682016040523d82523d6000602084013e613f58565b606091505b5091509150613f68828286613f73565b979650505050505050565b60608315613f8257508161112c565b825115613f925782518084602001fd5b8160405162461bcd60e51b8152600401610dcf91906146c2565b828054613fb890614a6a565b90600052602060002090601f016020900481019282613fda5760008555614020565b82601f10613ff357805160ff1916838001178555614020565b82800160010185558215614020579182015b82811115614020578251825591602001919060010190614005565b5061402c92915061406d565b5090565b6040518060e00160405280600081526020016000815260200160008152602001600081526020016000815260200160008152602001600081525090565b5b8082111561402c576000815560010161406e565b80356001600160a01b038116811461361a57600080fd5b600082601f8301126140a9578081fd5b8135602067ffffffffffffffff8211156140c5576140c5614ae6565b8160051b6140d48282016148b4565b8381528281019086840183880185018910156140ee578687fd5b8693505b858410156141105780358352600193909301929184019184016140f2565b50979650505050505050565b80356003811061361a57600080fd5b80356004811061361a57600080fd5b60006020828403121561414b578081fd5b61112c82614082565b60008060408385031215614166578081fd5b61416f83614082565b915061417d60208401614082565b90509250929050565b60008060008060008060c0878903121561419e578182fd5b6141a787614082565b955060206141b6818901614082565b9550604088013567ffffffffffffffff808211156141d2578485fd5b818a0191508a601f8301126141e5578485fd5b8135818111156141f7576141f7614ae6565b614209601f8201601f191685016148b4565b91508082528b8482850101111561421e578586fd5b8084840185840137810190920184905250935061423d6060880161411c565b925061424b6080880161412b565b915060a087013590509295509295509295565b600080600060608486031215614272578283fd5b61427b84614082565b925061428960208501614082565b9150604084013590509250925092565b600080604083850312156142ab578182fd5b6142b483614082565b9150602083013567ffffffffffffffff8111156142cf578182fd5b6142db85828601614099565b9150509250929050565b600080604083850312156142f7578182fd5b61430083614082565b946020939093013593505050565b600080600080600060a08688031215614325578081fd5b61432e86614082565b945060208601359350604086013592506060860135915061435160808701614082565b90509295509295909350565b60006020828403121561436e578081fd5b813567ffffffffffffffff811115614384578182fd5b61331a84828501614099565b6000602082840312156143a1578081fd5b8151801515811461112c578182fd5b6000602082840312156143c1578081fd5b5035919050565b6000602082840312156143d9578081fd5b5051919050565b600080604083850312156143f2578182fd5b8235915061417d60208401614082565b60008060408385031215614414578182fd5b50508035926020909101359150565b60008060408385031215614435578182fd5b505080516020909101519092909150565b6000806000806080858703121561445b578182fd5b505082516020840151604085015160609095015191969095509092509050565b6004811061448b5761448b614ad0565b9052565b600081518084526144a7816020860160208601614a3e565b601f01601f19169290920160200192915050565b8054600090600181811c90808316806144d557607f831692505b60208084108214156144f557634e487b7160e01b86526022600452602486fd5b8388526020880182801561451057600181146145215761454c565b60ff1987168252828201975061454c565b60008981526020902060005b878110156145465781548482015290860190840161452d565b83019850505b5050505050505092915050565b805182526020810151602083015260408101516040830152606081015160608301526080810151608083015260a081015160a083015260c081015160c08301525050565b600082516145af818460208701614a3e565b9190910192915050565b6020808252825182820181905260009190848201906040850190845b818110156145fb576145e8838551614559565b9284019260e092909201916001016145d5565b50909695505050505050565b6020808252825182820181905260009190848201906040850190845b818110156145fb5761464a8385518051825260208082015190830152604090810151910152565b9284019260609290920191600101614623565b6020810161466a83614afc565b91905290565b60208101610d8b828461447b565b9384526001600160a01b03928316602085015291166040830152606082015260800190565b9283526001600160a01b03919091166020830152604082015260600190565b60208152600061112c602083018461448f565b6040815260006146e860408301856144bb565b90508260208301529392505050565b60808152600061470a60808301876144bb565b6020830195909552506040810192909252606090910152919050565b6020808252600b908201526a383934b1b29032b93937b960a91b604082015260600190565b6020808252818101527f4f776e61626c653a2063616c6c6572206973206e6f7420746865206f776e6572604082015260600190565b6020808252601d908201527f66726f6d2073686f756c64206e6f742062652061646472657373283029000000604082015260600190565b6020808252601b908201527f746f2073686f756c64206e6f7420626520616464726573732830290000000000604082015260600190565b602081526000825160c0602084015261480a60e084018261448f565b905060018060a01b036020850151166040840152604084015161482c81614afc565b806060850152506060840151614845608085018261447b565b50608084015160a084015260a084015160c08401528091505092915050565b60e08101610d8b8284614559565b81518152602080830151908201526040808301519082015260608101610d8b565b838152606081016148a384614afc565b602082019390935260400152919050565b604051601f8201601f1916810167ffffffffffffffff811182821017156148dd576148dd614ae6565b604052919050565b600082198211156148f8576148f8614aba565b500190565b60008261491857634e487b7160e01b81526012600452602481fd5b500490565b600181815b8085111561495857816000190482111561493e5761493e614aba565b8085161561494b57918102915b93841c9390800290614922565b509250929050565b600061112c838360008261497657506001610d8b565b8161498357506000610d8b565b816001811461499957600281146149a3576149bf565b6001915050610d8b565b60ff8411156149b4576149b4614aba565b50506001821b610d8b565b5060208310610133831016604e8410600b84101617156149e2575081810a610d8b565b6149ec838361491d565b8060001904821115614a0057614a00614aba565b029392505050565b6000816000190483118215151615614a2257614a22614aba565b500290565b600082821015614a3957614a39614aba565b500390565b60005b83811015614a59578181015183820152602001614a41565b838111156132625750506000910152565b600181811c90821680614a7e57607f821691505b602082108114156113a957634e487b7160e01b600052602260045260246000fd5b6000600019821415614ab357614ab3614aba565b5060010190565b634e487b7160e01b600052601160045260246000fd5b634e487b7160e01b600052602160045260246000fd5b634e487b7160e01b600052604160045260246000fd5b60038110614b0c57614b0c614ad0565b5056feddf252ad1be2c89b69c2b068fc378daa952ba7f163c4a11628f55a4df523b3efa26469706673582212202bf86c9ca4a0729e7247dd0e31234f35dba417299fec070eeed87b558881f4a964736f6c63430008040033a2646970667358221220e9aef23d2f4bf7755a3f41e6efc70e8cb5d1489031ba690c2fee990d7f20dd8064736f6c63430008040033",
  "devdoc": {
    "kind": "dev",
    "methods": {},
    "version": 1
  },
  "userdoc": {
    "kind": "user",
    "methods": {},
    "version": 1
  },
  "storageLayout": {
    "storage": [],
    "types": null
  }
}