{
  "address": "0x91D6F5AC09b137D7Afe6479e6360CC25DAED4402",
  "abi": [
    {
      "anonymous": false,
      "inputs": [
        {
          "indexed": false,
          "internalType": "address",
          "name": "previousAdmin",
          "type": "address"
        },
        {
          "indexed": false,
          "internalType": "address",
          "name": "newAdmin",
          "type": "address"
        }
      ],
      "name": "AdminChanged",
      "type": "event"
    },
    {
      "anonymous": false,
      "inputs": [
        {
          "indexed": true,
          "internalType": "address",
          "name": "beacon",
          "type": "address"
        }
      ],
      "name": "BeaconUpgraded",
      "type": "event"
    },
    {
      "anonymous": false,
      "inputs": [
        {
          "indexed": true,
          "internalType": "address",
          "name": "previousOwner",
          "type": "address"
        },
        {
          "indexed": true,
          "internalType": "address",
          "name": "newOwner",
          "type": "address"
        }
      ],
      "name": "OwnershipTransferred",
      "type": "event"
    },
    {
      "anonymous": false,
      "inputs": [
        {
          "indexed": true,
          "internalType": "address",
          "name": "implementation",
          "type": "address"
        }
      ],
      "name": "Upgraded",
      "type": "event"
    },
    {
      "inputs": [
        {
          "internalType": "address",
          "name": "_battle",
          "type": "address"
        }
      ],
      "name": "addBattle",
      "outputs": [],
      "stateMutability": "nonpayable",
      "type": "function"
    },
    {
      "inputs": [],
      "name": "battleLength",
      "outputs": [
        {
          "internalType": "uint256",
          "name": "len",
          "type": "uint256"
        }
      ],
      "stateMutability": "view",
      "type": "function"
    },
    {
      "inputs": [
        {
          "internalType": "address",
          "name": "_battle",
          "type": "address"
        }
      ],
      "name": "containBattle",
      "outputs": [
        {
          "internalType": "bool",
          "name": "",
          "type": "bool"
        }
      ],
      "stateMutability": "view",
      "type": "function"
    },
    {
      "inputs": [
        {
          "internalType": "address",
          "name": "_collateral",
          "type": "address"
        },
        {
          "internalType": "string",
          "name": "_trackName",
          "type": "string"
        },
        {
          "internalType": "string",
          "name": "_priceName",
          "type": "string"
        },
        {
          "internalType": "uint256",
          "name": "_cAmount",
          "type": "uint256"
        },
        {
          "internalType": "uint256",
          "name": "_spearPrice",
          "type": "uint256"
        },
        {
          "internalType": "uint256",
          "name": "_shieldPrice",
          "type": "uint256"
        },
        {
          "internalType": "enum PeroidType",
          "name": "_peroidType",
          "type": "uint8"
        },
        {
          "internalType": "enum SettleType",
          "name": "_settleType",
          "type": "uint8"
        },
        {
          "internalType": "uint256",
          "name": "_settleValue",
          "type": "uint256"
        }
      ],
      "name": "createBattle",
      "outputs": [],
      "stateMutability": "nonpayable",
      "type": "function"
    },
    {
      "inputs": [],
      "name": "creater",
      "outputs": [
        {
          "internalType": "contract ICreater",
          "name": "",
          "type": "address"
        }
      ],
      "stateMutability": "view",
      "type": "function"
    },
    {
      "inputs": [
        {
          "internalType": "uint256",
          "name": "index",
          "type": "uint256"
        }
      ],
      "name": "getBattle",
      "outputs": [
        {
          "internalType": "address",
          "name": "_battle",
          "type": "address"
        }
      ],
      "stateMutability": "view",
      "type": "function"
    },
    {
      "inputs": [],
      "name": "initialize",
      "outputs": [],
      "stateMutability": "nonpayable",
      "type": "function"
    },
    {
      "inputs": [
        {
          "internalType": "address",
          "name": "",
          "type": "address"
        }
      ],
      "name": "isExist",
      "outputs": [
        {
          "internalType": "bool",
          "name": "",
          "type": "bool"
        }
      ],
      "stateMutability": "view",
      "type": "function"
    },
    {
      "inputs": [],
      "name": "oracle",
      "outputs": [
        {
          "internalType": "contract IOracle",
          "name": "",
          "type": "address"
        }
      ],
      "stateMutability": "view",
      "type": "function"
    },
    {
      "inputs": [],
      "name": "owner",
      "outputs": [
        {
          "internalType": "address",
          "name": "",
          "type": "address"
        }
      ],
      "stateMutability": "view",
      "type": "function"
    },
    {
      "inputs": [
        {
          "internalType": "address",
          "name": "_battle",
          "type": "address"
        }
      ],
      "name": "removeBattle",
      "outputs": [],
      "stateMutability": "nonpayable",
      "type": "function"
    },
    {
      "inputs": [],
      "name": "renounceOwnership",
      "outputs": [],
      "stateMutability": "nonpayable",
      "type": "function"
    },
    {
      "inputs": [
        {
          "internalType": "address",
          "name": "newOwner",
          "type": "address"
        }
      ],
      "name": "transferOwnership",
      "outputs": [],
      "stateMutability": "nonpayable",
      "type": "function"
    },
    {
      "inputs": [
        {
          "internalType": "address",
          "name": "newImplementation",
          "type": "address"
        }
      ],
      "name": "upgradeTo",
      "outputs": [],
      "stateMutability": "nonpayable",
      "type": "function"
    },
    {
      "inputs": [
        {
          "internalType": "address",
          "name": "newImplementation",
          "type": "address"
        },
        {
          "internalType": "bytes",
          "name": "data",
          "type": "bytes"
        }
      ],
      "name": "upgradeToAndCall",
      "outputs": [],
      "stateMutability": "payable",
      "type": "function"
    }
  ],
  "transactionHash": "0x69d1f3bce97746078c15fc1113b4e90ba481ed08d9da6b4f2609977388552d48",
  "args": [],
  "solcInputHash": "31725499087fee763fd5e76a40a5a511",
  "bytecode": "0x608060405234801561001057600080fd5b506119a8806100206000396000f3fe6080604052600436106100c75760003560e01c80638129fc1c1161007a5780638129fc1c146101d357806383cdbdbf146101e857806383d342ba146102085780638da5cb5b1461022857806392d559b114610246578063a3bfe27414610266578063f2fde38b14610289578063fab29a27146102a957600080fd5b806213eb4b146100cc5780633659cfe61461011157806345653a6d146101335780634f1ef2861461016b5780636dd0ce7a1461017e578063715018a61461019e5780637dc0d1d0146101b3575b600080fd5b3480156100d857600080fd5b506100fc6100e736600461145f565b60cd6020526000908152604090205460ff1681565b60405190151581526020015b60405180910390f35b34801561011d57600080fd5b5061013161012c36600461145f565b6102c9565b005b34801561013f57600080fd5b5060cc54610153906001600160a01b031681565b6040516001600160a01b039091168152602001610108565b6101316101793660046114a8565b6102f0565b34801561018a57600080fd5b506101536101993660046115ea565b610309565b3480156101aa57600080fd5b5061013161031c565b3480156101bf57600080fd5b5060cb54610153906001600160a01b031681565b3480156101df57600080fd5b50610131610387565b3480156101f457600080fd5b50610131610203366004611509565b6103fa565b34801561021457600080fd5b5061013161022336600461145f565b610952565b34801561023457600080fd5b506097546001600160a01b0316610153565b34801561025257600080fd5b506100fc61026136600461145f565b61095d565b34801561027257600080fd5b5061027b61096a565b604051908152602001610108565b34801561029557600080fd5b506101316102a436600461145f565b61097b565b3480156102b557600080fd5b506101316102c436600461145f565b610a54565b6102d281610a5f565b6102ed81604051806020016040528060008152506000610a89565b50565b6102f982610a5f565b61030582826001610a89565b5050565b600061031660c983610c09565b92915050565b6097546001600160a01b0316331461034f5760405162461bcd60e51b8152600401610346906117f8565b60405180910390fd5b6097546040516000916001600160a01b03169060008051602061192c833981519152908390a3609780546001600160a01b0319169055565b600054610100900460ff16806103a0575060005460ff16155b6103bc5760405162461bcd60e51b8152600401610346906117aa565b600054610100900460ff161580156103de576000805461ffff19166101011790555b6103e6610c1c565b80156102ed576000805461ff001916905550565b600182600381111561041c57634e487b7160e01b600052602160045260246000fd5b141561044e576706f05b59d3b2000085106104495760405162461bcd60e51b81526004016103469061177e565b6105ef565b600282600381111561047057634e487b7160e01b600052602160045260246000fd5b141561049d576706f05b59d3b2000085116104495760405162461bcd60e51b81526004016103469061182d565b60038260038111156104bf57634e487b7160e01b600052602160045260246000fd5b14156105ef5760cb5460009081906001600160a01b031663d39f69648a8760028111156104fc57634e487b7160e01b600052602160045260246000fd5b87600381111561051c57634e487b7160e01b600052602160045260246000fd5b876040518563ffffffff1660e01b815260040161053c949392919061174f565b60806040518083038186803b15801561055457600080fd5b505afa158015610568573d6000803e3d6000fd5b505050506040513d601f19601f8201168201806040525081019061058c9190611602565b5050915091508181106105c5576706f05b59d3b2000087106105c05760405162461bcd60e51b81526004016103469061177e565b6105ec565b6706f05b59d3b2000087116105ec5760405162461bcd60e51b81526004016103469061182d565b50505b600382600381111561061157634e487b7160e01b600052602160045260246000fd5b1461066457610627662386f26fc10000826118b4565b156106645760405162461bcd60e51b815260206004820152600d60248201526c4172656e613a3a6d696e20312560981b6044820152606401610346565b61066e8486611859565b670de0b6b3a7640000146106af5760405162461bcd60e51b815260206004820152600860248201526773686f756c64203160c01b6044820152606401610346565b60cc5460009081906001600160a01b0316638fd28afc8c8c8860028111156106e757634e487b7160e01b600052602160045260246000fd5b88600381111561070757634e487b7160e01b600052602160045260246000fd5b886040518663ffffffff1660e01b81526004016107289594939291906116fb565b604080518083038186803b15801561073f57600080fd5b505afa158015610753573d6000803e3d6000fd5b505050506040513d601f19601f82011682018060405250810190610777919061147b565b909250905061078760c983610cb8565b156107be5760405162461bcd60e51b8152602060048201526007602482015266195e1a5cdd195960ca1b6044820152606401610346565b60cc54604051630ae1fec960e41b8152600481018390526001600160a01b039091169063ae1fec9090602401600060405180830381600087803b15801561080457600080fd5b505af1158015610818573d6000803e3d6000fd5b50610832925050506001600160a01b038c1633308b610cda565b6108466001600160a01b038c16838a610d4b565b6000829050806001600160a01b03166305e93c608d308e8e8b8b8b6040518863ffffffff1660e01b8152600401610883979695949392919061167f565b600060405180830381600087803b15801561089d57600080fd5b505af11580156108b1573d6000803e3d6000fd5b505060cb5460405163039bd04360e41b8152336004820152602481018d9052604481018c9052606481018b90526001600160a01b03918216608482015290841692506339bd0430915060a401600060405180830381600087803b15801561091757600080fd5b505af115801561092b573d6000803e3d6000fd5b505050506109438160c9610d8090919063ffffffff16565b50505050505050505050505050565b61030560c982610d80565b600061031660c983610cb8565b600061097660c9610d95565b905090565b6097546001600160a01b031633146109a55760405162461bcd60e51b8152600401610346906117f8565b6001600160a01b038116610a0a5760405162461bcd60e51b815260206004820152602660248201527f4f776e61626c653a206e6577206f776e657220697320746865207a65726f206160448201526564647265737360d01b6064820152608401610346565b6097546040516001600160a01b0380841692169060008051602061192c83398151915290600090a3609780546001600160a01b0319166001600160a01b0392909216919091179055565b61030560c982610d9f565b6097546001600160a01b031633146102ed5760405162461bcd60e51b8152600401610346906117f8565b6000610a93610db4565b9050610a9e84610de2565b600083511180610aab5750815b15610abc57610aba8484610e87565b505b7f4910fdfa16fed3260ed0e7147f7cc6da11a60208b5b9406d12a635614ffd9143805460ff16610c0257805460ff191660011781556040516001600160a01b0383166024820152610b3b90869060440160408051601f198184030181529190526020810180516001600160e01b0316631b2ce7f360e11b179052610e87565b50805460ff19168155610b4c610db4565b6001600160a01b0316826001600160a01b031614610bc45760405162461bcd60e51b815260206004820152602f60248201527f45524331393637557067726164653a207570677261646520627265616b73206660448201526e75727468657220757067726164657360881b6064820152608401610346565b610bcd85610de2565b6040516001600160a01b038616907fbc7cd75a20ee27fd9adebab32041f755214dbc6bffa90cc0225b39da2e5c2d3b90600090a25b5050505050565b6000610c158383610f72565b9392505050565b600054610100900460ff1680610c35575060005460ff16155b610c515760405162461bcd60e51b8152600401610346906117aa565b600054610100900460ff16158015610c73576000805461ffff19166101011790555b609780546001600160a01b03191633908117909155604051819060009060008051602061192c833981519152908290a35080156102ed576000805461ff001916905550565b6001600160a01b03811660009081526001830160205260408120541515610c15565b6040516001600160a01b0380851660248301528316604482015260648101829052610d459085906323b872dd60e01b906084015b60408051601f198184030181529190526020810180516001600160e01b03166001600160e01b031990931692909217909152611006565b50505050565b6040516001600160a01b038316602482015260448101829052610d7b90849063a9059cbb60e01b90606401610d0e565b505050565b6000610c15836001600160a01b0384166110d8565b6000610316825490565b6000610c15836001600160a01b038416611127565b7f360894a13ba1a3210667c828492db98dca3e2076cc3735a920a3ca505d382bbc546001600160a01b031690565b803b610e465760405162461bcd60e51b815260206004820152602d60248201527f455243313936373a206e657720696d706c656d656e746174696f6e206973206e60448201526c1bdd08184818dbdb9d1c9858dd609a1b6064820152608401610346565b7f360894a13ba1a3210667c828492db98dca3e2076cc3735a920a3ca505d382bbc80546001600160a01b0319166001600160a01b0392909216919091179055565b6060823b610ee65760405162461bcd60e51b815260206004820152602660248201527f416464726573733a2064656c65676174652063616c6c20746f206e6f6e2d636f6044820152651b9d1c9858dd60d21b6064820152608401610346565b600080846001600160a01b031684604051610f019190611663565b600060405180830381855af49150503d8060008114610f3c576040519150601f19603f3d011682016040523d82523d6000602084013e610f41565b606091505b5091509150610f69828260405180606001604052806027815260200161194c6027913961123e565b95945050505050565b81546000908210610fd05760405162461bcd60e51b815260206004820152602260248201527f456e756d657261626c655365743a20696e646578206f7574206f6620626f756e604482015261647360f01b6064820152608401610346565b826000018281548110610ff357634e487b7160e01b600052603260045260246000fd5b9060005260206000200154905092915050565b600061105b826040518060400160405280602081526020017f5361666545524332303a206c6f772d6c6576656c2063616c6c206661696c6564815250856001600160a01b03166112779092919063ffffffff16565b805190915015610d7b578080602001905181019061107991906115ca565b610d7b5760405162461bcd60e51b815260206004820152602a60248201527f5361666545524332303a204552433230206f7065726174696f6e20646964206e6044820152691bdd081cdd58d8d9595960b21b6064820152608401610346565b600081815260018301602052604081205461111f57508154600181810184556000848152602080822090930184905584548482528286019093526040902091909155610316565b506000610316565b6000818152600183016020526040812054801561123457600061114b600183611871565b855490915060009061115f90600190611871565b9050600086600001828154811061118657634e487b7160e01b600052603260045260246000fd5b90600052602060002001549050808760000184815481106111b757634e487b7160e01b600052603260045260246000fd5b6000918252602080832090910192909255828152600189019091526040902084905586548790806111f857634e487b7160e01b600052603160045260246000fd5b60019003818190600052602060002001600090559055866001016000878152602001908152602001600020600090556001945050505050610316565b6000915050610316565b6060831561124d575081610c15565b82511561125d5782518084602001fd5b8160405162461bcd60e51b8152600401610346919061173c565b6060611286848460008561128e565b949350505050565b6060824710156112ef5760405162461bcd60e51b815260206004820152602660248201527f416464726573733a20696e73756666696369656e742062616c616e636520666f6044820152651c8818d85b1b60d21b6064820152608401610346565b843b61133d5760405162461bcd60e51b815260206004820152601d60248201527f416464726573733a2063616c6c20746f206e6f6e2d636f6e74726163740000006044820152606401610346565b600080866001600160a01b031685876040516113599190611663565b60006040518083038185875af1925050503d8060008114611396576040519150601f19603f3d011682016040523d82523d6000602084013e61139b565b606091505b50915091506113ab82828661123e565b979650505050505050565b600067ffffffffffffffff808411156113d1576113d1611900565b604051601f8501601f19908116603f011681019082821181831017156113f9576113f9611900565b8160405280935085815286868601111561141257600080fd5b858560208301376000602087830101525050509392505050565b80356004811061143b57600080fd5b919050565b600082601f830112611450578081fd5b610c15838335602085016113b6565b600060208284031215611470578081fd5b8135610c1581611916565b6000806040838503121561148d578081fd5b825161149881611916565b6020939093015192949293505050565b600080604083850312156114ba578182fd5b82356114c581611916565b9150602083013567ffffffffffffffff8111156114e0578182fd5b8301601f810185136114f0578182fd5b6114ff858235602084016113b6565b9150509250929050565b60008060008060008060008060006101208a8c031215611527578485fd5b893561153281611916565b985060208a013567ffffffffffffffff8082111561154e578687fd5b61155a8d838e01611440565b995060408c013591508082111561156f578687fd5b5061157c8c828d01611440565b97505060608a0135955060808a0135945060a08a0135935060c08a0135600381106115a5578384fd5b92506115b360e08b0161142c565b91506101008a013590509295985092959850929598565b6000602082840312156115db578081fd5b81518015158114610c15578182fd5b6000602082840312156115fb578081fd5b5035919050565b60008060008060808587031215611617578384fd5b505082516020840151604085015160609095015191969095509092509050565b6000815180845261164f816020860160208601611888565b601f01601f19169290920160200192915050565b60008251611675818460208701611888565b9190910192915050565b6001600160a01b0388811682528716602082015260e0604082018190526000906116ab90830188611637565b82810360608401526116bd8188611637565b915050600385106116d0576116d06118ea565b846080830152600484106116e6576116e66118ea565b60a082019390935260c0015295945050505050565b6001600160a01b038616815260a06020820181905260009061171f90830187611637565b604083019590955250606081019290925260809091015292915050565b602081526000610c156020830184611637565b6080815260006117626080830187611637565b6020830195909552506040810192909252606090910152919050565b6020808252601290820152714172656e613a3a7370656172203c20302e3560701b604082015260600190565b6020808252602e908201527f496e697469616c697a61626c653a20636f6e747261637420697320616c72656160408201526d191e481a5b9a5d1a585b1a5e995960921b606082015260800190565b6020808252818101527f4f776e61626c653a2063616c6c6572206973206e6f7420746865206f776e6572604082015260600190565b6020808252601290820152714172656e613a3a7370656172203e20302e3560701b604082015260600190565b6000821982111561186c5761186c6118d4565b500190565b600082821015611883576118836118d4565b500390565b60005b838110156118a357818101518382015260200161188b565b83811115610d455750506000910152565b6000826118cf57634e487b7160e01b81526012600452602481fd5b500690565b634e487b7160e01b600052601160045260246000fd5b634e487b7160e01b600052602160045260246000fd5b634e487b7160e01b600052604160045260246000fd5b6001600160a01b03811681146102ed57600080fdfe8be0079c531659141344cd1fd0a4f28419497f9722a3daafe3b4186f6b6457e0416464726573733a206c6f772d6c6576656c2064656c65676174652063616c6c206661696c6564a264697066735822122068c67538571704d18cd87c3e824cc855f2cc39ac90101b67ec6b2668f89bcde164736f6c63430008040033",
  "devdoc": {
    "kind": "dev",
    "methods": {
      "owner()": {
        "details": "Returns the address of the current owner."
      },
      "renounceOwnership()": {
        "details": "Leaves the contract without owner. It will not be possible to call `onlyOwner` functions anymore. Can only be called by the current owner. NOTE: Renouncing ownership will leave the contract without an owner, thereby removing any functionality that is only available to the owner."
      },
      "transferOwnership(address)": {
        "details": "Transfers ownership of the contract to a new account (`newOwner`). Can only be called by the current owner."
      }
    },
    "version": 1
  },
  "userdoc": {
    "kind": "user",
    "methods": {},
    "version": 1
  },
  "storageLayout": {
    "storage": [
      {
        "astId": 580,
        "contract": "contracts/Arena.sol:Arena",
        "label": "_initialized",
        "offset": 0,
        "slot": "0",
        "type": "t_bool"
      },
      {
        "astId": 583,
        "contract": "contracts/Arena.sol:Arena",
        "label": "_initializing",
        "offset": 1,
        "slot": "0",
        "type": "t_bool"
      },
      {
        "astId": 563,
        "contract": "contracts/Arena.sol:Arena",
        "label": "__gap",
        "offset": 0,
        "slot": "1",
        "type": "t_array(t_uint256)50_storage"
      },
      {
        "astId": 693,
        "contract": "contracts/Arena.sol:Arena",
        "label": "__gap",
        "offset": 0,
        "slot": "51",
        "type": "t_array(t_uint256)50_storage"
      },
      {
        "astId": 1284,
        "contract": "contracts/Arena.sol:Arena",
        "label": "__gap",
        "offset": 0,
        "slot": "101",
        "type": "t_array(t_uint256)50_storage"
      },
      {
        "astId": 10,
        "contract": "contracts/Arena.sol:Arena",
        "label": "_owner",
        "offset": 0,
        "slot": "151",
        "type": "t_address"
      },
      {
        "astId": 129,
        "contract": "contracts/Arena.sol:Arena",
        "label": "__gap",
        "offset": 0,
        "slot": "152",
        "type": "t_array(t_uint256)49_storage"
      },
      {
        "astId": 4153,
        "contract": "contracts/Arena.sol:Arena",
        "label": "battleSet",
        "offset": 0,
        "slot": "201",
        "type": "t_struct(AddressSet)1631_storage"
      },
      {
        "astId": 4156,
        "contract": "contracts/Arena.sol:Arena",
        "label": "oracle",
        "offset": 0,
        "slot": "203",
        "type": "t_contract(IOracle)7630"
      },
      {
        "astId": 4159,
        "contract": "contracts/Arena.sol:Arena",
        "label": "creater",
        "offset": 0,
        "slot": "204",
        "type": "t_contract(ICreater)7592"
      },
      {
        "astId": 4163,
        "contract": "contracts/Arena.sol:Arena",
        "label": "isExist",
        "offset": 0,
        "slot": "205",
        "type": "t_mapping(t_address,t_bool)"
      }
    ],
    "types": {
      "t_address": {
        "encoding": "inplace",
        "label": "address",
        "numberOfBytes": "20"
      },
      "t_array(t_bytes32)dyn_storage": {
        "base": "t_bytes32",
        "encoding": "dynamic_array",
        "label": "bytes32[]",
        "numberOfBytes": "32"
      },
      "t_array(t_uint256)49_storage": {
        "base": "t_uint256",
        "encoding": "inplace",
        "label": "uint256[49]",
        "numberOfBytes": "1568"
      },
      "t_array(t_uint256)50_storage": {
        "base": "t_uint256",
        "encoding": "inplace",
        "label": "uint256[50]",
        "numberOfBytes": "1600"
      },
      "t_bool": {
        "encoding": "inplace",
        "label": "bool",
        "numberOfBytes": "1"
      },
      "t_bytes32": {
        "encoding": "inplace",
        "label": "bytes32",
        "numberOfBytes": "32"
      },
      "t_contract(ICreater)7592": {
        "encoding": "inplace",
        "label": "contract ICreater",
        "numberOfBytes": "20"
      },
      "t_contract(IOracle)7630": {
        "encoding": "inplace",
        "label": "contract IOracle",
        "numberOfBytes": "20"
      },
      "t_mapping(t_address,t_bool)": {
        "encoding": "mapping",
        "key": "t_address",
        "label": "mapping(address => bool)",
        "numberOfBytes": "32",
        "value": "t_bool"
      },
      "t_mapping(t_bytes32,t_uint256)": {
        "encoding": "mapping",
        "key": "t_bytes32",
        "label": "mapping(bytes32 => uint256)",
        "numberOfBytes": "32",
        "value": "t_uint256"
      },
      "t_struct(AddressSet)1631_storage": {
        "encoding": "inplace",
        "label": "struct EnumerableSetUpgradeable.AddressSet",
        "members": [
          {
            "astId": 1630,
            "contract": "contracts/Arena.sol:Arena",
            "label": "_inner",
            "offset": 0,
            "slot": "0",
            "type": "t_struct(Set)1356_storage"
          }
        ],
        "numberOfBytes": "64"
      },
      "t_struct(Set)1356_storage": {
        "encoding": "inplace",
        "label": "struct EnumerableSetUpgradeable.Set",
        "members": [
          {
            "astId": 1351,
            "contract": "contracts/Arena.sol:Arena",
            "label": "_values",
            "offset": 0,
            "slot": "0",
            "type": "t_array(t_bytes32)dyn_storage"
          },
          {
            "astId": 1355,
            "contract": "contracts/Arena.sol:Arena",
            "label": "_indexes",
            "offset": 0,
            "slot": "1",
            "type": "t_mapping(t_bytes32,t_uint256)"
          }
        ],
        "numberOfBytes": "64"
      },
      "t_uint256": {
        "encoding": "inplace",
        "label": "uint256",
        "numberOfBytes": "32"
      }
    }
  }
}