{
  "address": "0xB85E2020c7D70904CD6cB96848fe0c94841D3645",
  "abi": [
    {
      "inputs": [
        {
          "internalType": "bytes32",
          "name": "salt",
          "type": "bytes32"
        }
      ],
      "name": "createBattle",
      "outputs": [],
      "stateMutability": "nonpayable",
      "type": "function"
    },
    {
      "inputs": [
        {
          "internalType": "address",
          "name": "_collateral",
          "type": "address"
        },
        {
          "internalType": "string",
          "name": "_trackName",
          "type": "string"
        },
        {
          "internalType": "uint256",
          "name": "_peroidType",
          "type": "uint256"
        },
        {
          "internalType": "uint256",
          "name": "_settleType",
          "type": "uint256"
        },
        {
          "internalType": "uint256",
          "name": "_settleValue",
          "type": "uint256"
        }
      ],
      "name": "getBattleAddress",
      "outputs": [
        {
          "internalType": "address",
          "name": "",
          "type": "address"
        },
        {
          "internalType": "bytes32",
          "name": "",
          "type": "bytes32"
        }
      ],
      "stateMutability": "view",
      "type": "function"
    }
  ],
  "transactionHash": "0xa5b7ae357e989843e75f6332b53aca1d453799ab38fbd6e1d650c89b8383c4ea",
  "args": [],
  "solcInputHash": "6381d118ec5aab71efc187aeef84708e",
  "bytecode": "0x608060405234801561001057600080fd5b50614af1806100206000396000f3fe608060405234801561001057600080fd5b50600436106100365760003560e01c80638fd28afc1461003b578063ae1fec9014610071575b600080fd5b61004e61004936600461028f565b610086565b604080516001600160a01b03909316835260208301919091520160405180910390f35b61008461007f366004610372565b610145565b005b600080600087878787876040516020016100a495949392919061038a565b6040516020818303038152906040528051906020012090506000604051806020016100ce90610282565b601f1982820381018352601f90910116604081815282516020938401206001600160f81b0319848401526bffffffffffffffffffffffff193060601b166021840152603583018690526055808401919091528151808403909101815260759092019052805191012099919850909650505050505050565b6101736000826040518060200161015b90610282565b601f1982820381018352601f90910116604052610177565b5050565b600080844710156101cf5760405162461bcd60e51b815260206004820152601d60248201527f437265617465323a20696e73756666696369656e742062616c616e636500000060448201526064015b60405180910390fd5b825161021d5760405162461bcd60e51b815260206004820181905260248201527f437265617465323a2062797465636f6465206c656e677468206973207a65726f60448201526064016101c6565b8383516020850187f590506001600160a01b03811661027a5760405162461bcd60e51b8152602060048201526019602482015278437265617465323a204661696c6564206f6e206465706c6f7960381b60448201526064016101c6565b949350505050565b6146af8061040d83390190565b600080600080600060a086880312156102a6578081fd5b85356001600160a01b03811681146102bc578182fd5b9450602086013567ffffffffffffffff808211156102d8578283fd5b818801915088601f8301126102eb578283fd5b8135818111156102fd576102fd6103f6565b604051601f8201601f19908116603f01168101908382118183101715610325576103256103f6565b816040528281528b602084870101111561033d578586fd5b826020860160208301379182016020019490945296999698505050506040850135946060810135946080909101359350915050565b600060208284031215610383578081fd5b5035919050565b6bffffffffffffffffffffffff198660601b16815260008551815b818110156103c257602081890181015160148684010152016103a5565b818111156103d35782601483860101525b506014920191820194909452603481019290925260548201526074019392505050565b634e487b7160e01b600052604160045260246000fdfe6080604052670de05bc096e9c00060078190556200002690670de0b6b3a7640000620001c0565b6008553480156200003657600080fd5b50604080518082018252601881527f426174746c65204c697175696c696469747920546f6b656e00000000000000006020808301918252835180850190945260038452620424c560ec1b9084015281519192916200009791600c916200011a565b508051620000ad90600d9060208401906200011a565b5050506000620000c26200011660201b60201c565b601680546001600160a01b0319166001600160a01b038316908117909155604051919250906000907f8be0079c531659141344cd1fd0a4f28419497f9722a3daafe3b4186f6b6457e0908290a35062000221565b3390565b8280546200012890620001e4565b90600052602060002090601f0160209004810192826200014c576000855562000197565b82601f106200016757805160ff191683800117855562000197565b8280016001018555821562000197579182015b82811115620001975782518255916020019190600101906200017a565b50620001a5929150620001a9565b5090565b5b80821115620001a55760008155600101620001aa565b600082821015620001df57634e487b7160e01b81526011600452602481fd5b500390565b600181811c90821680620001f957607f821691505b602082108114156200021b57634e487b7160e01b600052602260045260246000fd5b50919050565b61447e80620002316000396000f3fe608060405234801561001057600080fd5b50600436106104805760003560e01c8063747dff4211610257578063b2016bd411610146578063e78ccc39116100c3578063f6e0c8f611610087578063f6e0c8f614610b96578063fa38601d14610ba9578063fc0afb4214610bbd578063fd3705f914610bdd578063ff5958fc14610bf057600080fd5b8063e78ccc3914610b1b578063e800bd4414610b2e578063efe8639414610b4e578063f2fde38b14610b70578063f46901ed14610b8357600080fd5b8063dd62ed3e1161010a578063dd62ed3e14610a61578063dec966e914610a9a578063e1237df014610aba578063e559195414610af5578063e5cb8d8614610b0857600080fd5b8063b2016bd4146109c2578063b4f77f71146109d5578063bc0d12c514610a00578063c29bf54914610a20578063d019abba14610a4e57600080fd5b806390a4cb9b116101d45780639c8f9f23116101985780639c8f9f2314610955578063a345d92114610968578063a457c2d714610988578063a9059cbb1461099b578063b145a5b8146109ae57600080fd5b806390a4cb9b1461091557806391a1adbe1461092857806395d89b411461093157806396eb6d0b1461093957806399b675bf1461094257600080fd5b8063858e6e891161021b578063858e6e89146108be57806388c3ffb0146108d157806389ef689d146108e45780638da5cb5b146108ed5780638e569819146108f557600080fd5b8063747dff421461080f5780637a917e541461086d5780637dc0d1d014610876578063821482e21461088957806384b12427146108a957600080fd5b80633a8bcc91116103735780634ec501b2116102f05780636f4d2b67116102b45780636f4d2b67146107ab57806370a08231146107be578063715018a6146107e7578063728313c9146107ef57806373cdc9551461080257600080fd5b80634ec501b21461073f57806351c6590a1461075257806357b622e51461076557806358a01710146107785780636386c1c71461078b57600080fd5b806341744dd41161033757806341744dd4146106c35780634484cc69146106cc5780634975dc3f146106ec5780634e5b611e146107175780634e71d92d1461073757600080fd5b80633a8bcc911461064a5780633b1f18dd1461066a5780633c45e7361461068a5780633cc1f54c1461069d57806340dd37f6146106b057600080fd5b80631bd5ff2811610401578063313ce567116103c5578063313ce567146105ed57806333eca634146105fc57806335a94b7b1461061c578063395093511461062457806339bd04301461063757600080fd5b80631bd5ff28146105655780631f38f5c614610578578063221937e01461059757806323b872dd146105aa5780632bed99a3146105bd57600080fd5b80630d12872d116104485780630d12872d1461051957806311da60b41461053957806318160ddd1461054157806319f4ff2f146105495780631bd590291461055c57600080fd5b8063017e7e581461048557806305e93c60146104b557806306fdde03146104ca57806309300a33146104df578063095ea7b3146104f6575b600080fd5b601754610498906001600160a01b031681565b6040516001600160a01b0390911681526020015b60405180910390f35b6104c86104c3366004613bf5565b610bf8565b005b6104d2610d1b565b6040516104ac9190613fe5565b6104e860195481565b6040519081526020016104ac565b610509610504366004613ce9565b610dad565b60405190151581526020016104ac565b6104e8610527366004613d81565b60146020526000908152604090205481565b6104c8610dc4565b600b546104e8565b6104c8610557366004613d81565b610f64565b6104e860205481565b6104c8610573366004613ba9565b610f98565b601f5461058a90610100900460ff1681565b6040516104ac9190613f93565b6104e86105a5366004613d81565b610fe9565b6105096105b8366004613cae565b611021565b6105e06105cb366004613d81565b60156020526000908152604090205460ff1681565b6040516104ac9190613f80565b604051601281526020016104ac565b6104e861060a366004613d81565b60026020526000908152604090205481565b6104d26110d2565b610509610632366004613ce9565b611160565b6104c8610645366004613d12565b611197565b6104e8610658366004613d81565b600e6020526000908152604090205481565b6104e8610678366004613d81565b60066020526000908152604090205481565b6104c8610698366004613d81565b61128e565b6104c86106ab366004613d81565b61136a565b6104e86106be366004613d81565b6113ee565b6104e860185481565b6104e86106da366004613d81565b60106020526000908152604090205481565b6104e86106fa366004613db1565b600360209081526000928352604080842090915290825290205481565b6104e8610725366004613d81565b60116020526000908152604090205481565b6104c86113fc565b6104e861074d366004613d81565b611491565b6104c8610760366004613d81565b61149f565b6104c8610773366004613d81565b61150b565b6104e8610786366004613d81565b6115e7565b61079e610799366004613ba9565b61161f565b6040516104ac9190614189565b6104e86107b9366004613d81565b61164f565b6104e86107cc366004613ba9565b6001600160a01b031660009081526009602052604090205490565b6104c861167d565b6104c86107fd366004613d81565b6116f6565b601f546105e09060ff1681565b61081761178b565b6040516104ac9190600060e082019050825182526020830151602083015260408301516040830152606083015160608301526080830151608083015260a083015160a083015260c083015160c083015292915050565b6104e860215481565b602754610498906001600160a01b031681565b6104e8610897366004613d81565b60046020526000908152604090205481565b6108b16117a3565b6040516104ac9190614111565b6104e86108cc366004613d81565b611969565b6108176108df366004613d81565b611977565b6104e860265481565b610498611a01565b6104e8610903366004613d81565b60056020526000908152604090205481565b6104e8610923366004613d81565b611a10565b6104e860225481565b6104d2611a31565b6104e860255481565b6104e8610950366004613d81565b611a40565b6104c8610963366004613d81565b611a4e565b6104e8610976366004613d81565b600f6020526000908152604090205481565b610509610996366004613ce9565b611a76565b6105096109a9366004613ce9565b611b11565b60275461050990600160a81b900460ff1681565b601c54610498906001600160a01b031681565b6104e86109e3366004613db1565b600160209081526000928352604080842090915290825290205481565b6104e8610a0e366004613d81565b60136020526000908152604090205481565b610a33610a2e366004613d81565b611b1e565b604080519384526020840192909252908201526060016104ac565b610a33610a5c366004613dd3565b611b3d565b6104e8610a6f366004613bc3565b6001600160a01b039182166000908152600a6020908152604080832093909416825291909152205490565b6104e8610aa8366004613d81565b60006020819052908152604090205481565b610acd610ac8366004613dd3565b611c16565b604080519586526020860194909452928401919091526060830152608082015260a0016104ac565b610acd610b03366004613d81565b611d2c565b6104e8610b16366004613d81565b611d52565b6104e8610b29366004613d81565b611d81565b6104e8610b3c366004613d81565b60126020526000908152604090205481565b610b61610b5c366004613ba9565b611db2565b6040516104ac939291906141f8565b6104c8610b7e366004613ba9565b611e9a565b6104c8610b91366004613ba9565b611f8a565b6104c8610ba4366004613d81565b611fdb565b60275461050990600160a01b900460ff1681565b6104e8610bcb366004613ba9565b60236020526000908152604090205481565b601b54610498906001600160a01b031681565b6104d2612006565b602754600160a01b900460ff1615610c3f5760405162461bcd60e51b81526020600482015260056024820152640696e6974360dc1b60448201526064015b60405180910390fd5b6027805460ff60a01b1916600160a01b179055601c80546001600160a01b03808a166001600160a01b031992831617909255601b8054928916929091169190911790558451610c9590601d906020880190613a35565b508351610ca990601e906020870190613a35565b50601f805484919060ff19166001836002811115610cd757634e487b7160e01b600052602160045260246000fd5b0217905550601f805483919061ff001916610100836003811115610d0b57634e487b7160e01b600052602160045260246000fd5b0217905550602055505050505050565b6060600c8054610d2a9061439e565b80601f0160208091040260200160405190810160405280929190818152602001828054610d569061439e565b8015610da35780601f10610d7857610100808354040283529160200191610da3565b820191906000526020600020905b815481529060010190602001808311610d8657829003601f168201915b5050505050905090565b6000610dba338484612013565b5060015b92915050565b601954600090815260116020526040902054421015610e115760405162461bcd60e51b8152602060048201526009602482015268746f6f206561726c7960b81b6044820152606401610c36565b60195460009081526015602052604081205460ff166002811115610e4557634e487b7160e01b600052602160045260246000fd5b14610e7c5760405162461bcd60e51b81526020600482015260076024820152661cd95d1d1b195960ca1b6044820152606401610c36565b6027546019546000908152601160205260408082205490516359fb1e3d60e11b815291926001600160a01b03169163b3f63c7a91610ec091601e9190600401613ff8565b60206040518083038186803b158015610ed857600080fd5b505afa158015610eec573d6000803e3d6000fd5b505050506040513d601f19601f82011682018060405250810190610f109190613d99565b905080610f2f5760405162461bcd60e51b8152600401610c3690614049565b6019546000908152600f60205260409020819055610f4b612138565b6000610f556123a1565b9050610f60816124ac565b5050565b33610f6d611a01565b6001600160a01b031614610f935760405162461bcd60e51b8152600401610c369061406e565b601855565b33610fa1611a01565b6001600160a01b031614610fc75760405162461bcd60e51b8152600401610c369061406e565b601b80546001600160a01b0319166001600160a01b0392909216919091179055565b60008181526001602090815260408083203084528252808320548484526004909252822054829161101a919061274c565b9392505050565b600061102e84848461276e565b6001600160a01b0384166000908152600a60209081526040808320338452909152902054828110156110b35760405162461bcd60e51b815260206004820152602860248201527f45524332303a207472616e7366657220616d6f756e74206578636565647320616044820152676c6c6f77616e636560c01b6064820152608401610c36565b6110c785336110c2868561435b565b612013565b506001949350505050565b601e80546110df9061439e565b80601f016020809104026020016040519081016040528092919081815260200182805461110b9061439e565b80156111585780601f1061112d57610100808354040283529160200191611158565b820191906000526020600020905b81548152906001019060200180831161113b57829003601f168201915b505050505081565b336000818152600a602090815260408083206001600160a01b03871684529091528120549091610dba9185906110c2908690614219565b6019546001600160a01b038616600090815260246020526040902086916111be9190612934565b6111e8576019546001600160a01b03821660009081526024602052604090206111e69161294c565b505b602754600160a81b900460ff161561122b5760405162461bcd60e51b8152600401610c36906020808252600490820152631a5b9a5d60e21b604082015260600190565b60278054600161ff0160a01b0319166001600160a01b03841617600160a81b17905560218490556022839055611260856124ac565b6019546001600160a01b0387166000908152602360205260409020556112868686612958565b505050505050565b33600090815260236020526040902054156112ab576112ab6113fc565b60195433600081815260246020526040902090916112c99190612934565b6112f3576019546001600160a01b03821660009081526024602052604090206112f19161294c565b505b600061130a60185484612a2590919063ffffffff16565b9050611323601954828561131e919061435b565b612a47565b6113463330611332848761435b565b601c546001600160a01b0316929190612b66565b601754601c54611365916001600160a01b039182169133911684612b66565b505050565b3360009081526023602052604090205415611387576113876113fc565b600061139560195483612bd7565b905060006113ae60185483612a2590919063ffffffff16565b90506113d1336113be838561435b565b601c546001600160a01b03169190612c2e565b601754601c54611365916001600160a01b03918216911683612c2e565b6000610dbe60195483612c5e565b60008061140833611db2565b925050915080600014156114525760405162461bcd60e51b815260206004820152601160248201527073706561722f736869656c64207a65726f60781b6044820152606401610c36565b61145d823383612c98565b611468823383612d34565b33600081815260236020526040812055601c54610f60916001600160a01b039091169083612c2e565b6000610dbe60195483612dc3565b60195433600081815260246020526040902090916114bd9190612934565b6114e7576019546001600160a01b03821660009081526024602052604090206114e59161294c565b505b6114f360195483612df5565b601c54610f60906001600160a01b0316333085612b66565b60265433600090815260096020526040902054101561155c5760405162461bcd60e51b815260206004820152600d60248201526c06e6f7420656e6f756768206c7609c1b6044820152606401610c36565b670de0b6b3a764000081106115835760405162461bcd60e51b8152600401610c3690614049565b602181905561159a81670de0b6b3a764000061435b565b60228190556021546040805133815260208101929092528101919091527ff6b8a92f9bdaf1c98998652be215c78364778cd8decd80347d680b38b0a09bbc9060600160405180910390a150565b600081815260056020908152604080832054600483528184205460069093529083205490916116159161435b565b610dbe919061435b565b61164a6040518060800160405280606081526020016060815260200160608152602001600081525090565b919050565b600081815260016020908152604080832030845282528083205484845291839052822054610dbe919061435b565b33611686611a01565b6001600160a01b0316146116ac5760405162461bcd60e51b8152600401610c369061406e565b6016546040516000916001600160a01b0316907f8be0079c531659141344cd1fd0a4f28419497f9722a3daafe3b4186f6b6457e0908390a3601680546001600160a01b0319169055565b3360009081526023602052604090205415611713576117136113fc565b60195433600081815260246020526040902090916117319190612934565b61175b576019546001600160a01b03821660009081526024602052604090206117599161294c565b505b600061177260185484612a2590919063ffffffff16565b90506113236019548285611786919061435b565b612e4e565b611793613ab9565b61179e601954611977565b905090565b6117d36040805160a081018252606080825260208201529081016000815260200160008152602001600081525090565b6040518060a00160405280601d80546117eb9061439e565b80601f01602080910402602001604051908101604052809291908181526020018280546118179061439e565b80156118645780601f1061183957610100808354040283529160200191611864565b820191906000526020600020905b81548152906001019060200180831161184757829003601f168201915b50505050508152602001601e805461187b9061439e565b80601f01602080910402602001604051908101604052809291908181526020018280546118a79061439e565b80156118f45780601f106118c9576101008083540402835291602001916118f4565b820191906000526020600020905b8154815290600101906020018083116118d757829003601f168201915b5050509183525050601f5460209091019060ff16600281111561192757634e487b7160e01b600052602160045260246000fd5b8152602001601f60019054906101000a900460ff16600381111561195b57634e487b7160e01b600052602160045260246000fd5b815260208054910152919050565b6000610dbe60195483612f2b565b61197f613ab9565b6040518060e0016040528061199384610fe9565b81526020016119a184611d81565b815260008481526012602090815260408083205482850152868352601382528083205481850152868352601482528083205460608501528683526010825280832054608085015295825260119052939093205460a0909301929092525090565b6016546001600160a01b031690565b601a8181548110611a2057600080fd5b600091825260209091200154905081565b6060600d8054610d2a9061439e565b6000610dbe60195483612f58565b6000611a5c60195483612f85565b601c54909150610f60906001600160a01b03163383612c2e565b336000908152600a602090815260408083206001600160a01b038616845290915281205482811015611af85760405162461bcd60e51b815260206004820152602560248201527f45524332303a2064656372656173656420616c6c6f77616e63652062656c6f77604482015264207a65726f60d81b6064820152608401610c36565b611b0733856110c2868561435b565b5060019392505050565b6000610dba33848461276e565b6000806000611b2f60195485611b3d565b9250925092505b9193909250565b600080600080611b4c8661164f565b90506000611b5987611d52565b90506000818311611b6a5781611b6c565b825b9050611ba6611b7a600b5490565b60008a815260066020526040902054611ba0908a90611b9a90869061435b565b90612a25565b9061274c565b9550611bd8611bb4600b5490565b60008a8152600160209081526040808320308452909152902054611ba0908a612a25565b9450611c0a611be6600b5490565b60008a8152600360209081526040808320308452909152902054611ba0908a612a25565b93505050509250925092565b600082815260056020908152604080832054600490925282205482918291829182918291611c4391614219565b600089815260046020526040902054909150611c65908290611ba0908a612a25565b600089815260056020526040902054909650611c87908290611ba0908a612a25565b6000898152600160209081526040808320308452909152902054909550611cb4908290611ba0908a612a25565b6000898152600360209081526040808320308452909152902054909450611ce1908290611ba0908a612a25565b9250611cec600b5490565b611cf857869150611d21565b600088815260066020526040902054611d1e90611ba0611d17600b5490565b8a90612a25565b91505b509295509295909350565b6000806000806000611d4060195487611c16565b939a9299509097509550909350915050565b60008181526003602090815260408083203084528252808320548484526002909252822054610dbe919061435b565b60008181526003602090815260408083203084528252808320548484526005909252822054829161101a919061274c565b6001600160a01b0381166000908152602360209081526040808320548084526015909252822054909160ff909116908215801590611df1575060195483105b15611b36576001826002811115611e1857634e487b7160e01b600052602160045260246000fd5b1415611e47575060008281526001602090815260408083206001600160a01b0387168452909152902054611b36565b6002826002811115611e6957634e487b7160e01b600052602160045260246000fd5b1415611b36575060008281526003602090815260408083206001600160a01b03871684529091529020549193909250565b33611ea3611a01565b6001600160a01b031614611ec95760405162461bcd60e51b8152600401610c369061406e565b6001600160a01b038116611f2e5760405162461bcd60e51b815260206004820152602660248201527f4f776e61626c653a206e6577206f776e657220697320746865207a65726f206160448201526564647265737360d01b6064820152608401610c36565b6016546040516001600160a01b038084169216907f8be0079c531659141344cd1fd0a4f28419497f9722a3daafe3b4186f6b6457e090600090a3601680546001600160a01b0319166001600160a01b0392909216919091179055565b33611f93611a01565b6001600160a01b031614611fb95760405162461bcd60e51b8152600401610c369061406e565b601780546001600160a01b0319166001600160a01b0392909216919091179055565b3360009081526023602052604090205415611ff857611ff86113fc565b60006113956019548361306f565b601d80546110df9061439e565b6001600160a01b0383166120755760405162461bcd60e51b8152602060048201526024808201527f45524332303a20617070726f76652066726f6d20746865207a65726f206164646044820152637265737360e01b6064820152608401610c36565b6001600160a01b0382166120d65760405162461bcd60e51b815260206004820152602260248201527f45524332303a20617070726f766520746f20746865207a65726f206164647265604482015261737360f01b6064820152608401610c36565b6001600160a01b038381166000818152600a602090815260408083209487168084529482529182902085905590518481527f8c5be1e5ebec7d5bd14f71427d1e84f3dd0314c0f7b2291e5b200ac8c7c3b92591015b60405180910390a3505050565b6000601f54610100900460ff16600381111561216457634e487b7160e01b600052602160045260246000fd5b14156121fe57601954600090815260136020908152604080832054600f909252909120541015806121b15750601954600090815260146020908152604080832054600f9092529091205411155b156121db57601954600090815260156020526040902080546001919060ff191682805b0217905550565b601954600090815260156020526040902080546002919060ff19166001836121d4565b6001601f54610100900460ff16600381111561222a57634e487b7160e01b600052602160045260246000fd5b141561227557601954600090815260136020908152604080832054600f90925290912054106121db57601954600090815260156020526040902080546001919060ff191682806121d4565b6002601f54610100900460ff1660038111156122a157634e487b7160e01b600052602160045260246000fd5b14156122ec57601954600090815260146020908152604080832054600f90925290912054106121db57601954600090815260156020526040902080546001919060ff191682806121d4565b6003601f54610100900460ff16600381111561231857634e487b7160e01b600052602160045260246000fd5b141561236357601954600090815260126020908152604080832054600f90925290912054106121db57601954600090815260156020526040902080546001919060ff191682806121d4565b60405162461bcd60e51b8152602060048201526013602482015272756e6b6e6f776e20736574746c65207479706560681b6044820152606401610c36565b6000600160195460009081526015602052604090205460ff1660028111156123d957634e487b7160e01b600052602160045260246000fd5b1415612405576019546000908152602081815260408083205460069092529091205461179e919061435b565b600260195460009081526015602052604090205460ff16600281111561243b57634e487b7160e01b600052602160045260246000fd5b14156124695760195460009081526002602090815260408083205460069092529091205461179e919061435b565b60405162461bcd60e51b81526020600482015260186024820152771b9bdd0818dbdc9c9958dd081c9bdd5b99081c995cdd5b1d60421b6044820152606401610c36565b602754601f5460009182916001600160a01b039091169063962657959060ff1660028111156124eb57634e487b7160e01b600052602160045260246000fd5b6040518263ffffffff1660e01b815260040161250991815260200190565b604080518083038186803b15801561252057600080fd5b505afa158015612534573d6000803e3d6000fd5b505050506040513d601f19601f820116820180604052508101906125589190613df4565b6019829055601a805460018101825560009182527f057c384a7d1c54f3a1b2e5e67b2617b8224fdfd1ea7234eea573a6ff665ff63e01839055602754601f54939550919350918291829182916001600160a01b03169063d39f696490601e9060ff1660028111156125d957634e487b7160e01b600052602160045260246000fd5b601f54610100900460ff16600381111561260357634e487b7160e01b600052602160045260246000fd5b6020546040518563ffffffff1660e01b8152600401612625949392919061401a565b60806040518083038186803b15801561263d57600080fd5b505afa158015612651573d6000803e3d6000fd5b505050506040513d601f19601f820116820180604052508101906126759190613e17565b935093509350935061268a60195430896130bc565b612697601954308961314b565b6126b76019546126b289602154612a2590919063ffffffff16565b6131da565b6126d76019546126d289602254612a2590919063ffffffff16565b613224565b601980546000908152600e6020908152604080832097909755825482526010815286822098909855815481526011885285812096909655805486526012875284862093909355825485526013865283852091909155815484526014855282842055548252601590925220805460ff1916905550565b600061101a826127686127616012600a614294565b8690613242565b9061324e565b6001600160a01b0383166127d25760405162461bcd60e51b815260206004820152602560248201527f45524332303a207472616e736665722066726f6d20746865207a65726f206164604482015264647265737360d81b6064820152608401610c36565b6001600160a01b0382166128345760405162461bcd60e51b815260206004820152602360248201527f45524332303a207472616e7366657220746f20746865207a65726f206164647260448201526265737360e81b6064820152608401610c36565b6001600160a01b038316600090815260096020526040902054818110156128ac5760405162461bcd60e51b815260206004820152602660248201527f45524332303a207472616e7366657220616d6f756e7420657863656564732062604482015265616c616e636560d01b6064820152608401610c36565b6128b6828261435b565b6001600160a01b0380861660009081526009602052604080822093909355908516815290812080548492906128ec908490614219565b92505081905550826001600160a01b0316846001600160a01b03166000805160206144298339815191528460405161292691815260200190565b60405180910390a350505050565b6000818152600183016020526040812054151561101a565b600061101a838361325a565b6001600160a01b0382166129ae5760405162461bcd60e51b815260206004820152601f60248201527f45524332303a206d696e7420746f20746865207a65726f2061646472657373006044820152606401610c36565b80600b60008282546129c09190614219565b90915550506001600160a01b038216600090815260096020526040812080548392906129ed908490614219565b90915550506040518181526001600160a01b038316906000906000805160206144298339815191529060200160405180910390a35050565b6000612a336012600a614294565b612a3d8484613242565b61101a9190614231565b6000612a538383612f2b565b60008481526001602090815260408083203080855290835281842054888552600384528285209185529252909120546007549293509091612ab0612a97858561435b565b600088815260046020526040902054611ba09088614219565b10612b2657612ae085612ace84600754612a2590919063ffffffff16565b60009182526004602052604090912055565b612aea85856132a9565b612af6853033866132c7565b612b2185612b0f83600854612a2590919063ffffffff16565b60009182526005602052604090912055565b612b5f565b612b3085856131da565b612b3c853033866132c7565b612b5f85612b0f83612b4d89610fe9565b611b9a90670de0b6b3a764000061435b565b5050505050565b6040516001600160a01b0380851660248301528316604482015260648101829052612bd19085906323b872dd60e01b906084015b60408051601f198184030181529190526020810180516001600160e01b03166001600160e01b0319909316929092179091526133c6565b50505050565b6000612be38383612c5e565b6000848152600160209081526040808320308452909152902054909150612c0a8483613498565b612c16843330866134d9565b612c2784612ace83612b4d88611d81565b5092915050565b6040516001600160a01b03831660248201526044810182905261136590849063a9059cbb60e01b90606401612b9a565b60008281526003602090815260408083203084528252808320548584526005909252822054612c9090849083906135ca565b949350505050565b60008381526001602090815260408083206001600160a01b038616845290915281208054839290612cca90849061435b565b909155505060008381526020819052604081208054839290612ced90849061435b565b90915550506040517fe1b6e34006e9871307436c226f232f9c5e7690c1d2c4f4adda4f607a75a9beca90612d279060009085908590613fc6565b60405180910390a1505050565b60008381526003602090815260408083206001600160a01b038616845290915281208054839290612d6690849061435b565b909155505060008381526002602052604081208054839290612d8990849061435b565b90915550506040517fe1b6e34006e9871307436c226f232f9c5e7690c1d2c4f4adda4f607a75a9beca90612d279060019085908590613fc6565b60008281526001602090815260408083203084528252808320548584526004909252822054612c9090849083906135ca565b6000806000806000612e078787611c16565b94509450945094509450612e1b87866131da565b612e258785613224565b612e308733856130bc565b612e3b87338461314b565b612e453382612958565b50505050505050565b6000612e5a8383612f58565b60008481526001602090815260408083203080855290835281842054888552600384528285209185529252909120546007549293509091612eb7612e9e858461435b565b600088815260056020526040902054611ba09088614219565b10612f0457612ed585612b0f83600754612a2590919063ffffffff16565b612edf85856132a9565b612eeb853033866134d9565b612b2185612ace84600854612a2590919063ffffffff16565b612f0e8585613224565b612f1a853033866134d9565b612b5f85612ace83612b4d89611d81565b6000828152600460209081526040808320546001835281842030855290925282205461101a9184916135fb565b6000828152600560209081526040808320546003835281842030855290925282205461101a9184916135fb565b600080600080612f958686611b3d565b600089815260066020908152604080832054600490925282205494975092955090935091612fc99190611ba0908790612a25565b60008881526006602090815260408083205460059092528220549293509091612ff89190611ba0908890612a25565b6000898152600660205260408120549192509061302290611ba061301b8c6115e7565b8990612a25565b905061302e89846136dd565b6130388983613498565b61304289826136fb565b61304d893087612c98565b613058893086612d34565b6130623389613719565b5093979650505050505050565b60008281526003602090815260408083203084529091528120546130938484612dc3565b915061309f84836136dd565b6130ab843330866132c7565b612c2784612b0f83612b4d88610fe9565b60008381526001602090815260408083206001600160a01b0386168452909152812080548392906130ee908490614219565b909155505060008381526020819052604081208054839290613111908490614219565b90915550506040517f4e3883c75cc9c752bb1db2e406a822e4a75067ae77ad9a0a4d179f2709b9e1f690612d279060009085908590613fc6565b60008381526003602090815260408083206001600160a01b03861684529091528120805483929061317d908490614219565b9091555050600083815260026020526040812080548392906131a0908490614219565b90915550506040517f4e3883c75cc9c752bb1db2e406a822e4a75067ae77ad9a0a4d179f2709b9e1f690612d279060019085908590613fc6565b600082815260046020526040812080548392906131f8908490614219565b90915550506000828152600660205260408120805483929061321b908490614219565b90915550505050565b600082815260056020526040812080548392906131f8908490614219565b600061101a828461433c565b600061101a8284614231565b60008181526001830160205260408120546132a157508154600181810184556000848152602080822090930184905584548482528286019093526040902091909155610dbe565b506000610dbe565b6000828152600660205260408120805483929061321b908490614219565b6001600160a01b0383166132ed5760405162461bcd60e51b8152600401610c36906140a3565b6001600160a01b0382166133135760405162461bcd60e51b8152600401610c36906140da565b60008481526001602090815260408083206001600160a01b03871684529091528120805483929061334590849061435b565b909155505060008481526001602090815260408083206001600160a01b03861684529091528120805483929061337c908490614219565b90915550506040517ff2dbd98d79f00f7aff338b824931d607bfcc63d47307162470f25a055102d3b0906133b890600090869086908690613fa1565b60405180910390a150505050565b600061341b826040518060400160405280602081526020017f5361666545524332303a206c6f772d6c6576656c2063616c6c206661696c6564815250856001600160a01b03166138569092919063ffffffff16565b80519091501561136557808060200190518101906134399190613d61565b6113655760405162461bcd60e51b815260206004820152602a60248201527f5361666545524332303a204552433230206f7065726174696f6e20646964206e6044820152691bdd081cdd58d8d9595960b21b6064820152608401610c36565b600082815260056020526040812080548392906134b690849061435b565b90915550506000828152600660205260408120805483929061321b90849061435b565b6001600160a01b0383166134ff5760405162461bcd60e51b8152600401610c36906140a3565b6001600160a01b0382166135255760405162461bcd60e51b8152600401610c36906140da565b60008481526003602090815260408083206001600160a01b03871684529091528120805483929061355790849061435b565b909155505060008481526003602090815260408083206001600160a01b03861684529091528120805483929061358e908490614219565b90915550506040517ff2dbd98d79f00f7aff338b824931d607bfcc63d47307162470f25a055102d3b0906133b890600190869086908690613fa1565b6000806135d7858461433c565b905060006135e58686614219565b90506135f18183614231565b9695505050505050565b6000670de05bc096e9c000613610848461274c565b1061361c57508261101a565b60006136426136336127106127688661270f613242565b61363d908661433c565b613865565b9050600061366561365b61270f61276887612710613242565b61363d908761433c565b9050816136728688614219565b11156136ac57848287613685848861435b565b61368f9190614219565b613699919061435b565b6136a39190614219565b9250505061101a565b60006136b8878661433c565b905060006136c68888614219565b90506136d28183614231565b94505050505061101a565b600082815260046020526040812080548392906134b690849061435b565b6000828152600660205260408120805483929061321b90849061435b565b6001600160a01b0382166137795760405162461bcd60e51b815260206004820152602160248201527f45524332303a206275726e2066726f6d20746865207a65726f206164647265736044820152607360f81b6064820152608401610c36565b6001600160a01b038216600090815260096020526040902054818110156137ed5760405162461bcd60e51b815260206004820152602260248201527f45524332303a206275726e20616d6f756e7420657863656564732062616c616e604482015261636560f01b6064820152608401610c36565b6137f7828261435b565b6001600160a01b038416600090815260096020526040812091909155600b805484929061382590849061435b565b90915550506040518281526000906001600160a01b038516906000805160206144298339815191529060200161212b565b6060612c9084846000856138d4565b600060038211156138c6575080600061387f600283614231565b61388a906001614219565b90505b818110156138c0579050806002816138a58186614231565b6138af9190614219565b6138b99190614231565b905061388d565b50919050565b811561164a57506001919050565b6060824710156139355760405162461bcd60e51b815260206004820152602660248201527f416464726573733a20696e73756666696369656e742062616c616e636520666f6044820152651c8818d85b1b60d21b6064820152608401610c36565b843b6139835760405162461bcd60e51b815260206004820152601d60248201527f416464726573733a2063616c6c20746f206e6f6e2d636f6e74726163740000006044820152606401610c36565b600080866001600160a01b0316858760405161399f9190613f64565b60006040518083038185875af1925050503d80600081146139dc576040519150601f19603f3d011682016040523d82523d6000602084013e6139e1565b606091505b50915091506139f18282866139fc565b979650505050505050565b60608315613a0b57508161101a565b825115613a1b5782518084602001fd5b8160405162461bcd60e51b8152600401610c369190613fe5565b828054613a419061439e565b90600052602060002090601f016020900481019282613a635760008555613aa9565b82601f10613a7c57805160ff1916838001178555613aa9565b82800160010185558215613aa9579182015b82811115613aa9578251825591602001919060010190613a8e565b50613ab5929150613af6565b5090565b6040518060e00160405280600081526020016000815260200160008152602001600081526020016000815260200160008152602001600081525090565b5b80821115613ab55760008155600101613af7565b80356001600160a01b038116811461164a57600080fd5b600082601f830112613b32578081fd5b813567ffffffffffffffff80821115613b4d57613b4d6143ff565b604051601f8301601f19908116603f01168101908282118183101715613b7557613b756143ff565b81604052838152866020858801011115613b8d578485fd5b8360208701602083013792830160200193909352509392505050565b600060208284031215613bba578081fd5b61101a82613b0b565b60008060408385031215613bd5578081fd5b613bde83613b0b565b9150613bec60208401613b0b565b90509250929050565b600080600080600080600060e0888a031215613c0f578283fd5b613c1888613b0b565b9650613c2660208901613b0b565b9550604088013567ffffffffffffffff80821115613c42578485fd5b613c4e8b838c01613b22565b965060608a0135915080821115613c63578485fd5b50613c708a828b01613b22565b945050608088013560038110613c84578384fd5b925060a088013560048110613c97578283fd5b8092505060c0880135905092959891949750929550565b600080600060608486031215613cc2578283fd5b613ccb84613b0b565b9250613cd960208501613b0b565b9150604084013590509250925092565b60008060408385031215613cfb578182fd5b613d0483613b0b565b946020939093013593505050565b600080600080600060a08688031215613d29578081fd5b613d3286613b0b565b9450602086013593506040860135925060608601359150613d5560808701613b0b565b90509295509295909350565b600060208284031215613d72578081fd5b8151801515811461101a578182fd5b600060208284031215613d92578081fd5b5035919050565b600060208284031215613daa578081fd5b5051919050565b60008060408385031215613dc3578182fd5b82359150613bec60208401613b0b565b60008060408385031215613de5578182fd5b50508035926020909101359150565b60008060408385031215613e06578182fd5b505080516020909101519092909150565b60008060008060808587031215613e2c578384fd5b505082516020840151604085015160609095015191969095509092509050565b6000815180845260208085019450808401835b83811015613e7b57815187529582019590820190600101613e5f565b509495945050505050565b60048110613e9657613e966143e9565b9052565b60008151808452613eb2816020860160208601614372565b601f01601f19169290920160200192915050565b8054600090600181811c9080831680613ee057607f831692505b6020808410821415613f0057634e487b7160e01b86526022600452602486fd5b83885260208801828015613f1b5760018114613f2c57613f57565b60ff19871682528282019750613f57565b60008981526020902060005b87811015613f5157815484820152908601908401613f38565b83019850505b5050505050505092915050565b60008251613f76818460208701614372565b9190910192915050565b60208101613f8d83614415565b91905290565b60208101610dbe8284613e86565b9384526001600160a01b03928316602085015291166040830152606082015260800190565b9283526001600160a01b03919091166020830152604082015260600190565b60208152600061101a6020830184613e9a565b60408152600061400b6040830185613ec6565b90508260208301529392505050565b60808152600061402d6080830187613ec6565b6020830195909552506040810192909252606090910152919050565b6020808252600b908201526a383934b1b29032b93937b960a91b604082015260600190565b6020808252818101527f4f776e61626c653a2063616c6c6572206973206e6f7420746865206f776e6572604082015260600190565b6020808252601d908201527f66726f6d2073686f756c64206e6f742062652061646472657373283029000000604082015260600190565b6020808252601b908201527f746f2073686f756c64206e6f7420626520616464726573732830290000000000604082015260600190565b602081526000825160a0602084015261412d60c0840182613e9a565b90506020840151601f1984830301604085015261414a8282613e9a565b915050604084015161415b81614415565b8060608501525060608401516141746080850182613e86565b50608084015160a08401528091505092915050565b6020815260008251608060208401526141a560a0840182613e4c565b90506020840151601f19808584030160408601526141c38383613e4c565b92506040860151915080858403016060860152506141e18282613e4c565b915050606084015160808401528091505092915050565b8381526060810161420884614415565b602082019390935260400152919050565b6000821982111561422c5761422c6143d3565b500190565b60008261424c57634e487b7160e01b81526012600452602481fd5b500490565b600181815b8085111561428c578160001904821115614272576142726143d3565b8085161561427f57918102915b93841c9390800290614256565b509250929050565b600061101a83836000826142aa57506001610dbe565b816142b757506000610dbe565b81600181146142cd57600281146142d7576142f3565b6001915050610dbe565b60ff8411156142e8576142e86143d3565b50506001821b610dbe565b5060208310610133831016604e8410600b8410161715614316575081810a610dbe565b6143208383614251565b8060001904821115614334576143346143d3565b029392505050565b6000816000190483118215151615614356576143566143d3565b500290565b60008282101561436d5761436d6143d3565b500390565b60005b8381101561438d578181015183820152602001614375565b83811115612bd15750506000910152565b600181811c908216806143b257607f821691505b602082108114156138c057634e487b7160e01b600052602260045260246000fd5b634e487b7160e01b600052601160045260246000fd5b634e487b7160e01b600052602160045260246000fd5b634e487b7160e01b600052604160045260246000fd5b60038110614425576144256143e9565b5056feddf252ad1be2c89b69c2b068fc378daa952ba7f163c4a11628f55a4df523b3efa26469706673582212206bdbd72295eff3adbc9fda4fc7eee9ac64cdbbffca574f0c7ef67591602e339764736f6c63430008040033a264697066735822122092d7a952867dba33ff6f83a064a23e9c2f885907a71b50b81d9ca181649290de64736f6c63430008040033",
  "devdoc": {
    "kind": "dev",
    "methods": {},
    "version": 1
  },
  "userdoc": {
    "kind": "user",
    "methods": {},
    "version": 1
  },
  "storageLayout": {
    "storage": [],
    "types": null
  }
}